:1000000000000020F5040000E7430000ED4300007D
:10001000F3430000F9430000FF430000000000002C
:100020000000000000000000000000006505000066
:1000300005440000000000000B0600006B060000F5
:100040007542000083420000914200009F42000080
:10005000AD420000BB420000C9420000D742000090
:10006000E5420000F3420000014300000F4300009E
:100070001D4300002B4300003943000047430000AC
:10008000554300000B4400001144000017440000D9
:100090001D44000023440000294400002F440000B8
:1000A000354400003B440000414400004744000048
:1000B0004D440000534400005944000063430000D5
:1000C0005F44000071430000654400007F4300006E
:1000D0006B4400008D430000714400007744000031
:1000E0007D44000083440000894400008F440000E8
:1000F000954400009B440000A1440000A744000078
:1001000005050000050500000505000005050000C7
:10011000AD440000B3440000B9440000BF440000F7
:10012000C5440000CB440000D1440000D744000087
:10013000DD440000E3440000E9440000EF44000017
:10014000F5440000FB4400009B4300000145000013
:10015000A9430000074500000D45000013450000BD
:10016000194500001F450000254500002B450000F3
:1001700031450000374500003D4500004345000083
:1001800049450000050500000505000005050000C3
:100190000505000005050000050500000505000037
:1001A0000505000005050000050500000505000027
:1001B0000505000005050000050500000505000017
:1001C0000505000005050000050500000505000007
:1003F000050500000505000005050000FFFFFFFFE3
:10040000FFFFFFFFFFFFFFFFFFFFFFFFFEFFFFFFFD
:1004400010B5054C237833B9044B13B10448AFF30E
:1004500000800123237010BD580E00200000000012
:1004600000BC000008B5034B1BB103490348AFF3C0
:10047000008008BD000000005C0E002000BC0000F1
:10048000154B002B08BF134B9D46A3F5803A002166
:100490008B460F461348144A121A08F0BBFB0F4B49
:1004A000002B00D098470E4B002B00D0984700201F
:1004B000002104000D000D48002802D00C4808F06F
:1004C00087F808F0CFF82000290003F0AFFE08F00D
:1004D0008BF800BF000008000000002000000000B2
:1004E0005D3F0000580E0020BC400020D185000078
:1004F0000986000072B604F033FB04F0CBFA62B652
:10050000FFF7BEFFFFF7FEBF80F309887047EFF3E8
:1005100009807047684680F309885A480078C00708
:1005200014BF0220032080F314887047DFF858C1FD
:10053000EFF305831B0618BF6047EFF31483DB0757
:1005400008BF604700DF7047DFF840C1EFF3058365
:100550001B0618BF6047EFF31483DB0708BF604733
:1005600000DF7047EFF30980816911F8021CE1BBDD
:1005700090E80F1010B5E047BDE81040EFF3098C8C
:100580008CE80700424B93E80600914208BF704791
:1005900041B91EF0100F16D13E49086820F0010045
:1005A000086010E01EF0100F06BF2CED108A01202D
:1005B000002081F825002CE9F00FC1F828C00CB408
:1005C00005F0ACFE0CBC1A60D2F828C0BCE8F00FF5
:1005D00092F8250000280EBF6FF0020E6FF0120E89
:1005E000BCEC108A8CF30988704710B52A4A12684F
:1005F000914209D8294C54F8214090E80F10A047A7
:10060000EFF3098C8CE80F0010BD10B505F00AFE61
:10061000BDE810401E4B93E80600914208BF7047AA
:10062000EFF3098C1EF0100F06BF2CED108A01208D
:10063000002081F825002CE9F00FC1F828C00CB487
:1006400005F06CFE0CBC1A60D2F828C0BCE8F00FB4
:1006500092F8250000280EBF6FF0020E6FF0120E08
:10066000BCEC108A8CF30988704710B505F038FE91
:10067000FFF7CEBF10B505F031FE05F031FEFFF7F4
:10068000C7BF000088B00000A95B0000C55B000088
:100690005840002034EF00E000000000FCFFFFFFA6
:1006A00081F0004102E000BF83F0004330B54FEA23
:1006B00041044FEA430594EA050F08BF90EA020F90
:1006C0001FBF54EA000C55EA020C7FEA645C7FEA23
:1006D000655C00F0E2804FEA5454D4EB5555B8BF46
:1006E0006D420CDD2C4480EA020281EA030382EAB7
:1006F000000083EA010180EA020281EA0303362D49
:1007000088BF30BD11F0004F4FEA01314FF4801C1B
:100710004CEA113102D0404261EB410113F0004F2D
:100720004FEA03334CEA133302D0524263EB4303E4
:1007300094EA050F00F0A780A4F10104D5F1200E82
:100740000DDB02FA0EFC22FA05F2801841F10001DD
:1007500003FA0EF2801843FA05F359410EE0A5F1B1
:1007600020050EF1200E012A03FA0EFC28BF4CF0E2
:10077000020C43FA05F3C01851EBE37101F0004598
:1007800007D54FF0000EDCF1000C7EEB00006EEBA5
:100790000101B1F5801F1BD3B1F5001F0CD349082F
:1007A0005FEA30004FEA3C0C04F101044FEA445286
:1007B00012F5800F80F09A80BCF1004F08BF5FEA0D
:1007C000500C50F1000041EB045141EA050130BDED
:1007D0005FEA4C0C404141EB010111F4801FA4F190
:1007E0000104E9D191F0000F04BF01460020B1FAE5
:1007F00081F308BF2033A3F10B03B3F120020CDA1D
:100800000C3208DD02F1140CC2F10C0201FA0CF0FA
:1008100021FA02F10CE002F11402D8BFC2F1200C5F
:1008200001FA02F120FA0CFCDCBF41EA0C01904015
:10083000E41AA2BF01EB0451294330BD6FEA04045E
:100840001F3C1CDA0C340EDC04F11404C4F1200249
:1008500020FA04F001FA02F340EA030021FA04F35B
:1008600045EA030130BDC4F10C04C4F1200220FAB2
:1008700002F001FA04F340EA0300294630BD21FAF0
:1008800004F0294630BD94F0000F83F4801306BFB6
:1008900081F480110134013D4EE77FEA645C18BFAA
:1008A0007FEA655C29D094EA050F08BF90EA020F41
:1008B00005D054EA000C04BF1946104630BD91EA39
:1008C000030F1EBF0021002030BD5FEA545C05D13C
:1008D0004000494128BF41F0004130BD14F580047B
:1008E0003CBF01F5801130BD01F0004545F0FE41EF
:1008F00041F470014FF0000030BD7FEA645C1ABF24
:10090000194610467FEA655C1CBF0B46024650EA5A
:10091000013406BF52EA033591EA030F41F4002186
:1009200030BD00BF90F0000F04BF0021704730B50C
:100930004FF4806404F132044FF000054FF00001E1
:1009400050E700BF90F0000F04BF0021704730B5A2
:100950004FF4806404F1320410F0004548BF404277
:100960004FF000013EE700BF42004FEAE2014FEACC
:1009700031014FEA02701FBF12F07F4393F07F4FA7
:1009800081F06051704732F07F4208BF704793F0AA
:100990007F4F04BF41F40021704730B54FF46074BD
:1009A00001F0004521F000411CE700BF50EA0102C0
:1009B00008BF704730B54FF000050AE050EA010269
:1009C00008BF704730B511F0004502D5404261EBD9
:1009D00041014FF4806404F132045FEA915C3FF41A
:1009E000D8AE4FF003025FEADC0C18BF03325FEAB7
:1009F000DC0C18BF033202EBDC02C2F1200300FA68
:100A000003FC20FA02F001FA03FE40EA0E0021FA8C
:100A100002F11444BDE600BF70B54FF0FF0C4CF47A
:100A2000E06C1CEA11541DBF1CEA135594EA0C0F2C
:100A300095EA0C0F00F0DEF82C4481EA030621EA67
:100A40004C5123EA4C5350EA013518BF52EA0335A2
:100A500041F4801143F4801338D0A0FB02CE4FF054
:100A60000005E1FB02E506F00042E0FB03E54FF084
:100A70000006E1FB03569CF0000F18BF4EF0010E7C
:100A8000A4F1FF04B6F5007F64F5407404D25FEA78
:100A90004E0E6D4146EB060642EAC62141EA55512B
:100AA0004FEAC52040EA5E504FEACE2EB4F1FD0C6D
:100AB00088BFBCF5E06F1ED8BEF1004F08BF5FEAEB
:100AC000500E50F1000041EB045170BD06F000469D
:100AD00046EA010140EA020081EA0301B4EB5C044A
:100AE000C2BFD4EB0C0541EA045170BD41F4801142
:100AF0004FF0000E013C00F3AB8014F1360FDEBF67
:100B0000002001F0004170BDC4F10004203C35DA42
:100B10000C341BDC04F11404C4F1200500FA05F3C5
:100B200020FA04F001FA05F240EA020001F0004266
:100B300021F0004110EBD37021FA04F642EB0601DC
:100B40005EEA430E08BF20EAD37070BDC4F10C0406
:100B5000C4F1200500FA04F320FA05F001FA04F2CA
:100B600040EA020001F0004110EBD37041F10001B6
:100B70005EEA430E08BF20EAD37070BDC4F12005C1
:100B800000FA05F24EEA020E20FA04F301FA05F229
:100B900043EA020321FA04F001F0004121FA04F2D1
:100BA00020EA020000EBD3705EEA430E08BF20EAA1
:100BB000D37070BD94F0000F0FD101F000464000DB
:100BC00041EB010111F4801F08BF013CF7D041EA5D
:100BD000060195F0000F18BF704703F00046520061
:100BE00043EB030313F4801F08BF013DF7D043EA32
:100BF0000603704794EA0C0F0CEA135518BF95EAE8
:100C00000C0F0CD050EA410618BF52EA4306D1D16E
:100C100081EA030101F000414FF0000070BD50EA8D
:100C2000410606BF1046194652EA430619D094EA17
:100C30000C0F02D150EA013613D195EA0C0F05D101
:100C400052EA03361CBF104619460AD181EA030155
:100C500001F0004141F0FE4141F470014FF000000D
:100C600070BD41F0FE4141F4780170BD70B54FF0A8
:100C7000FF0C4CF4E06C1CEA11541DBF1CEA135528
:100C800094EA0C0F95EA0C0F00F0A7F8A4EB05040A
:100C900081EA030E52EA03354FEA013100F0888001
:100CA0004FEA03334FF0805545EA131343EA1263CA
:100CB0004FEA022245EA111545EA10654FEA00267F
:100CC0000EF000419D4208BF964244F1FD0404F538
:100CD000407402D25B084FEA3202B61A65EB030594
:100CE0005B084FEA32024FF480104FF4002CB6EB51
:100CF000020E75EB030E22BFB61A754640EA0C00D1
:100D00005B084FEA3202B6EB020E75EB030E22BF10
:100D1000B61A754640EA5C005B084FEA3202B6EB51
:100D2000020E75EB030E22BFB61A754640EA9C0010
:100D30005B084FEA3202B6EB020E75EB030E22BFE0
:100D4000B61A754640EADC0055EA060E18D04FEA9E
:100D5000051545EA16754FEA06164FEAC30343EA3E
:100D600052734FEAC2025FEA1C1CC0D111F4801F0B
:100D70000BD141EA00014FF000004FF0004CB6E704
:100D800011F4801F04BF01430020B4F1FD0C88BFA3
:100D9000BCF5E06F3FF6AFAEB5EB030C04BFB6EBAE
:100DA000020C5FEA500C50F1000041EB045170BDA1
:100DB0000EF0004E4EEA113114EB5C04C2BFD4EBCE
:100DC0000C0541EA045170BD41F480114FF0000E52
:100DD000013C90E645EA060E8DE60CEA135594EACE
:100DE0000C0F08BF95EA0C0F3FF43BAF94EA0C0FD1
:100DF0000AD150EA01347FF434AF95EA0C0F7FF446
:100E000025AF104619462CE795EA0C0F06D152EA99
:100E100003353FF4FDAE1046194622E750EA41067D
:100E200018BF52EA43067FF4C5AE50EA41047FF48E
:100E30000DAF52EA43057FF4EBAE12E74FF0FF3CF3
:100E400006E000BF4FF0010C02E000BF4FF0010CC4
:100E50004DF804CD4FEA410C7FEA6C5C4FEA430C3D
:100E600018BF7FEA6C5C1BD001B050EA410C0CBF8C
:100E700052EA430C91EA030F02BF90EA020F0020EE
:100E8000704710F1000F91EA030F58BF994208BF55
:100E900090422CBFD8176FEAE37040F00100704712
:100EA0004FEA410C7FEA6C5C02D150EA013C07D169
:100EB0004FEA430C7FEA6C5CD6D152EA033CD3D0B4
:100EC0005DF8040B704700BF8446104662468C46AE
:100ED0001946634600E000BF01B5FFF7B7FF0028E1
:100EE00048BF10F1000F01BD4DF808EDFFF7F4FF0A
:100EF0000CBF012000205DF808FB00BF4DF808ED95
:100F0000FFF7EAFF34BF012000205DF808FB00BFB7
:100F10004DF808EDFFF7E0FF94BF012000205DF8D9
:100F200008FB00BF4DF808EDFFF7CEFF94BF01208E
:100F300000205DF808FB00BF4DF808EDFFF7C4FF87
:100F400034BF012000205DF808FB00BF4FEA410CD0
:100F50007FEA6C5C02D150EA013C0AD14FEA430CB3
:100F60007FEA6C5C02D152EA033C02D14FF00000F0
:100F700070474FF0010070474A0011D212F500127D
:100F800011D20DD56FF47873B3EB62520ED44FEAE1
:100F9000C12343F0004343EA505323FA02F0704761
:100FA0004FF00000704750EA013002D14FF0FF309F
:100FB00070474FF0000070474FEA4102B2F1E04342
:100FC00024BFB3F5001CDCF1FE5C0DD901F0004C30
:100FD0004FEAC0024CEA5070B2F1004F40EB830080
:100FE00008BF20F00100704711F0804F21D113F1AC
:100FF0003872BCBF01F00040704741F480114FEAE5
:101000005252C2F11802C2F1200C10FA0CF320FA6D
:1010100002F018BF40F001004FEAC1234FEAD3238A
:1010200003FA0CFC40EA0C0023FA02F34FEA4303F4
:10103000CCE77FEA625307D150EA01331EBF4FF07D
:10104000FE4040F44000704701F0004040F0FE4098
:1010500040F40000704700BF53B94AB9002908BFE7
:1010600000281CBF4FF0FF314FF0FF3001F0F8B8FF
:10107000ADF1080C6DE904CE00F006F8DDF804E0EF
:10108000DDE9022304B070472DE9F047089E0446CD
:101090008846002B4BD18A42154667D9B2FA82F2B4
:1010A0004AB1C2F1200701FA02F320FA07F795408E
:1010B00047EA030894404FEA154E230CB8FBFEF7AD
:1010C0001FFA85FC0EFB178843EA084307FB0CF167
:1010D000994209D9EB1807F1FF3080F01B81994242
:1010E00040F21881023F2B445B1AA4B2B3FBFEF01E
:1010F0000EFB103344EA034400FB0CFCA44509D961
:101100002C1900F1FF3380F00781A44540F20481DF
:1011100002382C4440EA0740A4EB0C0400271EB11F
:10112000D4400023C6E900433946BDE8F0878B422E
:1011300009D9002E00F0EB800027C6E900013846EF
:101140003946BDE8F087B3FA83F7002F47D18B42C9
:1011500002D3824200F2FA80841A61EB0303012079
:101160009846002EE0D0C6E90048DDE702B9FFDE70
:10117000B2FA82F2002A40F08F80491B4FEA154EE6
:101180001FFA85F80127B1FBFEFC230C0EFB1C1196
:1011900043EA014308FB0CF1994207D9EB180CF123
:1011A000FF3002D2994200F2CD808446591AA3B290
:1011B000B1FBFEF00EFB101443EA044408FB00F8F8
:1011C000A04507D92C1900F1FF3302D2A04500F247
:1011D000B6801846A4EB080440EA0C409FE7C7F12C
:1011E000200CBB4022FA0CFE4EEA030E01FA07F473
:1011F00020FA0CF521FA0CF34FEA1E482543B3FB05
:10120000F8F92C0C08FB19331FFA8EFA44EA034351
:1012100009FB0AF49C4202FA07F200FA07F10BD923
:101220001EEB030309F1FF3080F087809C4240F2FF
:101230008480A9F1020973441B1BADB2B3FBF8F023
:1012400008FB103345EA034400FB0AFAA24508D91B
:101250001EEB040400F1FF336BD2A24569D90238BA
:10126000744440EA0940A0FB0289A4EB0A044C45FF
:10127000C2464B4654D351D0002E69D0B1EB0A057B
:1012800064EB030404FA0CFCFD40FC404CEA050549
:10129000C6E90054002747E7C2F1200320FA03F70C
:1012A000954001FA02F021FA03F34FEA154E384354
:1012B000010CB3FBFEF71FFA85F80EFB173341EA6A
:1012C000034107FB08F38B4204FA02F407D96918BB
:1012D00007F1FF3C2FD28B422DD9023F2944CB1A74
:1012E00081B2B3FBFEF00EFB103341EA034100FB79
:1012F00008F38B4207D9691800F1FF3C17D28B42E3
:1013000015D902382944C91A40EA07473BE737464E
:10131000304609E70746E7E61846FBE64145ABD20B
:10132000B8EB020A69EB0E0201381346A4E76046E7
:10133000E9E7184695E76746D1E781467CE702383A
:101340002C4447E7ACF1020C2B442FE7384608E762
:101350003746E9E603685A004CBF43F0004323F0E8
:1013600000431844704700BF61B32DE9F84F01F105
:10137000FF3A90460646D146002707EB090404EBE6
:10138000D4746410E50071190846FFF7E3FFA24525
:10139000834605F10800304409D0FFF7DBFFC34561
:1013A00000F1FF3005D8404509D2671CE5E7C34589
:1013B00005D9A74202D004F1FF39DEE70021084633
:1013C000BDE8F88F08467047012807D0022807D0EB
:1013D000044B00280CBF1846002070470248704795
:1013E00002487047B51A0000B91A0000BD1A000083
:1013F00030B5254B83B004468D1E4BB301A928465A
:10140000AFF30080F0B101992A46FFF7ADFF014626
:10141000C0B1FFF79FFF4B68A064012B2ED0002BBB
:1014200001F1040026DBFFF795FF0023C4E9130355
:101430000368002B12DBFFF78DFF002320611846A5
:1014400003B030BD002323610923184603B030BD2B
:101450000E490F48091AC9100191D5E7C3F303607B
:10146000FFF7B2FF002814BF0023092320611846AC
:1014700003B030BD0123C4E91303D9E7002323617E
:101480000523184603B030BD0000000090C10000E5
:10149000A0BE00000368DA0710B5044606D49B0717
:1014A00000F1480009D500F05FFC2368590709D511
:1014B0001A070ED5DB0613D510BD00F04DFC2368CE
:1014C0005907F5D404F1D00000F056FC23681A0740
:1014D000F0D404F5A87000F057FC2368DB06EBD4C9
:1014E00004F5E870BDE8104000F092BC036803B159
:1014F00003441846704700BF09207047704700BF7B
:1015000070B504460D4608E02B6C63612A462369DA
:10151000214601209847082808D1296C2046FFF76A
:1015200067FF06460028EFD007F02CF80728FBD10C
:101530003046296CFFF7E2FF281D00F001FC00BFD8
:101540002DE9F0470C1D054617460FCCADF5727D11
:1015500003AE0FC60FCC0FC60FCC0FC694E80F001A
:1015600002ACD5F80C80D5F8189086E80F0000235F
:10157000236021E0236C6B614FF4F07221467AA85E
:1015800000F070FE2B697AAA294630469847889B5E
:10159000CDE900498246636431462B462A46012044
:1015A000C0470746F8B94FF4F0727AA9204600F018
:1015B00059FEBAF1080F1CD1216C2846FFF718FF1D
:1015C000002F08BF0926074618BF0A260028D1D0D9
:1015D000A36B46F01001CDE900492A46636401205F
:1015E0002B46C04700B1092738460DF5727DBDE88E
:1015F000F087BAF1070FF6D13846216CFFF77EFF6E
:1016000003A800F09DFB00BF406C7047F0B5CB6BAA
:101610000B640D1D0F4606460FCDF9B001AC0FC48B
:101620000FCD0FC40FCD0FC495E80F004FF0FF355D
:1016300084E80F00009506E033696A463146984712
:101640000828044608D110993046FFF7D1FE00283B
:10165000F2D0092079B0F0BD6846FFF71BFF062CD9
:10166000F7D139463046FFF74BFF00BF30B4DD6B92
:10167000C160826119461D64002230BC60E700BF72
:1016800070B5C66843690B64BEB903690A4604466F
:101690000D46014602209847072807D0082803D1A5
:1016A00029462046FFF72CFF06F06CFF3046296CD8
:1016B000FFF724FF281D00F043FB0122FFF740FF46
:1016C00006F060FFC2681AB1CA6B0A64002237E7ED
:1016D0009CE700BF704700BF836813B1014601203B
:1016E00018477047042907D8DFE801F00308060807
:1016F00008000BB90F2A03D9022070470120704758
:1017000000EB820218465368009A1360704700BFCE
:1017100010B584B0002303AC0A4600941946FFF7C5
:10172000E1FF039804B010BD042907D8DFE801F0F9
:101730000308060808000BB90F2A03D902207047D6
:101740000120704700EB8200009A12684260184640
:10175000704700BF10B584B004AC002344F8042DDA
:101760000A4600941946FFF7DFFF04B010BD00BF22
:10177000F0B5D36B1364151D07460E460FCDADF5BE
:101780000F7D17AC0FC40FCD0FC40FCD0FC495E85C
:101790000F004FF0FF3584E80F00169510E016A8F3
:1017A000FFF7D8FF314616A8B84716AA694678B998
:1017B000049B08209847052804460AD0092807D02A
:1017C00026996846FFF714FE6A460C210028E6D0E9
:1017D000092416A8FFF75EFE20460DF50F7DF0BD2B
:1017E0002DE9F04F0D46C96C89B00C1D164600F06E
:1017F000030B0A6806941F46002B68D0130CD9B25D
:1018000012048DF81D30022304EB810405928DF83B
:101810001C302B6DBBF1020F08BFAC6B13F0010342
:1018200046D1019300F008030093D4F80090B9F179
:10183000000F00F0F380022F45D0B4F80090B4F808
:1018400002800434AB6C28F0010A0F2130469A4420
:10185000FFF75EFF824534D829F0010353448342E9
:1018600094BF002001204FEA480808F0020809F060
:10187000010948EA0908B8F1010F3AD031D3B8F1AB
:10188000020F1AD1236823F0004ABBF1000F66D182
:1018900030B1009A002A6CD0BAF1000F00F09080AD
:1018A000002B00DA04340AF1010304EB8304BCE7E3
:1018B000304605A900F046FB78B1092009B0BDE823
:1018C000F08F0020CFE7D4F804800834BAE7120282
:1018D00003230592ADF81C309BE7082009B0BDE852
:1018E000F08FBBF1000F02D0002840F0B480043428
:1018F0009BE7BBF1000F18D1A8B1D4E90023991CD4
:101900004FEAD272D9D005F158010133049100F0A9
:10191000B580201DFFF7EAFD04AB01462846AFF372
:101920000080002867D108347FE70D213046D5F8C4
:101930002080FFF7EDFE8045F5D1AB6A9C42F2D1E5
:101940002046FFF707FD0F2102463046FFF702FF52
:1019500030462A460021FFF7FDFE0720AEE70D21A5
:101960003046D5F82080FFF7D3FE804532D023687B
:1019700096E7BAF1000F23D005F1580304F10408EB
:10198000CDF808B0DDF800900397A3461C4602E0AE
:101990005745B94640D040460494FFF7A7FD04AB35
:1019A000014600222846AFF3008009F1010708F143
:1019B00004080028ECD0D1455C46DDE902B7D6D159
:1019C00030460D21FFF7A4FE049B2862C5E90934C7
:1019D000062073E7AB6A9C42C9D104224FF000088D
:1019E000A318C5E90AA8C5E90C23236843454DDBC4
:1019F0000123019357E780460D213046FFF788FE0B
:101A0000B8F1020F28623ED12B46049A43F82C2FDE
:101A10006B62AC62062051E75C46D1E705A930460F
:101A200000F090FA00287FF448AF019B002B3FF4B0
:101A300054AF0F213046FFF76BFE0E2102463046B1
:101A4000FFF788FE30461A4A0F21FFF783FE072072
:101A500009B0BDE8F08F2046FFF77CFC0434074650
:101A6000AC632846AFF3008000283FF426AF304631
:101A70003A460F21FFF76EFE07201FE730460D2183
:101A8000FFF746FE2862049B6B62C2E70AF1010081
:101A900004EB8000FFF75EFC0F2102463046FFF7A3
:101AA00059FE30462A464146FFF754FE072005E717
:101AB00000000000002393E6012391E602238FE655
:101AC0002DE9F0410546C4B0042906D8DFE801F04D
:101AD0004D2B05030900032B5FD0022044B0BDE865
:101AE000F081002BF9D1102AF7D82B68DC0600F121
:101AF000F48022AC2046019200F094F9A86B019A80
:101B00000023012606FA03F1114203D0016844F8CC
:101B1000231004300133042BF4D1A863204600F0D5
:101B200077F90020DAE7012B4FEA124697B252D03C
:101B3000052BD2D106EB0708B8F1200FCDD80F2E18
:101B400040F29980B846002F40F0DB80AA6BAA6370
:101B50000F2E40F2BE80B8F1000F02D002A800F0B4
:101B60000BF9002044B0BDE8F081002BB5D1AC6B7F
:101B700097B2281D012606FA03F1394203F1010349
:101B800002D0216801600434102B00F10400F2D16E
:101B900012F40050E5D1AC63A0E7160C97B2F3192C
:101BA000102B9AD82B681A075DD422AC204600F07F
:101BB0000DF904EBC601AB6B3FB103EBC70218682C
:101BC00041F8040B04339342F9D12046AB6300F093
:101BD000DBF8002082E7F219102A3FF67EAF0F2EC5
:101BE0003FF67BAF2A68D10708D5284622F00302CA
:101BF00040F8482B019300F0B3F8019B019322AC0D
:101C0000204600F0ADF8A96B019B002F00F09580F5
:101C10007F0004EBC6044FF00008043C01EB870290
:101C200051F8040B44F8040F9142F9D1B8F1000FB8
:101C30000FD002AC102E314638BF102104EBC10189
:101C4000843902EBC80452F8040B41F8040F9442A3
:101C5000F9D1012B7FF47BAF22AC0432AA6320467A
:101C600000F07AF87DE723F008032B6005F5A870F3
:101C700000F0ACF899E7B8F1100F2A6843D9D00703
:101C8000A8F110080BD5284622F0010242F002020A
:101C900040F8482B019300F06BF82A68019B51072C
:101CA00025D40F2E04D822A8019300F061F8019BDF
:101CB000019302AC204600F063F8C6F11001002940
:101CC000AA6B019BB6DD22AC4F0004EBC6041146A3
:101CD000A3E722A800F048F83DE723F010032B60AB
:101CE00005F5E870019200F09DF8019A01E7284699
:101CF00022F0040240F8D02B019300F041F8019B40
:101D0000CFE72A68CBE7D0070AD5284622F00102A0
:101D100042F0020240F8482B019300F029F8019BA1
:101D2000019322AC204600F023F8B846A96B019B32
:101D3000002F7FF46DAF0A4609E70A468DE700BF22
:101D400000F1340191E838009C46A6464CF8045D49
:101D500090E8FF0FE54600BD90EC210B704700BFF7
:101D600080EC210B704700BF90EC200B704700BF48
:101D700080EC200B704700BFD0EC200B704700BFF9
:101D8000C0EC200B704700BFF0EC0201F0EC021138
:101D9000F0EC0221F0EC0231F0EC0241F0EC0251E7
:101DA000F0EC0261F0EC0271F0EC0281F0EC0291D7
:101DB000F0EC02A1F0EC02B1F0EC02C1F0EC02D1C7
:101DC000F0EC02E1F0EC02F1704700BFE0EC020140
:101DD000E0EC0211E0EC0221E0EC0231E0EC024127
:101DE000E0EC0251E0EC0261E0EC0271E0EC028117
:101DF000E0EC0291E0EC02A1E0EC02B1E0EC02C107
:101E0000E0EC02D1E0EC02E1E0EC02F1704700BF4F
:101E1000B0FC0181B0FC0191B0FC01A1B0FC01B1AA
:101E2000704700BFA0FC0181A0FC0191A0FC01A1B2
:101E3000A0FC01B1704700BFEC4600B52DE9005091
:101E40002DE9FF1F4FF000032DE90C0001A9FFF75A
:101E5000DDFBDDF840E012B0704700BFEC4600B596
:101E60002DE900502DE9FF1F4FF000032DE90C0074
:101E700001A9FFF705FCDDF840E012B0704700BF94
:101E8000EC4600B52DE900502DE9FF1F4FF000038F
:101E90002DE90C0001A9FFF715FCDDF840E012B0B8
:101EA000704700BFEC4600B52DE900502DE9FF1F3B
:101EB0004FF000032DE90C0001ABFFF7D7FBDDF875
:101EC00040E012B0704700BFEC4600B52DE900506D
:101ED0002DE9FF1F4FF000032DE90C0001AAFFF7C9
:101EE00047FCDDF840E012B0704700BF027A82B9CB
:101EF000437AABB14268013B10B4437213680321CB
:101F0000141D01721A02446002605DF8044B180E41
:101F100070470368013A02721A020260180E704795
:101F2000B020704700B585B003AA0023009219467F
:101F30000C22FFF7D7FB039805B05DF804FB00BF48
:101F4000F0E700BF2DE9F043054685B00E464FF09F
:101F500000083046FFF7CAFFB028044600F0B18001
:101F6000070620D500F0F003802B65D0902B36D0EB
:101F7000A02B78D0B02B47D0C02B00F08A8000F087
:101F8000F803D02B0BD100F00702013242F40022FB
:101F9000052301212846FFF793FD0028D9D0092009
:101FA00005B0BDE8F0830DF10C0900231946870048
:101FB000CDF800900D222846FFF794FBFFB2039B5B
:101FC000CDF80090043760064CBFDF1BFF180023DC
:101FD00019460D2228460397FFF7A6FBB9E700F044
:101FE0000D030D2BDBD003AF002300F00F021946C9
:101FF00000972846FFF776FB0023009719460D222D
:102000002846FFF791FBA4E7B1285FD0B22800F083
:10201000CC80B3287ED000F0FC03B42BBFD000F0FE
:1020200007020132012342F4002219462846FFF735
:1020300047FD00288DD0B2E73046FFF757FF240256
:102040000443B4F5004FAAD024010023A2B21946DC
:102050002846FFF735FD0028A1D114F4004F18BF22
:102060004FF0010875E7C24302F007034FF47F62A7
:102070001A41010702F47F624FF0000348BF42F4A7
:10208000804219462846FFF71BFD00283FF461AF48
:1020900085E7C62851D0C7285AD000F0F803C02BD6
:1020A00069D0C82875D0C9287FF479AF3046FFF7CA
:1020B0001DFF020300F00F0002F470220130024302
:1020C00066E7B8F1000F14D0002069E73046FFF74B
:1020D0000DFF00283FF463AF10F0F0037FF45FAF13
:1020E000024619462846FFF7EBFC00283FF431AFC3
:1020F00055E703AC43460E22414600942846FFF7BD
:10210000F1FA0094284643460F224146FFF70CFBA4
:10211000404645E73046FFF7E9FE010300F00F00B7
:1021200001F47021421C01230A4328461946FFF797
:10213000C7FC00283FF40DAF31E73046FFF7D6FE6D
:10214000010300F00F0001F47021421C0323EBE7B0
:102150003046FFF7CBFE024600283FF420AF10F0D8
:10216000F0037FF41CAF04212846FFF7A9FC0028E8
:102170003FF4EFAE13E700F00F020132032342F405
:10218000202219462846FFF79BFC00283FF4E1AEC9
:1021900005E73046FFF7AAFE00F0F00200F00F035B
:1021A0001032013343EA0232F2E600230DF10C094A
:1021B0000D221946CDF800902846FFF793FA3046D5
:1021C000FFF794FE02064FF002070CD5039B00F0C8
:1021D0007F00B840034430460393FFF787FE0306B1
:1021E00007F10707F2D4039BCDF8009000F07F04BD
:1021F00003F50172BC400023144419460D22284601
:102200000394FFF791FAA4E610B5C36C84B05A6842
:1022100003208DF80C00DC798DF80D401202083394
:10222000084601A901920293FFF78CFE04B010BD8D
:1022300008B5FFF785FE806C08BD00BF08B5FFF745
:102240007FFEC06CC37900EB8300083008BD00BF7F
:1022500008B506F097F900BF08B5FFF7F9FF00BF12
:10226000704700BF844641EA000313F003036DD1B9
:10227000403A41D351F8043B40F8043B51F8043B49
:1022800040F8043B51F8043B40F8043B51F8043B50
:1022900040F8043B51F8043B40F8043B51F8043B40
:1022A00040F8043B51F8043B40F8043B51F8043B30
:1022B00040F8043B51F8043B40F8043B51F8043B20
:1022C00040F8043B51F8043B40F8043B51F8043B10
:1022D00040F8043B51F8043B40F8043B51F8043B00
:1022E00040F8043B51F8043B40F8043B51F8043BF0
:1022F00040F8043B403ABDD2303211D351F8043B90
:1023000040F8043B51F8043B40F8043B51F8043BCF
:1023100040F8043B51F8043B40F8043B103AEDD23E
:102320000C3205D351F8043B40F8043B043AF9D28F
:10233000043208D0D2071CBF11F8013B00F8013B62
:1023400001D30B8803806046704700BF082A13D36F
:102350008B078DD010F003038AD0C3F10403D21A87
:10236000DB071CBF11F8013B00F8013B80D331F8BB
:10237000023B20F8023B7BE7043AD9D3013A11F83B
:10238000013B00F8013BF9D20B7803704B784370A6
:102390008B788370604670470000000000000000EA
:1023A00001F0FF01102A2BDB10F0070F08D010F806
:1023B000013B013A8B422DD010F0070F42B3F6D10A
:1023C000F0B441EA012141EA014122F007047FF023
:1023D00000070023F0E80256083C85EA010586EA7A
:1023E000010685FA47F5A3FA87F586FA47F6A5FAB6
:1023F00087F68EB9EED1F0BC01F0FF0102F00702C2
:1024000032B110F8013B013A83EA010313B1F8D16C
:102410000020704701387047002D06BF354603384D
:10242000073815F0010F07D1013015F4807F02BF86
:10243000013015F4C03F0130F0BC0138704700BFD7
:1024400090F800F06DE9024520F007016FF0000CF4
:1024500010F0070491F820F040F049804FF000049C
:102460006FF00700D1E9002391F840F000F1080077
:1024700082FA4CF2A4FA8CF283FA4CF3A2FA8CF3AF
:102480004BBBD1E9022382FA4CF200F10800A4FA16
:102490008CF283FA4CF3A2FA8CF3E3B9D1E904236A
:1024A00082FA4CF200F10800A4FA8CF283FA4CF3A1
:1024B000A2FA8CF37BB9D1E9062301F1200182FA5B
:1024C0004CF200F10800A4FA8CF283FA4CF3A2FA61
:1024D0008CF3002BC6D0002A04BF04301A4612BA6F
:1024E000B2FA82F2FDE8024500EBD2007047D1E972
:1024F000002304F00305C4F100004FEAC50514F001
:10250000040F91F840F00CFA05F562EA05021CBFD1
:1025100063EA050362464FF00004A9E780B584B082
:1025200000AFF860B9601346FB71BB681F2B05D97B
:102530000D4B0E4AFF210E4806F02CF8FB68BA68D6
:1025400053F8223023F0807323F4E063FA79120207
:1025500002F4E06243EA0201FB68BA6843F8221021
:1025600000BF1037BD4680BDD0AF000064B0000092
:10257000DCAF000080B483B000AF78600B46FB7026
:102580007B681B6823F01802FB78DB0003F018035C
:102590001A437B681A6000BF0C37BD465DF8047BA8
:1025A0007047000090B58FB000AF786187ED020BE7
:1025B00087ED001B524A7B695B01134411331B7882
:1025C000002B40F08780002387F82830002387F80D
:1025D0002930002387F82A308023FB62484A7B6930
:1025E0005B0113441868464A7B695B01134404335A
:1025F0001968434A7B695B01134410331B781A4600
:10260000FFF78CFF3E4A7B695B01134408331B686C
:1026100007F128021146184604F0A4FC384A7B69E9
:102620005B01134408331B68DBB20022012118460A
:1026300004F01CFD324A7B695B0113441133042210
:102640001A702F4A7B695B01134403F11802D7E922
:102650000234C2E9003402233B7600237B76284A09
:102660007B695B0113441833D3E9003418462146D3
:10267000FEF782FC0346FB61D7E90001FEF77CFC14
:1026800003463B620023BB841D4A7B695B01134404
:1026900008331B681B4A52F823303B630021386B18
:1026A000FFF768FF164A7B695B011344083318681B
:1026B000134A7B695B0113440C331B68DAB207F1E0
:1026C0001803194604F030FD7B695B010C4A134482
:1026D0007B630FE00A4A7B695B01134411331B786B
:1026E000042B05D17B695B01054A13447B6301E040
:1026F00000237B637B6B18463C37BD4690BD00BF13
:10270000D8010020F8B5000080B483B000AF786035
:1027100000BF0C37BD465DF8047B704790B58BB0A9
:1027200000AFF86087ED000BFB687B627B6A002BD3
:102730002CD07B6A5B7C042B28D102233B740023C2
:102740007B747B6AD3E9063418462146FEF714FCF5
:1027500003467B61D7E90001FEF70EFC0346BB612F
:102760000023BB837B6A9B680A4A52F823303B6292
:102770000021386AFFF7FEFE7B6A98687B6ADB6897
:10278000DAB207F11003194604F0CEFC00BF2C3773
:10279000BD4690BDF8B5000080B485B000AF78604C
:1027A0007B68FB60FB68002B06D0FB685B7C042B1E
:1027B00002D1FB6800225A7400BF1437BD465DF891
:1027C000047B704780B483B000AF786000BF0C37E3
:1027D000BD465DF8047B704780B590B000AF78606F
:1027E0000B46FB70FB78002B27D107F12403002256
:1027F0001A605A609A60DA601A615A612D4A7B68E1
:1028000052F833307B62012387F82830012387F8A0
:1028100029304FF0FF333B6307F12403184604F0DF
:1028200075FD244A7B68DB00134401221A717B6822
:10283000DB00204A1344FB6336E0FB78012B31D1E7
:1028400007F10C0300221A605A609A60DA601A617C
:102850005A61184A7B6852F83330FB6001233B759C
:102860004FF0FF33BB6107F10C03184604F0BEFDC7
:10287000104A7B68DB00134402221A717B68292B03
:102880000AD97B682C2B07D80A4A7B6852F8333068
:102890000121184604F0E2FD7B68DB00054A134481
:1028A000FB6301E00023FB63FB6B18464037BD462A
:1028B00080BD00BF5C00002080B586B000AF7860AE
:1028C0007B683B613B69002B0BD03B691B79012B7B
:1028D00007D13B691B68184604F0CEFD0346FB7523
:1028E00001E00023FB753B691B681B0ADBB2FB6040
:1028F0003B691B68DBB2BB60FB68022B02D1BB6883
:10290000062B05D0FB68002B09D1BB68042B06D130
:10291000FB7D002B0CBF01230023DBB2FB75FB7D8D
:1029200018461837BD4680BD80B586B000AF7860C8
:102930000B46FB707B687B617B69002B2FD07B692A
:102940001B79022B2BD17B691B681B0ADBB23B6115
:102950007B691B68DBB2FB603B69012B05D1FB681F
:10296000162B08D0FB68152B05D03B69042B0FD123
:10297000FB681A2B0CD17B691A68FB78012B14BFFA
:1029800001230023DBB21946104604F067FD06E080
:102990007B691B68FA781146184604F05FFD00BF9A
:1029A0001837BD4680BD80B485B000AF78607B68C5
:1029B000FB60FB68002B0ED0FB681B79022B03D158
:1029C000FB6800221A7106E0FB681B79012B02D11B
:1029D000FB6800221A7100BF1437BD465DF8047B06
:1029E000704780B48DB000AFF860B9607A603B602A
:1029F000FB681B0CBB62FB689BB27B62BB681B0C59
:102A00003B62BB689BB2FB62BB6AFA6A02FB03F3E0
:102A1000FB617B6A3A6A02FB03F3BB617B6AFA6A79
:102A200002FB03F37B620023FB62BB691B047A6A2F
:102A300013447B617A697B6A9A4201D20123FB626B
:102A40007B697B62FB691B047A6913447B617A6949
:102A50007B6A9A4202D2FB6A0133FB62BB691A0CA1
:102A6000FB691B0C1A44BB6A396A01FB03F31A4465
:102A7000FB6A1A447B681A603B687A691A6000BF77
:102A80003437BD465DF8047B704780B584B000AF35
:102A90007860396007F10C0307F10802396878683B
:102AA000FFF79FFFBB68002B02D04FF0FF33FB60A6
:102AB000FB6818461037BD4680BD000080B582B067
:102AC00000AF094BD3F860317B60074B0722C3F896
:102AD000602100F0E9FB044A7B68C2F8603100BF66
:102AE0000837BD4680BD00BF900E002090B585B070
:102AF00000AF87ED000B97ED000B05F021FB51ECCB
:102B0000100B4FF00002334BFEF7F8F90346002B91
:102B100050D04FF00002304BD7E90001FEF702FA27
:102B20000346002B17D04FF000022B4BD7E90001D2
:102B3000FDF7BCFD03460C4644EC173BB0EE470ADC
:102B4000F0EE670A05F008FBB0EE407AF0EE607A2E
:102B500087ED027B32E04FF00002204BD7E9000105
:102B6000FEF7EAF90346002B0CD04FF000024FF0BD
:102B70000003D7E90001FDF74FFF03460C46C7E904
:102B800002341BE04FF00002134BD7E90001FDF7C0
:102B90008BFD03460C4644EC173BB0EE470AF0EEC3
:102BA000670A05F045FAB0EE407AF0EE607A87EDFC
:102BB000027B03E0D7E90034C7E90234D7E90234E5
:102BC00044EC173BB0EE470AF0EE670A1437BD46F7
:102BD00090BD00BF000030430000E03F0000E0BFB8
:102BE00080B582B000AF094BD3F860317B60074BF2
:102BF0000622C3F8602100F057FB044A7B68C2F844
:102C0000603100BF0837BD4680BD00BF900E002078
:102C100080B582B000AF094BD3F860317B60074BC1
:102C20000822C3F8602100F03FFB044A7B68C2F829
:102C3000603100BF0837BD4680BD00BF900E002048
:102C400098B500AF2F4B00229A742E4B00221A73B6
:102C50002C4B00225A732C4BD3F86031072B23D115
:102C6000284B01229A73274B00229A72254B00228F
:102C7000DA72254BD3E956014FF00002234BFEF7E1
:102C800033F90346002B06D01E4B0122DA731D4B8D
:102C900000221A7405E01B4B0022DA73194B012243
:102CA0001A74FFF7B5FF2BE0194B5B6B1846FDF765
:102CB00039FE4FF00002174BFDF7D8FF03460C46D4
:102CC00044EC173BB0EE470AF0EE670AFFF70EFF41
:102CD00054EC103B18462146FEF74EF9034664219A
:102CE0001846FFF7D2FE0246064B5A60054B0122FA
:102CF0005A74054BD3F86431632B01D9FFF770FF89
:102D000000BF98BD780E0020900E00200000F03F1C
:102D1000000000200000144080B582B000AF094BD5
:102D2000D3F860317B60074B0022C3F8602100F0CC
:102D3000BBFA044A7B68C2F8603100BF0837BD4661
:102D400080BD00BF900E002080B582B000AF094B5F
:102D5000D3F860317B60074B0922C3F8602100F093
:102D6000A3FA044A7B68C2F8603100BF0837BD4649
:102D700080BD00BF900E002090B484B000AF034629
:102D80000A46FB711346BB71FB79002B02D0022B64
:102D900006D00BE04FF00003174CC7E902341FE0E8
:102DA0004FF00003144CC7E9023419E0BB79002B43
:102DB00002D0022B06D00BE04FF000030E4CC7E907
:102DC00002340CE04FF000030B4CC7E9023406E07C
:102DD0004FF000034FF00004C7E9023400BF00BF0A
:102DE000D7E9023444EC173BB0EE470AF0EE670A2D
:102DF0001037BD4690BC70470000F03F80B582B0F0
:102E000000AF094BD3F860317B60074B0222C3F857
:102E1000602100F049FA044A7B68C2F8603100BFC3
:102E20000837BD4680BD00BF900E002090B583B02E
:102E300000AF0023FB700023BB7000237B700023D6
:102E40003B70B04BD3F86031092B1AD1AD4B002247
:102E500083F86B21AB4B002283F86C21A94B002235
:102E600083F86A21A74B022283F86921A54B02222D
:102E700083F86D21A34B0022C3F86421FFF7E0FE25
:102E800007E20023FB700023BB7000237B7000234C
:102E90003B709C4B93F86A31022B00F0DA80032BD5
:102EA00000F01481012B40F0C881964BD3F86031BB
:102EB000032B13D1934B002283F86B21914B0322F8
:102EC00083F86A218F4B012283F86C218D4A4FF0E1
:102ED00000034FF08044C2E95634ADE1894BD3F88A
:102EE0006031002B0BD1874B002283F86B21854B7F
:102EF000022283F86A21844B00229A749CE1814B60
:102F000093F86B31013B032B00F2968101A252F83A
:102F100023F000BF252F0000DF2F0000013000004C
:102F200043300000794B93F82830022B04D1754BC5
:102F3000042283F86B2186E0744B93F82830032B2E
:102F400028D1704B032283F86B216E4B0022C3F80B
:102F500064216E4B1B6B64337B606C4B1B6B7A681C
:102F60009A4202D24FF0FF337B60674B1A687B684E
:102F7000D31A7B60644B1B687A689A4201D900239C
:102F80007B60604BD3F864317A689A425BD8FFF774
:102F9000DBFE58E05D4B93F82830012B18D1594BDC
:102FA000022283F86B21574B0022C3F86421564B51
:102FB0001B7A002B09D0FFF7AFFE524B93F86B3111
:102FC000022B40D10123BB703DE00123BB703AE0EE
:102FD0004C4A4FF000034E4CC2E9563433E04A4BA2
:102FE0001B7A002B09D0FFF797FE464B93F86B3105
:102FF000022B2AD101237B7027E001237B7024E080
:10300000424B1B6B64337B60404B1B6B7A689A426C
:1030100002D24FF0FF337B603B4B1A687B68D31AB8
:103020007B60394B1B687A689A4201D900237B6028
:10303000344BD3F864317A689A4208D8FFF784FE9B
:1030400005E000BFF8E000BFF6E000BFF4E000BF1D
:10305000F2E02C4BD3F86031042B0FD1294B032223
:1030600083F86A21274B012283F86C21254A4FF00F
:1030700000034FF08044C2E95634DEE0234B93F85E
:103080002A20224B93F82B3019461046FFF774FE86
:1030900051EC100B4FF000024FF00003FDF724FF3E
:1030A0000346002B0ED1174B012283F86A21154BE2
:1030B000012283F86B21134A4FF00003144CC2E93C
:1030C0005634BAE0104B00229A74B6E00D4BD3F898
:1030D0006031022B0BD10B4B002283F86C21094B82
:1030E000022283F86A21084B00229A74A5E0054B5E
:1030F00093F86C31022B64D0032B73D0012B09D0D1
:103100009BE000BF900E0020780E00200000002001
:103110000000F03F614B93F82830012B18D1604B31
:10312000022283F86C215E4B0022C3F864215D4BC0
:103130005B7A002B09D0FFF761FE594B93F86C3195
:10314000022B73D10123FB7070E00123FB706DE053
:10315000524B93F82830032B2BD1514B032283F889
:103160006C214F4B0022C3F864214E4B0122DA74CC
:103170004A4B1B6B64337B60484B1B6B7A689A42EB
:1031800002D24FF0FF337B60464B1A687B68D31A3C
:103190007B60444B1B687A689A4201D900237B60AC
:1031A0003F4BD3F864317A689A423FD8FFF7CCFDA1
:1031B0003CE03B4A4FF000034FF08044C2E95634F4
:1031C00034E0384B5B7A002B09D0FFF717FE344B05
:1031D00093F86C31022B2BD101233B7028E00123A3
:1031E0003B7025E02F4B0122DA742C4B1B6B6433B0
:1031F0007B602A4B1B6B7A689A4202D24FF0FF33F6
:103200007B60284B1A687B68D31A7B60254B1B6850
:103210007A689A4201D900237B60214BD3F864314C
:103220007A689A4206D8FFF78FFD03E000BF04E0FA
:1032300000BF02E000BF00E000BF3B78002B07D0DA
:10324000174BD3F86431B3F57A7F01D3FFF77CFDD8
:103250007B78002B07D0124BD3F86431B3F57A7F1B
:1032600001D3FFF771FDBB78002B07D00C4BD3F8CF
:103270006431B3F57A7F01D3FFF766FDFB78002B4D
:1032800007D0074BD3F86431B3F57A7F01D3FFF74A
:103290005BFD00BF0C37BD4690BD00BF00000020A5
:1032A000900E0020780E002098B500AFB54B93F833
:1032B0006831002B23D1B34B012283F86821B14B35
:1032C000012283F86921B04B00229A72AE4B002292
:1032D0005A60AD4B0022DA72AB4B00221A73AA4B34
:1032E00000225A73A84B00229A73A74B0022DA736C
:1032F000A54B00221A74A44B00225A7440E1A14B42
:1033000093F86931022B11D0032B00F03681012B89
:1033100000D035E19B4B032283F86921994B0222AF
:1033200083F86A21984B00229A7429E1954BD3F8CF
:103330006031052B11D0082B27D1924B002283F846
:103340006D21904B032283F869218E4B022283F872
:103350006A218D4B00229A740EE18A4B002283F879
:103360006D21884B032283F86921864B032283F861
:103370006A21844B012283F86C21824A4FF00003BA
:103380004FF08044C2E95634F6E07E4B93F86D313D
:10339000012B02D0022B48D0EDE07A4BD3F86031FC
:1033A000072B0AD1774B022283F86D21754B00223F
:1033B000C3F86421FFF744FCDAE0734B01229A74EE
:1033C000714B00225A74704B01229A736D4BD3E9F2
:1033D00056014FF000026D4BFDF786FD0346002BB2
:1033E00006D0694B01221A73674B00225A7305E01D
:1033F000654B00221A73644B01225A73624B002200
:10340000DA73614B00229A725F4B0022DA725E4BD4
:1034100000221A745B4BD3F864215D4B1B6B9A42FC
:10342000C0F0A680FFF74AFBA2E0564BD3F860310C
:10343000062B3ED1534B012283F86D21514B0022C4
:10344000C3F86421504B01229A744F4B00225A74E6
:103450004D4B01229A734B4BD3E956014FF00002BA
:103460004A4BFDF741FD0346002B06D0464B012297
:103470001A73454B00225A7305E0434B00221A731E
:10348000414B01225A73404B0022DA733E4B00221B
:103490009A723D4B0022DA723B4B00221A74394B70
:1034A000D3F864213A4B1B6B9A4263D3FFF706FBB8
:1034B00060E0354B00229A74334B00221A73324B72
:1034C00000225A732F4BD3F86031072B23D12E4B98
:1034D00001229A732C4B00229A722B4B0022DA7233
:1034E000284BD3E956014FF00002284BFDF7FCFCB6
:1034F0000346002B06D0244B0122DA73224B002214
:103500001A7405E0204B0022DA731F4B01221A7453
:10351000FFF77EFB2EE01E4B5B6B1846FDF702FAB1
:103520004FF000021B4BFDF7A1FB03460C4644EC99
:10353000173BB0EE470AF0EE670AFFF7D7FA54ECF4
:10354000103B18462146FDF717FD03466421184637
:10355000FFF79BFA02460C4B5A600B4B01225A7440
:10356000084BD3F86431632B04D9FFF739FB01E032
:1035700000BF00E000BF00BF02E0FFF757FC00BF44
:1035800000BF98BD900E0020780E00200000F03F94
:10359000000000200000144080B582B000AF7860C9
:1035A0007B685B68012B08D17B681B7A002B04D0F9
:1035B0007B681B691846FFF7F6F900BF0837BD4660
:1035C00080BD80B582B000AF78607868FFF7E4FF17
:1035D00000BF0837BD4680BD80B582B000AF7860BF
:1035E0007B681B78002B05D17B6801221A707868F4
:1035F000FFF7E7FF00BF0837BD4680BD80B582B04A
:1036000000AF78607B685B68012B08D17B681B7A10
:10361000002B04D07B681B691846FFF7C4F900BF74
:103620000837BD4680BD80B582B000AF786078684D
:10363000FFF7E4FF00BF0837BD4680BD80B582B00C
:1036400000AF78607B681B78002B05D17B68012276
:103650001A707868FFF7E7FF00BF0837BD4680BDE6
:1036600080B582B000AF78607B685B68012B0DD1BC
:103670007B681B7A002B09D07B681B691846FFF713
:103680008BF87B681B691846FFF79CF800BF08376A
:10369000BD4680BD80B582B000AF78607868FFF726
:1036A000DFFF00BF0837BD4680BD80B582B000AFE8
:1036B00078607B681B78002B05D17B6801221A702B
:1036C0007868FFF7E7FF00BF0837BD4680BD000000
:1036D000B0B582B000AFA84BD3E90601A74BD3E940
:1036E0000223FDF701FC0346002B05D1A34BD3E9D0
:1036F0000223A149C1E906239F4B1B691846FFF726
:10370000DBF803461A469E4B1A729B4BD3E90E0117
:103710009A4BD3E90023FDF7E7FB0346002B05D1C5
:10372000964BD3E900239449C1E90E23924B1B6BBE
:103730001846FFF7C1F803461A46914B5A728F4B51
:103740009B6B1846FDF7EEF802460B464FF0000063
:103750008C49FDF78BFA02460B4610461946874BFB
:10376000D3E90423FDF758F902460B4643EC172B27
:10377000B0EE470AF0EE670A04F0EEFCB0EE407AD5
:10378000F0EE607A87ED007B97ED000B01F002F917
:103790000346002B06D197ED000B01F0D3F803464A
:1037A000002B06D04FF000024FF00003C7E90023C2
:1037B0000BE09FED6F1B97ED000B04F055FDB0EE95
:1037C000407AF0EE607A87ED007B4FF000024FF018
:1037D0000003D7E90001FDF791FB0346002B0BD056
:1037E0003C687B6883F0004520462946FDF7C4FB12
:1037F00003465B421A4604E0D7E90001FDF7BCFB33
:1038000002465F4B1A605C4BD3F86431B3F1FF3F63
:1038100006D0594BD3F864310133574AC2F86431AA
:10382000554B4FF0FF32C3F86021FFF73DFD524B7F
:10383000D3F88C20524B9B7A19461046FFF774F848
:103840004D4B1C6D4E4B5B681846FDF76BF80246FE
:103850000B4643EC102B2046FEF760FF464BD3F897
:10386000A020474BDB7A19461046FFF75DF8424B24
:10387000D3F8B420424B1B7B19461046FFF754F88F
:103880003D4BD3F8C8203E4B5B7B19461046FFF7F3
:103890004BF8394BD3F8DC20394B9B7B194610464B
:1038A000FFF742F8344BD3F8F020354BDB7B194659
:1038B0001046FFF739F8304BD3F80421304B1B7C0E
:1038C00019461046FFF730F82B4BD3F818212C4B34
:1038D0005B7C19461046FFF727F8274BD3F82C21BD
:1038E000274B9B7C19461046FFF71EF8224BD3F856
:1038F0004021234BDB7C19461046FFF715F81E4B81
:103900005C6E1E4BDB6C1846FDF70CF802460B464E
:1039100043EC102B2046FEF701FF174B9C6F174B13
:103920001B6D1846FCF7FEFF02460B4643EC102BBE
:103930002046FEF7F3FE104BD3F854410F4BD3E96A
:10394000080101231D464FF000024FF00003FDF770
:10395000CBFA0346002B01D000231D46EBB21946DB
:103960002046FEF7E1FF00BF0837BD46B0BD00BFEF
:10397000000000000000F041900E00200000002038
:10398000780E00200000F03F90B585B000AF082011
:1039900000F094FFBA4B4FF0FF32C3F86021B84BF0
:1039A00001221A70B64B00225A60B54A4FF000034C
:1039B000B44CC2E90634B24B00221A70B24BD3E9C0
:1039C0000234AF4AC2E90634AD4BFB60AC4B002277
:1039D0001A72AB4B01225A6000210020FEF7FCFE58
:1039E0000246FB681A61A64B01221A72A44B0122FF
:1039F00083F82020A24B00225A62A14A4FF0000314
:103A0000A04CC2E90E349E4B002283F820209E4B2E
:103A1000D3E900349A4AC2E90E349C4BFB60984BC0
:103A2000002283F82820964B01225A6200210120AF
:103A3000FEF7D2FE0246FB681A61914B012283F821
:103A400028208F4B012283F87C208D4B0022C3F865
:103A500080208B4B002283F87C208D4BBB60884BF1
:103A6000002283F88420864B0122C3F880200121A4
:103A70000420FEF7B1FE0246BB681A61804B0122AA
:103A800083F884207E4B012283F840207C4B002267
:103A90005A647B4B002283F840207E4B7B60784B3E
:103AA000002283F84820764B01225A649FED701B58
:103AB0009FED710B0520FEF775FD02467B681A61CC
:103AC0006F4B1B6D1846FEF71FFE6D4B012283F8EE
:103AD00048206B4B012283F89020694B0022C3F8E9
:103AE0009420674B002283F890206B4BBB60644BA3
:103AF000002283F89820624B0122C3F89420012110
:103B00000720FEF769FE0246BB681A615C4B012282
:103B100083F898205A4B012283F8A420584B0022A6
:103B2000C3F8A820564B002283F8A4205B4BBB604F
:103B3000534B002283F8AC20514B0122C3F8A8203C
:103B400001210820FEF748FE0246BB681A614C4B73
:103B5000012283F8AC204A4B012283F8B820484B5D
:103B60000022C3F8BC20464B002283F8B8204C4BFF
:103B7000BB60434B002283F8C020414B0122C3F8B5
:103B8000BC2001210920FEF727FE0246BB681A610E
:103B90003B4B012283F8C020394B012283F8CC2013
:103BA000374B0022C3F8D020354B002283F8CC20BD
:103BB0003C4BBB60324B002283F8D420304B0122B7
:103BC000C3F8D02001210A20FEF706FE0246BB689A
:103BD0001A612B4B012283F8D420294B012283F850
:103BE000E020274B0022C3F8E420254B002283F875
:103BF000E0202D4BBB60224B002283F8E820204BB5
:103C00000122C3F8E42001210B20FEF7E5FD024666
:103C1000BB681A611A4B012283F8E820184B012275
:103C200083F8F420164B0022C3F8F820144B00222E
:103C300083F8F4201D4BBB60114B002283F8FC205D
:103C40000F4B0122C3F8F82001210C20FEF7C4FD20
:103C50000246BB681A610A4B012283F8FC20084B1C
:103C6000012283F80821064B0022C3F80C211FE033
:103C700000000000000000000000000000409F4025
:103C8000900E00200000F0BF00000020B00E0020C9
:103C90000C0F0020D00E0020200F0020340F002039
:103CA000480F00205C0F0020700F0020840F0020C0
:103CB0006B4B002283F808216A4BBB60684B0022E3
:103CC00083F81021664B0122C3F80C210121022048
:103CD000FEF782FD0246BB681A61614B012283F840
:103CE00010215F4B012283F81C215D4B0022C3F899
:103CF00020215B4B002283F81C215B4BBB60584B9F
:103D0000002283F82421564B0122C3F820210121EF
:103D10002A20FEF761FD0246BB681A61504B012262
:103D200083F824214E4B012283F830214C4B002292
:103D3000C3F834214A4B002283F830214B4BBB603F
:103D4000474B002283F83821454B0122C3F8342128
:103D500001212C20FEF740FD0246BB681A61404B52
:103D6000012283F838213E4B012283F854203C4B3A
:103D700000229A653A4B002283F854203C4B7B602A
:103D8000374B002283F85C20354B01229A659FED6A
:103D9000301B9FED310B0620FEF704FC02467B68CA
:103DA0001A612F4B5B6E1846FEF7AEFC2C4B0122BE
:103DB00083F85C202A4B012283F86820284B0022DC
:103DC000DA66274B002283F868202A4B7B60244B5D
:103DD000002283F87020224B0122DA669FED1C1B23
:103DE0009FED1D0B0320FEF7DDFB02467B681A6189
:103DF0001B4B9B6F1846FEF787FC194B012283F87B
:103E00007020174B012283F84421154B0022C3F880
:103E10004821134B002283F84421174BBB60104B01
:103E2000002283F84C210E4B0122C3F848210121C6
:103E30000D20FEF7D1FC0246BB681A61084B012237
:103E400083F84C2100BF1437BD4690BDAFF300800E
:103E500000000000000000000000000000409F4043
:103E6000900E0020980F0020AC0F0020C00F002003
:103E7000E40E0020F80E0020D40F002080B500AF23
:103E80001848FFF7A9FB1848FFF7A6FB1748FFF7EC
:103E9000D5FB1748FFF709FC1648FFF7CFFB16487C
:103EA000FFF7CCFB1548FFF7C9FB1548FFF7C6FB2A
:103EB0001448FFF7C3FB1448FFF7C0FB1348FFF794
:103EC000BDFB1348FFF7BAFB1248FFF7B7FB1248D8
:103ED000FFF7EBFB1148FFF7E8FB1148FFF7AEFBDC
:103EE00000BF80BD900E0020B00E00200C0F0020FF
:103EF000D00E0020200F0020340F0020480F00209B
:103F00005C0F0020700F0020840F0020980F00200D
:103F1000AC0F0020C00F0020E40E0020F80E00209F
:103F2000D40F002080B400AFFEE7000080B483B05F
:103F300000AF78607B68013B032B0BD801A252F8DD
:103F400023F000BF553F0000553F0000553F0000E3
:103F5000553F000000BFFEE770477047002000217A
:103F600004460D46084804F033FB04F07BFB204672
:103F7000294601F0D1F80548002101F001FA01F0CD
:103F80005BF904F031FB000009860000BCB00000C2
:103F900080B584B000AFF860B9601346FB71BB68B0
:103FA0001F2B05D90D4B0E4AFF210E4804F0F2FAE3
:103FB000FB68BA6853F8223023F0807323F4E0637F
:103FC000FA79120202F4E06243EA0201FB68BA687D
:103FD00043F8221000BF1037BD4680BD14B000006A
:103FE000E4B0000020B0000080B483B000AF78607F
:103FF0000B46FB707B68FA781A7000BF0C37BD4621
:104000005DF8047B7047000080B584B000AF3B468C
:1040100000221A605A609A60DA60064B3B60022305
:104020007B723B461946002002F0CAFD00BF1037E4
:10403000BD4680BD80F0FA0280B584B000AF074A6B
:104040003B1D07CA83E807003B1D1946002002F00C
:1040500005FE00BF1037BD4680BD00BF58B0000050
:1040600080B500AF2A210848FFF7BEFF00221221C9
:104070000648FFF78DFFFFF7C7FFFFF7DDFF044896
:1040800002F040FE00BF80BD00E007400090044009
:10409000CCB0000080B582B000AF7860034800F07B
:1040A000A0FA00BF0837BD4680BD00BF003F00201A
:1040B00098B500AF094B0A4A1A600A4B0A4A1C1D00
:1040C00013460FCB84E80F0000F0E1FA0246054BDF
:1040D0001A60064B034A1A6000BF98BD003F0020DB
:1040E000083F0020E03E0020BCB00000F83E002069
:1040F00080B586B002AF87ED010A38600223FB600D
:10410000FFF7D6FF164800F05CFA0346BB6015487F
:1041100000F057FA0346BB60002300930023FA68BF
:104120001149124800F08AFA0346BB600023104A86
:104130000121104800F0C3FA0346BB60D7ED017AB5
:104140009FED0D7A67EE877AFCEEE77A17EE901A0C
:10415000084800F0DBFA00BF1037BD4680BD00BF45
:10416000003F0020F83E00207D410000083F002075
:1041700095400000BC3E002000007A4480B586B027
:1041800000AF7861184B1B681B68002B0CBF012324
:104190000023DBB21A46154B1A7011E03B46144956
:1041A000184600F031FAFFF793FA0F4B1B681B68B3
:1041B000002B14BF01230023DBB21A460D4B1A70EB
:1041C0000A4B1B78DBB2002BE8D1084B00221A7097
:1041D000786900F011F8002000F060FA002318461A
:1041E0001837BD4680BD00BF78B0000058000020E1
:1041F000003F0020F43E002080B582B000AF786020
:10420000074B01221A60074B00221A70FFF736FE97
:10421000054800F0E6F9002318460837BD4680BD82
:104220001C3F002058000020F83E002080B586B0DA
:1042300000AF7861396100F081FD00F0BCF80A4BF5
:104240001B6800221A60FFF79FFB00209FED070A02
:10425000FFF74EFF3B460649184600F0D5F900230C
:1042600018461837BD4680BD78B000006F12833AFB
:10427000F83E002080B500AF002002F0FFFD00BF37
:1042800080BD80B500AF012002F0F8FD00BF80BD09
:1042900080B500AF022002F0F1FD00BF80BD80B507
:1042A00000AF032002F0EAFD00BF80BD80B500AF83
:1042B000042002F0E3FD00BF80BD80B500AF052003
:1042C00002F0DCFD00BF80BD80B500AF062002F02B
:1042D000D5FD00BF80BD80B500AF072002F0CEFD48
:1042E00000BF80BD80B500AF082002F0C7FD00BF51
:1042F00080BD80B500AF092002F0C0FD00BF80BDC9
:1043000080B500AF0A2002F0B9FD00BF80BD80B5C6
:1043100000AF0B2002F0B2FD00BF80BD80B500AF42
:104320000C2002F0ABFD00BF80BD80B500AF0D20BA
:1043300002F0A4FD00BF80BD80B500AF0E2002F0EA
:104340009DFD00BF80BD80B500AF0F2002F096FD3F
:1043500000BF80BD80B500AF002002F0A7FD00BF08
:1043600080BD80B500AF002003F030FC00BF80BDF1
:1043700080B500AF012003F029FC00BF80BD80B5EF
:1043800000AF022003F022FC00BF80BD80B500AF6B
:10439000032003F01BFC00BF80BD80B500AF0420EC
:1043A00003F014FC00BF80BD80B500AF052003F012
:1043B0000DFC00BF80BD80B582B000AF02F03EFBB7
:1043C0000023FB7106E0FB79184602F015FDFB792E
:1043D0000133FB71FB79042BF5D9FFF741FE00BFD8
:1043E0000837BD4680BD80B400AFFEE780B400AFA3
:1043F000FEE780B400AFFEE780B400AFFEE780B414
:1044000000AFFEE780B400AFFEE780B400AFFEE788
:1044100080B400AFFEE780B400AFFEE780B400AF29
:10442000FEE780B400AFFEE780B400AFFEE780B4E3
:1044300000AFFEE780B400AFFEE780B400AFFEE758
:1044400080B400AFFEE780B400AFFEE780B400AFF9
:10445000FEE780B400AFFEE780B400AFFEE780B4B3
:1044600000AFFEE780B400AFFEE780B400AFFEE728
:1044700080B400AFFEE780B400AFFEE780B400AFC9
:10448000FEE780B400AFFEE780B400AFFEE780B483
:1044900000AFFEE780B400AFFEE780B400AFFEE7F8
:1044A00080B400AFFEE780B400AFFEE780B400AF99
:1044B000FEE780B400AFFEE780B400AFFEE780B453
:1044C00000AFFEE780B400AFFEE780B400AFFEE7C8
:1044D00080B400AFFEE780B400AFFEE780B400AF69
:1044E000FEE780B400AFFEE780B400AFFEE780B423
:1044F00000AFFEE780B400AFFEE780B400AFFEE798
:1045000080B400AFFEE780B400AFFEE780B400AF38
:10451000FEE780B400AFFEE780B400AFFEE780B4F2
:1045200000AFFEE780B400AFFEE780B400AFFEE767
:1045300080B400AFFEE780B400AFFEE780B400AF08
:10454000FEE780B400AFFEE780B400AFFEE784B0C2
:1045500080B582B000AF07F1100C8CE80F003B690A
:10456000796A184601F05EF903467B607B6818465D
:104570000837BD46BDE8804004B0704784B080B5C0
:1045800000AF07F1080C8CE80F00BB68F96918460A
:1045900001F068F903461846BD46BDE8804004B006
:1045A000704780B582B000AF786039607B684FF0AB
:1045B000FF323968184601F063F978680837BD465C
:1045C00080BD80B485B000AF78607B6801225A60FE
:1045D0000123FB60FB6818461437BD465DF8047B79
:1045E000704780B584B002AF78607B681B687A68DA
:1045F000526801921A6900920FCBFFF7A8FF034699
:1046000018460837BD4680BD80B584B002AF7860DB
:1046100039603B681B683A68526801921A690092D7
:104620000FCBFFF7ABFF3B685A687B681146184613
:10463000FFF7B7FF78680837BD4680BD80B586B004
:1046400000AFF860B9607A603B60FB68BA685A6096
:10465000FB687A689A60FB680122DA603A68FB6856
:104660001A61FB680433396A184600F089FE024675
:10467000FB681A60FB681B68002B14BF0123002332
:10468000DBB27B617B6918461837BD4680BD80B5BB
:1046900000AF00F0C3FE0346184680BD80B584B06D
:1046A00000AF786000F0BAFE0346FB60F86800F0E7
:1046B000C1FE0346BB6000BF1037BD4680BD80B55C
:1046C00086B000AFF8607A603B600B46FB72FB6817
:1046D00003F10C02FB689A60FB687A685A60FB6819
:1046E0000433F97A3A68184600F098FF0246FB68EE
:1046F0001A60FB681B68002B14BF01230023DBB288
:104700007B617B6918461837BD4680BD80B584B093
:1047100000AF786039607B681B683968184600F024
:10472000AFFF0346FB60FB6818461037BD4680BDEF
:1047300090B587B000AF4023FB604FF000034FF00F
:104740000004C7E90434FB68202B0BD100F020F8EB
:1047500010EE103A1846FCF707F903460C46C7E975
:10476000043407E0094B7B6000233B60D7E9003449
:10477000C7E90434D7E9043444EC173BB0EE470AE8
:10478000F0EE670A1C37BD4690BD00BF0000F07F09
:1047900080B483B000AF4FF0FF437B607B6807EECF
:1047A000903AB0EE670A0C37BD465DF8047B70475F
:1047B00090B587B000AF4023FB604FF000034FF08F
:1047C0000004C7E90434FB68202B0BD100F020F86B
:1047D00010EE103A1846FCF7C7F803460C46C7E936
:1047E000043407E0094B7B6000233B60D7E90034C9
:1047F000C7E90434D7E9043444EC173BB0EE470A68
:10480000F0EE670A1C37BD4690BD00BF0000F0FF08
:1048100080B483B000AF064B7B607B6807EE903AB4
:10482000B0EE670A0C37BD465DF8047B704700BFE9
:10483000000080FF90B587B000AF4023FB604FF0D1
:1048400000034FF00004C7E90434FB68202B0BD1B0
:1048500000F020F810EE103A1846FCF785F80346F1
:104860000C46C7E9043407E0094B7B6000233B603A
:10487000D7E90034C7E90434D7E9043444EC173BE2
:10488000B0EE470AF0EE670A1C37BD4690BD00BF88
:104890000000F8FF80B483B000AF4FF000037B60EE
:1048A000054B7B607B6807EE903AB0EE670A0C37E9
:1048B000BD465DF8047B70470000C0FF80B582B044
:1048C00000AF7860FFF7B6FFB0EE407AF0EE607AA6
:1048D000164B83ED007BFFF7DDFFF0EE407A144BC3
:1048E000C3ED007AFFF724FFB0EE407AF0EE607A75
:1048F000104B83ED007BFFF74BFFF0EE407A0E4B41
:10490000C3ED007AFFF754FFB0EE407AF0EE607A24
:104910000A4B83ED007BFFF77BFFF0EE407A084BFC
:10492000C3ED007A00BF0837BD4680BD303F002090
:10493000403F0020203F0020383F0020283F00203B
:104940003C3F002090B583B000AF87ED000B0F4BCC
:10495000D3E900341A462346D7E90001FCF7C4FA2C
:104960000346002B0BD10A4BD3E900341A462346E9
:10497000D7E90001FCF7B8FA0346002B01D0012368
:1049800000E0002318460C37BD4690BD203F0020B4
:10499000283F002090B587B000AF87ED000B0023C3
:1049A000FB7540233B613B69202B0BD1D7E900010C
:1049B000FCF702FB034600EE103A00F021F8034634
:1049C000FB7515E0D7E90034C7E90234FA680B4BF0
:1049D00013400A4A934209D1FB68C3F31303002B27
:1049E00002D1BB68002B01D0012300E00023FB753E
:1049F000FB7D18461C37BD4690BD00BF0000F07F10
:104A000080B485B000AF87ED010A7B68FB60FB686E
:104A100003F0FF43B3F1FF4F06D1FB68C3F3160366
:104A2000002B01D0012300E00023DBB2184614372D
:104A3000BD465DF8047B704780B584B000AF7860F8
:104A4000114B1B68002B02D10F4B104A1A600E4B02
:104A50001B68FB600C4B1A687B6813440C4A93423A
:104A600007D903F0BBFD02460C2313604FF0FF3360
:104A700006E0054B1A687B681344034A1360FB6821
:104A800018461037BD4680BD443F00200000FF1F80
:104A90000000002080B489B000AF284BFB60284A9A
:104AA000284B9A4216D00023FB610AE0254AFB6995
:104AB00052F823202249FB6941F82320FB69013386
:104AC000FB61FB689B08FA699A42EFD31E4B1C4AB4
:104AD0009A6002E01C4B1B4A9A601C4BBB611C4B4A
:104AE0007B611C4BBB60BA687B69D31AFB6107E032
:104AF0007A69531C7B61BB69591CB96112781A70C1
:104B0000FB695A1EFA61002BF2D1134B3B61134B28
:104B10007B607A683B69D31AFB6104E03B695A1CED
:104B20003A6100221A70FB695A1EFA61002BF5D116
:104B300000BF2437BD465DF8047B704700000000CD
:104B4000000000000000000000ED00E00000002078
:104B50009CC10000F4CF0000580E0020BC40002093
:104B600080B400AF6B4BD3F888306A4A43F47003CB
:104B7000C2F88830684B4CF22052DA81664B4DF611
:104B80002812DA81644B4FF4E9721A80634B1B7868
:104B9000DBB203F00103002B0FD0614B9B78DBB23B
:104BA00003F00803002B2ED05D4B9B78DBB25C4AF0
:104BB00043F00803DBB2937025E05A4B03F58153B1
:104BC0001C331B68574943F0005201F581531C33D5
:104BD0001A60554B1B6903F48073002B13D1524BA1
:104BE0001B6923F47C53504A43F4407313614E4BCA
:104BF0001B694D4A43F4807313614B4B1B694A4A4E
:104C000023F400731361494B2A221A70454B03F5B4
:104C1000825304334FF08A721A60424B1B6823F4AC
:104C20004023404A43F4002313603E4B03F5805376
:104C300004331B6823F440333A4943F4803201F5CE
:104C4000805304331A60374B03F5815318331B68C4
:104C5000344943F4007201F5815318331A60344B20
:104C60009B6C334A23F0807323F4E0639364314BED
:104C700000221A722F4B5B78DBB223F06003DBB2A9
:104C80002C4A43F02003DBB253702B4B80221A7066
:104C9000284B00221A73274BBA221A7000BF254BEB
:104CA0009B79DBB203F01003002BF8D1214BDB78AA
:104CB000DBB2204A03F01F03DBB2D3701D4B13227B
:104CC0001A711C4B18225A711A4B5B79DBB2194AC4
:104CD00043F04003DBB2537100BF164B9B79DBB24C
:104CE00003F04003002BF8D0124B1B78DBB2114AC3
:104CF00003F03F03DBB2137000BF0E4B9B79DBB2B6
:104D000003F00C030C2BF8D100BFBD465DF8047B0B
:104D1000704700BF00ED00E00020054000F00740B4
:104D200000D007400070044000D0034000E007407E
:104D300000900440004006400050064080B483B01C
:104D400000AF964B1B78DBB203F0C003002B40F0A2
:104D5000D280924B5B79DBB203F04003002B40F032
:104D6000AD808E4B1B78DBB203F00403002B4ED1D9
:104D70008A4B1B7BDBB203F00303002B02D0012B19
:104D800003D006E0864B7B6006E04FF400437B6077
:104D900002E0844B7B6000BF804B5B78DBB203F0AA
:104DA0003003002B23D07D4B1B7BDBB203F00303CE
:104DB000012B1CD0794B1B78DBB203F03803302B6E
:104DC00005D0382B07D14FF4C0637B800EE04FF441
:104DD000A0637B800AE0714B1B78DBB2DB0803F039
:104DE0000703202202FA03F37B8000BF09E06B4B2C
:104DF0001B78DBB2DB0803F00703012202FA03F39E
:104E00007B807B887A68B2FBF3F37B6002E04FF42F
:104E100000437B60614BDB78DBB203F0E003602B87
:104E200029D0602B06D8202B17D0402B1CD0002B6C
:104E30000CD09DE0A02B2CD0A02B02D8802B21D011
:104E400096E0C02B2CD0E02B31D091E07A6813464D
:104E50009B001344DB017B608AE07A6813469B0069
:104E600013441B027B6083E07A6813461B019B1A84
:104E7000DB017B607CE07A6813469B0013445B0295
:104E80007B6075E07B684FF4377202FB03F37B6055
:104E90006EE07B684FF4B76202FB03F37B6067E070
:104EA0007B6840F6950202FB03F37B6060E07B6861
:104EB00040F6713202FB03F37B6059E0374B1B79FC
:104EC000DBB29BB203F01F039BB201337B807B8874
:104ED000334AB2FBF3F37B60304B5B79DBB29BB2BE
:104EE00003F01F039BB218337B807A887B6802FB38
:104EF00003F37B603CE0294B1B78DBB203F0C0037B
:104F0000402B1AD1254B5B78DBB203F00103002B59
:104F100003D14FF400437B602AE0204B1B7ADBB2C5
:104F20005B0803F00703012202FA03F37B807B880E
:104F30001D4AB2FBF3F37B601AE0184B1B78DBB21F
:104F400003F0C003802B22D1144B1B7BDBB203F098
:104F50000303002B02D0012B03D006E0104B7B6033
:104F600006E04FF400437B6002E00E4B7B6000BF25
:104F70000E4B03F5825304331B681B0F03F00F0322
:104F800001337A68B2FBF3F3094A136000E000BF13
:104F90000C37BD465DF8047B704700BF00400640FB
:104FA00080F0FA02006CDC0200093D000070044051
:104FB0009804002000B5DFF80CC000DFDFF808C05F
:104FC00000DFFEE7255300003D5300002DE9F041CE
:104FD000334C237853B1334B1B68FF229A70324A0B
:104FE0000020012310702370BDE8F0812F4B304862
:104FF000196800F055FD10B18520BDE8F08101F081
:1050000005FC284B21781B68FF229A700029E6D105
:10501000284A1368002B40D0556845B12A78002AE9
:1050200039D1191D890089B2284600F0F9FD224BBB
:10503000224A1E68156066B35D68EA1C062A28D8F5
:10504000DF68B7B139461A4800F038FD804600B332
:10505000291D41EA072130460023424601F06CFA3F
:10506000054670B94146124800F050FD144B1D60D2
:10507000B5E7291D30463B463A4601F05DFA054644
:1050800038B1104B104A013D53F82550AB6A5A63B2
:10509000ECE70025EAE70D46C9E71D46C7E700BF74
:1050A00014400020584000201540002098B0000017
:1050B000C0320020B0B00000A0B00000B43E00201C
:1050C000903E0020843E0020B54F000038B5104CC3
:1050D000207808B1002038BD0E4D2B6893F82410BD
:1050E00001F0AEF92B68DA78FF2A08D06A6809491E
:1050F00052B101F001FC01232370002038BD9A6AEF
:10510000203282F30988F1E781E80C00F1E700BF63
:1051100015400020584000202DE9F041EFF30584B0
:1051200014B18220BDE8F081EFF31484E40704D5C4
:10513000DFF800C100DFBDE8F081334C237853B1C4
:10514000324B1B68FF229A70314A002001231070F5
:105150002370BDE8F0812F4B2F48196800F0A0FCA8
:1051600010B18520BDE8F08101F050FB274B21787C
:105170001B68FF229A700029E6D1284A1368002B89
:1051800040D0556845B12A78002A39D1191D8900C7
:1051900089B2284600F044FD214B224A1E68156062
:1051A00066B35D68EA1C062A28D8DF68B7B13946BD
:1051B000194800F083FC804600B3291D41EA07210D
:1051C00030460023424601F0B7F9054670B9414622
:1051D000114800F09BFC144B1D60B5E7291D3046BB
:1051E0003B463A4601F0A8F9054638B10F4B104A44
:1051F000013D53F82550AB6A5A63ECE70025EAE716
:105200000D46C9E71D46C7E714400020584000205E
:105210001540002098B00000C0320020B0B000005F
:10522000A0B00000B43E0020903E0020843E00204C
:10523000B54F0000CD4F000010B588B0EFF30584E6
:1052400014B1822008B010BDEFF3148404F00304FD
:10525000022C1DD0032C14D0012C16D008AC84F3E2
:1052600009880F4C2478E40716D5022484F31488A7
:10527000BFF34F8FBFF36F8FDFF828C000DF08B098
:1052800010BD074C2478E407F6D5FF2008B010BD08
:10529000034C2478E407EFD4032484F31488E7E76D
:1052A00088B00000CD500000002833D0F8B5066863
:1052B00076B34768FB1C062B2AD8C26804460D4605
:1052C000BAB11146144800F0F9FB064600B3626813
:1052D000E1682068043242EA01212B46324601F09F
:1052E0002BF9044660B931460B4800F00FFC20460C
:1052F000F8BD0B463046391D01F01EF9044638B1A1
:10530000013C064B064A53F82400836A5A63F8BDF1
:105310000020F8BD00207047C0320020843E0020ED
:10532000B54F000008B501F083F818B10138024B01
:1053300053F8200008BD00BF843E002098B18307C9
:1053400011D103787BB9C18C10B571B9C0780C4606
:1053500001F07AF9FF280ED01CB12146074800F071
:10536000D5FB002010BD80207047C46AC07801F0D2
:105370006BF9FF28F0D1812010BD00BFC0320020A2
:10538000F8B5EFF305846CBBEFF31484E40702D4A3
:105390001D4C24781CB1DFF880C000DFF8BD08B3D5
:1053A0000668FEB14768FB1C062B1BD8C2680D4679
:1053B0000446CAB11146154800F080FB064688B184
:1053C0006268E1682068043242EA01212B463246D5
:1053D00001F0B2F8044678B931460C4800F096FB6B
:1053E0002046F8BD0020F8BD0B463046391D01F0BF
:1053F000A3F804460028F5D0601E054B054A53F873
:105400002000836A5A63F8BD15400020C032002096
:10541000843E0020B54F0000A952000010B5EFF304
:1054200005841CB9DFF808C000DF10BD002010BDE6
:105430002553000010B5EFF305840CB1822010BD98
:10544000DFF804C000DF10BD3D53000098B130B458
:1054500004689CB143689BB101290DD8094C2468AC
:1054600064B11C7944B9012558611C6059711A61F5
:105470001D71184630BC70470020FBE72046F9E755
:105480001846F7E7903E0020820703D110B119B902
:105490008620704780207047F8B52B4B1A68002390
:1054A00012F1FF3643F1FF3704464FF47A70E0FB08
:1054B000016730463946FBF7CFFD2379012B10D029
:1054C000022B0CD1214D2B684BB19C4237D0194691
:1054D00002E0944226D011460A68002AF9D18120C0
:1054E000F8BD1A4DE06002222B6822715BB1996809
:1054F000884204D20EE0916881420DD813461A68A2
:10550000401A002AF7D10022A0602260A3B11C60DB
:105510000020F8BD1A460023A06091682260081A96
:105520009060F3E722680A602268002ADED096685D
:10553000A16831449160D9E72C601846F8BD226813
:105540002A601346F1E700BF8CB00000184000202D
:10555000830704D130B1436901691868704700209E
:1055600001467047014670472DE9F04F294F3C68CE
:1055700083B054B3A668DFF8A080013EA660B946A8
:105580004FF0000A0EBBD8F8003025683D6023B10B
:1055900093F800B0BBF1010F02D00420FEF7C6FC67
:1055A0001846019300F09EFB019B0028F5D0184699
:1055B000214600F09BFB6379012B09D084F804B0ED
:1055C0001DB1AE682C46002EDDD003B0BDE8F08FD3
:1055D000D9F80000E26858B18168914204D90DE021
:1055E000996891420CD818460368521A002BF7D1DB
:1055F000C4F800A0A26050B10460E1E70346304661
:10560000A260996823608A1A9A600028F4D13C60ED
:10561000D6E700BF18400020B43E002030B5EFF3BD
:10562000058404BBEFF31484E40702D4114C2478FE
:105630001CB1DFF848C000DF30BD98B10368A3B1EA
:10564000436893B101290CD80B4D2D687DB11D79AC
:105650003DB9012459711C7158611D601A611846C9
:1056600030BD204630BD002030BD184630BD284634
:1056700030BD00BF15400020903E00204D5400007A
:1056800010B5EFF305840CB1822010BDDFF804C023
:1056900000DF10BD8954000008B50C4E3568EFF3EB
:1056A00005844FF0FF312846002CF8D1DFF820C0E8
:1056B00000DF1028F2D10846DFF818C000DF0446EA
:1056C0000028EBD00846A047E8E700BFB43E002022
:1056D000A95800005155000078B183070DD1037817
:1056E0005BB90B0C1B0443B910B50B46048BC17896
:1056F00098B200F015FD204610BD4FF000407047F5
:1057000078B183070DD103785BB90B0C1B0443B947
:1057100010B50B46048BC17898B200F02DFD2046E1
:1057200010BD4FF0004070472DE9F0414FEA10489E
:105730004FEA0848B8F1000F37D10D46044698B13A
:1057400080B2002937D1012200F0C4FC02284FD0DA
:10575000002D0CBF00234023002425461846414657
:105760002A462B46BDE8F081002938D04B1C4CD08E
:10577000294B994244D8294B1A684FF6FE714FF4D1
:105780007A73501E03FB0505B5FBF2F58D423AD93D
:1057900000224FF6FF7000F09DFC02282BD1204B19
:1057A0001A680823B2F81A80D6E7002186200A4634
:1057B0000B46BDE8F0814A1C2AD0174B99421CD8F1
:1057C000164B1E684FF47A72731E4FF6FE7102FB81
:1057D0000533B3FBF6F38B42B5D899B2B3E7424633
:1057E0004FF6FF7000F076FC0228D8D04346B3E7AE
:1057F000A0460823B0E74023AEE74FF6FE71A2E7CC
:105800004FF6FE71C4E7A9B2C2E74FF6FF71BFE7DA
:105810004FF6FF7197E700BF00093D008CB0000014
:105820005840002070B5EFF305851DB9DFF830C092
:1058300000DF70BD044678B183070DD103785BB9F2
:105840000B0C1B040E463BB92346248BD978B0B20F
:1058500000F09EFC204670BD4FF0004070BD00007F
:10586000D956000010B5EFF305841CB9DFF80CC061
:1058700000DF10BD4FF0004010BD000001570000D8
:1058800070B50446EFF3058545B908461146DFF8C3
:1058900014C000DF84E80700204670BD8223036047
:1058A000204670BD29570000F0B5044685B0002899
:1058B00036D00378012B05D0002180200A460B4604
:1058C00005B0F0BD03460C4681B90A4602A900F0B6
:1058D000B5F901282DD00024264627461024029D24
:1058E0002046294632463B4605B0F0BD4A1C28D02A
:1058F000154A91421AD8154A10684FF47A75411E1C
:105900004FF6FE7205FB0414B4FBF0F1914216D978
:10591000184602A900F092F90128DCD1402109E0E3
:10592000802021462246234605B0F0BD4FF6FE7288
:10593000EEE721460024264627460C46CFE78AB2EA
:10594000E6E74FF6FF72E3E700093D008CB0000088
:105950002DE9F0478046C08C244B80088A4640D011
:10596000D3F800900746D8F82C6006EB870463074D
:1059700048BF043C4FF08073A4F1400544F8043C58
:1059800044F808AC28463822002103F043F9D8F83F
:105990001C3044F8203C19F0805FC8F82850C8F843
:1059A00030A01AD0112F18D9A7F110004008431EBB
:1059B0000CD02A464FF0CC31013B42F8041C42F88F
:1059C000081DF9D1C000C0F1080005442B1F9E42FC
:1059D0003CBF4FF0CC3345F8043C054B3360BDE889
:1059E000F0871B68C3F38D079946BCE780B00000C1
:1059F000A52E5AE290F82520836A12B92033196047
:105A0000704760331960704710B490F82540836A7E
:105A10002CB9203383E806005DF8044B70476033EF
:105A200083E806005DF8044B704700BF084B1B6815
:105A3000DA0107D5074B1B68DB0703D5064B1B684C
:105A4000002B00DB7047054B01221A70704700BF26
:105A5000FCED00E0800E00E0000E00E01C400020A5
:105A600010B4094C2268084B002AFBD0026B1A6064
:105A70001A68054C002AFBD0C37843EA012189B299
:105A800021805DF8044B70477C0000E003490B68FF
:105A9000024A002BFBD0C0B2107070477C0000E0BF
:105AA000034648B1072907D9043900220844186081
:105AB0005A5010465A6070470120704718B3F9B128
:105AC0000B3110B4036821F0030102E018461B6893
:105AD0005BB144681A1A121B9142F7D84CB10219F3
:105AE0000351516002F10803026018465DF8044B4F
:105AF000704700F1080341605DF8044B1846704799
:105B00000B46184670470346FBE700BFD0B1C9B14A
:105B100010B4A1F10804A04216D0036823B90DE027
:105B20001A68184652B113469C42F9D160B151F837
:105B3000083C036000205DF8044B704701205DF8CD
:105B4000044B70470120704700206060F3E700BFFE
:105B5000002A30B41FDB033222F003020C24BAB156
:105B600013198B4214D8044401448D1AA3189D4282
:105B700004604160826015D3002100E0034698185C
:105B8000854263501144F9D20020186030BC704740
:105B9000012030BC704722F00042073222F0070299
:105BA0001024DCE72346EFE7EFF3108372B60268B8
:105BB00003F001030AB11168016003B962B610462F
:105BC000704700BF81420DD3436899420AD2EFF378
:105BD000108372B602680A60016013F0010003D1FD
:105BE00062B670470120704700207047426882B15A
:105BF00010B500F01DF9044600F034FA012161707F
:105C00002046FFF7F7FE21460448BDE8104000F0AB
:105C1000E7B8428801324280704700BF244000202C
:105C20001039002389080122C181027043708370FA
:105C30004360038143818381704700BF70B58589CC
:105C40000446CDB14389C289181D01339BB254F873
:105C5000200008609A42638104BF00236381636867
:105C600013B16378022B1FD0EFF3108372B6013D9E
:105C7000A58162B6002070BD16465AB143685BB17B
:105C8000174B196800F0ACF83046082100F0A8FB6B
:105C9000012070BD012070BD114A126842600121CF
:105CA000536090604170EFE7204600F0C1F800219A
:105CB0000546FFF79FFE2389E289E869191D013334
:105CC0009BB29A4244F82100238104BF0023238120
:105CD000284600F0C7F9284600F044FB002070BDBC
:105CE00058400020C2898089101A704708B500F01A
:105CF000CFF9BDE8084000F085BA00BF426870B532
:105D00000346002A4FD04678022E0D46044625D081
:105D1000032E02D0012E10D070BD0846FFF744FFBD
:105D200005460028F8D0204600F082F829460446AF
