:1000000000000020F5040000417B0000477B000059
:100010004D7B0000537B0000597B00000000000076
:100020000000000000000000000000006505000066
:100030005F7B0000000000000B0600006B06000064
:10004000317300003F7300004D7300005B730000CC
:1000500069730000777300008573000093730000DC
:10006000A1730000AF730000BD730000CB730000EC
:10007000D9730000E7730000F573000003740000FB
:1000800011740000657B00006B7B0000717B000039
:10009000777B00007D7B0000837B0000897B000074
:1000A0008F7B0000957B00009B7B0000A17B000004
:1000B000A77B0000AD7B0000B37B00001F74000035
:1000C000B97B00002D740000BF7B00003B74000072
:1000D000C57B000049740000CB7B0000D17B000091
:1000E000D77B0000DD7B0000E37B0000E97B0000A4
:1000F000EF7B0000F57B0000FB7B0000017C000033
:1001000005050000050500000505000005050000C7
:10011000077C00000D7C0000137C0000197C0000AF
:100120001F7C0000257C00002B7C0000317C00003F
:10013000377C00003D7C0000437C0000497C0000CF
:100140004F7C0000557C0000577400005B7C000071
:1001500065740000617C0000677C00006D7C00001D
:10016000737C0000797C00007F7C0000857C0000AF
:100170008B7C0000917C0000977C00009D7C00003F
:10018000A37C000005050000050500000505000032
:100190000505000005050000050500000505000037
:1001A0000505000005050000050500000505000027
:1001B0000505000005050000050500000505000017
:1001C0000505000005050000050500000505000007
:1003F000050500000505000005050000FFFFFFFFE3
:10040000FFFFFFFFFFFFFFFFFFFFFFFFFEFFFFFFFD
:1004400010B5054C237833B9044B13B10448AFF30E
:1004500000800123237010BD501100200000000017
:100460006011010008B5034B1BB103490348AFF30A
:10047000008008BD00000000541100206011010040
:10048000154B002B08BF134B9D46A3F5803A002166
:100490008B460F461348144A121A0DF0F1F90F4B10
:1004A000002B00D098470E4B002B00D0984700201F
:1004B000002104000D000D48002802D00C480CF06B
:1004C000BDFE0CF005FF2000290006F007FF0CF030
:1004D000C1FE00BF00000800000000200000000076
:1004E0002D67000050110020C06300203DD20000A5
:1004F00075D2000072B607F089FE07F021FE62B6E1
:10050000FFF7BEFFFFF7FEBF80F309887047EFF3E8
:1005100009807047684680F309885A480078C00708
:1005200014BF0220032080F314887047DFF858C1FD
:10053000EFF305831B0618BF6047EFF31483DB0757
:1005400008BF604700DF7047DFF840C1EFF3058365
:100550001B0618BF6047EFF31483DB0708BF604733
:1005600000DF7047EFF30980816911F8021CE1BBDD
:1005700090E80F1010B5E047BDE81040EFF3098C8C
:100580008CE80700424B93E80600914208BF704791
:1005900041B91EF0100F16D13E49086820F0010045
:1005A000086010E01EF0100F06BF2CED108A01202D
:1005B000002081F825002CE9F00FC1F828C00CB408
:1005C00009F09EFC0CBC1A60D2F828C0BCE8F00F01
:1005D00092F8250000280EBF6FF0020E6FF0120E89
:1005E000BCEC108A8CF30988704710B52A4A12684F
:1005F000914209D8294C54F8214090E80F10A047A7
:10060000EFF3098C8CE80F0010BD10B509F0FCFB6E
:10061000BDE810401E4B93E80600914208BF7047AA
:10062000EFF3098C1EF0100F06BF2CED108A01208D
:10063000002081F825002CE9F00FC1F828C00CB487
:1006400009F05EFC0CBC1A60D2F828C0BCE8F00FC0
:1006500092F8250000280EBF6FF0020E6FF0120E08
:10066000BCEC108A8CF30988704710B509F02AFC9D
:10067000FFF7CEBF10B509F023FC09F023FCFFF70C
:10068000C7BF0000E4FE00008D970000A99700009E
:100690005C63002034EF00E000000000FCFFFFFF7F
:1006A00081F0004102E000BF83F0004330B54FEA23
:1006B00041044FEA430594EA050F08BF90EA020F90
:1006C0001FBF54EA000C55EA020C7FEA645C7FEA23
:1006D000655C00F0E2804FEA5454D4EB5555B8BF46
:1006E0006D420CDD2C4480EA020281EA030382EAB7
:1006F000000083EA010180EA020281EA0303362D49
:1007000088BF30BD11F0004F4FEA01314FF4801C1B
:100710004CEA113102D0404261EB410113F0004F2D
:100720004FEA03334CEA133302D0524263EB4303E4
:1007300094EA050F00F0A780A4F10104D5F1200E82
:100740000DDB02FA0EFC22FA05F2801841F10001DD
:1007500003FA0EF2801843FA05F359410EE0A5F1B1
:1007600020050EF1200E012A03FA0EFC28BF4CF0E2
:10077000020C43FA05F3C01851EBE37101F0004598
:1007800007D54FF0000EDCF1000C7EEB00006EEBA5
:100790000101B1F5801F1BD3B1F5001F0CD349082F
:1007A0005FEA30004FEA3C0C04F101044FEA445286
:1007B00012F5800F80F09A80BCF1004F08BF5FEA0D
:1007C000500C50F1000041EB045141EA050130BDED
:1007D0005FEA4C0C404141EB010111F4801FA4F190
:1007E0000104E9D191F0000F04BF01460020B1FAE5
:1007F00081F308BF2033A3F10B03B3F120020CDA1D
:100800000C3208DD02F1140CC2F10C0201FA0CF0FA
:1008100021FA02F10CE002F11402D8BFC2F1200C5F
:1008200001FA02F120FA0CFCDCBF41EA0C01904015
:10083000E41AA2BF01EB0451294330BD6FEA04045E
:100840001F3C1CDA0C340EDC04F11404C4F1200249
:1008500020FA04F001FA02F340EA030021FA04F35B
:1008600045EA030130BDC4F10C04C4F1200220FAB2
:1008700002F001FA04F340EA0300294630BD21FAF0
:1008800004F0294630BD94F0000F83F4801306BFB6
:1008900081F480110134013D4EE77FEA645C18BFAA
:1008A0007FEA655C29D094EA050F08BF90EA020F41
:1008B00005D054EA000C04BF1946104630BD91EA39
:1008C000030F1EBF0021002030BD5FEA545C05D13C
:1008D0004000494128BF41F0004130BD14F580047B
:1008E0003CBF01F5801130BD01F0004545F0FE41EF
:1008F00041F470014FF0000030BD7FEA645C1ABF24
:10090000194610467FEA655C1CBF0B46024650EA5A
:10091000013406BF52EA033591EA030F41F4002186
:1009200030BD00BF90F0000F04BF0021704730B50C
:100930004FF4806404F132044FF000054FF00001E1
:1009400050E700BF90F0000F04BF0021704730B5A2
:100950004FF4806404F1320410F0004548BF404277
:100960004FF000013EE700BF42004FEAE2014FEACC
:1009700031014FEA02701FBF12F07F4393F07F4FA7
:1009800081F06051704732F07F4208BF704793F0AA
:100990007F4F04BF41F40021704730B54FF46074BD
:1009A00001F0004521F000411CE700BF50EA0102C0
:1009B00008BF704730B54FF000050AE050EA010269
:1009C00008BF704730B511F0004502D5404261EBD9
:1009D00041014FF4806404F132045FEA915C3FF41A
:1009E000D8AE4FF003025FEADC0C18BF03325FEAB7
:1009F000DC0C18BF033202EBDC02C2F1200300FA68
:100A000003FC20FA02F001FA03FE40EA0E0021FA8C
:100A100002F11444BDE600BF70B54FF0FF0C4CF47A
:100A2000E06C1CEA11541DBF1CEA135594EA0C0F2C
:100A300095EA0C0F00F0DEF82C4481EA030621EA67
:100A40004C5123EA4C5350EA013518BF52EA0335A2
:100A500041F4801143F4801338D0A0FB02CE4FF054
:100A60000005E1FB02E506F00042E0FB03E54FF084
:100A70000006E1FB03569CF0000F18BF4EF0010E7C
:100A8000A4F1FF04B6F5007F64F5407404D25FEA78
:100A90004E0E6D4146EB060642EAC62141EA55512B
:100AA0004FEAC52040EA5E504FEACE2EB4F1FD0C6D
:100AB00088BFBCF5E06F1ED8BEF1004F08BF5FEAEB
:100AC000500E50F1000041EB045170BD06F000469D
:100AD00046EA010140EA020081EA0301B4EB5C044A
:100AE000C2BFD4EB0C0541EA045170BD41F4801142
:100AF0004FF0000E013C00F3AB8014F1360FDEBF67
:100B0000002001F0004170BDC4F10004203C35DA42
:100B10000C341BDC04F11404C4F1200500FA05F3C5
:100B200020FA04F001FA05F240EA020001F0004266
:100B300021F0004110EBD37021FA04F642EB0601DC
:100B40005EEA430E08BF20EAD37070BDC4F10C0406
:100B5000C4F1200500FA04F320FA05F001FA04F2CA
:100B600040EA020001F0004110EBD37041F10001B6
:100B70005EEA430E08BF20EAD37070BDC4F12005C1
:100B800000FA05F24EEA020E20FA04F301FA05F229
:100B900043EA020321FA04F001F0004121FA04F2D1
:100BA00020EA020000EBD3705EEA430E08BF20EAA1
:100BB000D37070BD94F0000F0FD101F000464000DB
:100BC00041EB010111F4801F08BF013CF7D041EA5D
:100BD000060195F0000F18BF704703F00046520061
:100BE00043EB030313F4801F08BF013DF7D043EA32
:100BF0000603704794EA0C0F0CEA135518BF95EAE8
:100C00000C0F0CD050EA410618BF52EA4306D1D16E
:100C100081EA030101F000414FF0000070BD50EA8D
:100C2000410606BF1046194652EA430619D094EA17
:100C30000C0F02D150EA013613D195EA0C0F05D101
:100C400052EA03361CBF104619460AD181EA030155
:100C500001F0004141F0FE4141F470014FF000000D
:100C600070BD41F0FE4141F4780170BD70B54FF0A8
:100C7000FF0C4CF4E06C1CEA11541DBF1CEA135528
:100C800094EA0C0F95EA0C0F00F0A7F8A4EB05040A
:100C900081EA030E52EA03354FEA013100F0888001
:100CA0004FEA03334FF0805545EA131343EA1263CA
:100CB0004FEA022245EA111545EA10654FEA00267F
:100CC0000EF000419D4208BF964244F1FD0404F538
:100CD000407402D25B084FEA3202B61A65EB030594
:100CE0005B084FEA32024FF480104FF4002CB6EB51
:100CF000020E75EB030E22BFB61A754640EA0C00D1
:100D00005B084FEA3202B6EB020E75EB030E22BF10
:100D1000B61A754640EA5C005B084FEA3202B6EB51
:100D2000020E75EB030E22BFB61A754640EA9C0010
:100D30005B084FEA3202B6EB020E75EB030E22BFE0
:100D4000B61A754640EADC0055EA060E18D04FEA9E
:100D5000051545EA16754FEA06164FEAC30343EA3E
:100D600052734FEAC2025FEA1C1CC0D111F4801F0B
:100D70000BD141EA00014FF000004FF0004CB6E704
:100D800011F4801F04BF01430020B4F1FD0C88BFA3
:100D9000BCF5E06F3FF6AFAEB5EB030C04BFB6EBAE
:100DA000020C5FEA500C50F1000041EB045170BDA1
:100DB0000EF0004E4EEA113114EB5C04C2BFD4EBCE
:100DC0000C0541EA045170BD41F480114FF0000E52
:100DD000013C90E645EA060E8DE60CEA135594EACE
:100DE0000C0F08BF95EA0C0F3FF43BAF94EA0C0FD1
:100DF0000AD150EA01347FF434AF95EA0C0F7FF446
:100E000025AF104619462CE795EA0C0F06D152EA99
:100E100003353FF4FDAE1046194622E750EA41067D
:100E200018BF52EA43067FF4C5AE50EA41047FF48E
:100E30000DAF52EA43057FF4EBAE12E74FF0FF3CF3
:100E400006E000BF4FF0010C02E000BF4FF0010CC4
:100E50004DF804CD4FEA410C7FEA6C5C4FEA430C3D
:100E600018BF7FEA6C5C1BD001B050EA410C0CBF8C
:100E700052EA430C91EA030F02BF90EA020F0020EE
:100E8000704710F1000F91EA030F58BF994208BF55
:100E900090422CBFD8176FEAE37040F00100704712
:100EA0004FEA410C7FEA6C5C02D150EA013C07D169
:100EB0004FEA430C7FEA6C5CD6D152EA033CD3D0B4
:100EC0005DF8040B704700BF8446104662468C46AE
:100ED0001946634600E000BF01B5FFF7B7FF0028E1
:100EE00048BF10F1000F01BD4DF808EDFFF7F4FF0A
:100EF0000CBF012000205DF808FB00BF4DF808ED95
:100F0000FFF7EAFF34BF012000205DF808FB00BFB7
:100F10004DF808EDFFF7E0FF94BF012000205DF8D9
:100F200008FB00BF4DF808EDFFF7CEFF94BF01208E
:100F300000205DF808FB00BF4DF808EDFFF7C4FF87
:100F400034BF012000205DF808FB00BF4FEA410CD0
:100F50007FEA6C5C02D150EA013C0AD14FEA430CB3
:100F60007FEA6C5C02D152EA033C02D14FF00000F0
:100F700070474FF0010070474A0011D212F500127D
:100F800011D20DD56FF47873B3EB62520ED44FEAE1
:100F9000C12343F0004343EA505323FA02F0704761
:100FA0004FF00000704750EA013002D14FF0FF309F
:100FB00070474FF0000070474FEA4102B2F1E04342
:100FC00024BFB3F5001CDCF1FE5C0DD901F0004C30
:100FD0004FEAC0024CEA5070B2F1004F40EB830080
:100FE00008BF20F00100704711F0804F21D113F1AC
:100FF0003872BCBF01F00040704741F480114FEAE5
:101000005252C2F11802C2F1200C10FA0CF320FA6D
:1010100002F018BF40F001004FEAC1234FEAD3238A
:1010200003FA0CFC40EA0C0023FA02F34FEA4303F4
:10103000CCE77FEA625307D150EA01331EBF4FF07D
:10104000FE4040F44000704701F0004040F0FE4098
:1010500040F40000704700BF53B94AB9002908BFE7
:1010600000281CBF4FF0FF314FF0FF3001F0F8B8FF
:10107000ADF1080C6DE904CE00F006F8DDF804E0EF
:10108000DDE9022304B070472DE9F047089E0446CD
:101090008846002B4BD18A42154667D9B2FA82F2B4
:1010A0004AB1C2F1200701FA02F320FA07F795408E
:1010B00047EA030894404FEA154E230CB8FBFEF7AD
:1010C0001FFA85FC0EFB178843EA084307FB0CF167
:1010D000994209D9EB1807F1FF3080F01B81994242
:1010E00040F21881023F2B445B1AA4B2B3FBFEF01E
:1010F0000EFB103344EA034400FB0CFCA44509D961
:101100002C1900F1FF3380F00781A44540F20481DF
:1011100002382C4440EA0740A4EB0C0400271EB11F
:10112000D4400023C6E900433946BDE8F0878B422E
:1011300009D9002E00F0EB800027C6E900013846EF
:101140003946BDE8F087B3FA83F7002F47D18B42C9
:1011500002D3824200F2FA80841A61EB0303012079
:101160009846002EE0D0C6E90048DDE702B9FFDE70
:10117000B2FA82F2002A40F08F80491B4FEA154EE6
:101180001FFA85F80127B1FBFEFC230C0EFB1C1196
:1011900043EA014308FB0CF1994207D9EB180CF123
:1011A000FF3002D2994200F2CD808446591AA3B290
:1011B000B1FBFEF00EFB101443EA044408FB00F8F8
:1011C000A04507D92C1900F1FF3302D2A04500F247
:1011D000B6801846A4EB080440EA0C409FE7C7F12C
:1011E000200CBB4022FA0CFE4EEA030E01FA07F473
:1011F00020FA0CF521FA0CF34FEA1E482543B3FB05
:10120000F8F92C0C08FB19331FFA8EFA44EA034351
:1012100009FB0AF49C4202FA07F200FA07F10BD923
:101220001EEB030309F1FF3080F087809C4240F2FF
:101230008480A9F1020973441B1BADB2B3FBF8F023
:1012400008FB103345EA034400FB0AFAA24508D91B
:101250001EEB040400F1FF336BD2A24569D90238BA
:10126000744440EA0940A0FB0289A4EB0A044C45FF
:10127000C2464B4654D351D0002E69D0B1EB0A057B
:1012800064EB030404FA0CFCFD40FC404CEA050549
:10129000C6E90054002747E7C2F1200320FA03F70C
:1012A000954001FA02F021FA03F34FEA154E384354
:1012B000010CB3FBFEF71FFA85F80EFB173341EA6A
:1012C000034107FB08F38B4204FA02F407D96918BB
:1012D00007F1FF3C2FD28B422DD9023F2944CB1A74
:1012E00081B2B3FBFEF00EFB103341EA034100FB79
:1012F00008F38B4207D9691800F1FF3C17D28B42E3
:1013000015D902382944C91A40EA07473BE737464E
:10131000304609E70746E7E61846FBE64145ABD20B
:10132000B8EB020A69EB0E0201381346A4E76046E7
:10133000E9E7184695E76746D1E781467CE702383A
:101340002C4447E7ACF1020C2B442FE7384608E762
:101350003746E9E603685A004CBF43F0004323F0E8
:1013600000431844704700BF61B32DE9F84F01F105
:10137000FF3A90460646D146002707EB090404EBE6
:10138000D4746410E50071190846FFF7E3FFA24525
:10139000834605F10800304409D0FFF7DBFFC34561
:1013A00000F1FF3005D8404509D2671CE5E7C34589
:1013B00005D9A74202D004F1FF39DEE70021084633
:1013C000BDE8F88F08467047012807D0022807D0EB
:1013D000044B00280CBF1846002070470248704795
:1013E00002487047B51A0000B91A0000BD1A000083
:1013F00030B5254B83B004468D1E4BB301A928465A
:10140000AFF30080F0B101992A46FFF7ADFF014626
:10141000C0B1FFF79FFF4B68A064012B2ED0002BBB
:1014200001F1040026DBFFF795FF0023C4E9130355
:101430000368002B12DBFFF78DFF002320611846A5
:1014400003B030BD002323610923184603B030BD2B
:101450000E490F48091AC9100191D5E7C3F303607B
:10146000FFF7B2FF002814BF0023092320611846AC
:1014700003B030BD0123C4E91303D9E7002323617E
:101480000523184603B030BD00000000AC1A01006F
:10149000EC1501000368DA0710B5044606D49B0773
:1014A00000F1480009D500F05FFC2368590709D511
:1014B0001A070ED5DB0613D510BD00F04DFC2368CE
:1014C0005907F5D404F1D00000F056FC23681A0740
:1014D000F0D404F5A87000F057FC2368DB06EBD4C9
:1014E00004F5E870BDE8104000F092BC036803B159
:1014F00003441846704700BF09207047704700BF7B
:1015000070B504460D4608E02B6C63612A462369DA
:10151000214601209847082808D1296C2046FFF76A
:1015200067FF06460028EFD00BF062FE0728FBD1CC
:101530003046296CFFF7E2FF281D00F001FC00BFD8
:101540002DE9F0470C1D054617460FCCADF5727D11
:1015500003AE0FC60FCC0FC60FCC0FC694E80F001A
:1015600002ACD5F80C80D5F8189086E80F0000235F
:10157000236021E0236C6B614FF4F07221467AA85E
:1015800000F070FE2B697AAA294630469847889B5E
:10159000CDE900498246636431462B462A46012044
:1015A000C0470746F8B94FF4F0727AA9204600F018
:1015B00059FEBAF1080F1CD1216C2846FFF718FF1D
:1015C000002F08BF0926074618BF0A260028D1D0D9
:1015D000A36B46F01001CDE900492A46636401205F
:1015E0002B46C04700B1092738460DF5727DBDE88E
:1015F000F087BAF1070FF6D13846216CFFF77EFF6E
:1016000003A800F09DFB00BF406C7047F0B5CB6BAA
:101610000B640D1D0F4606460FCDF9B001AC0FC48B
:101620000FCD0FC40FCD0FC495E80F004FF0FF355D
:1016300084E80F00009506E033696A463146984712
:101640000828044608D110993046FFF7D1FE00283B
:10165000F2D0092079B0F0BD6846FFF71BFF062CD9
:10166000F7D139463046FFF74BFF00BF30B4DD6B92
:10167000C160826119461D64002230BC60E700BF72
:1016800070B5C66843690B64BEB903690A4604466F
:101690000D46014602209847072807D0082803D1A5
:1016A00029462046FFF72CFF0BF0A2FD3046296C9F
:1016B000FFF724FF281D00F043FB0122FFF740FF46
:1016C0000BF096FDC2681AB1CA6B0A64002237E7B4
:1016D0009CE700BF704700BF836813B1014601203B
:1016E00018477047042907D8DFE801F00308060807
:1016F00008000BB90F2A03D9022070470120704758
:1017000000EB820218465368009A1360704700BFCE
:1017100010B584B0002303AC0A4600941946FFF7C5
:10172000E1FF039804B010BD042907D8DFE801F0F9
:101730000308060808000BB90F2A03D902207047D6
:101740000120704700EB8200009A12684260184640
:10175000704700BF10B584B004AC002344F8042DDA
:101760000A4600941946FFF7DFFF04B010BD00BF22
:10177000F0B5D36B1364151D07460E460FCDADF5BE
:101780000F7D17AC0FC40FCD0FC40FCD0FC495E85C
:101790000F004FF0FF3584E80F00169510E016A8F3
:1017A000FFF7D8FF314616A8B84716AA694678B998
:1017B000049B08209847052804460AD0092807D02A
:1017C00026996846FFF714FE6A460C210028E6D0E9
:1017D000092416A8FFF75EFE20460DF50F7DF0BD2B
:1017E0002DE9F04F0D46C96C89B00C1D164600F06E
:1017F000030B0A6806941F46002B68D0130CD9B25D
:1018000012048DF81D30022304EB810405928DF83B
:101810001C302B6DBBF1020F08BFAC6B13F0010342
:1018200046D1019300F008030093D4F80090B9F179
:10183000000F00F0F380022F45D0B4F80090B4F808
:1018400002800434AB6C28F0010A0F2130469A4420
:10185000FFF75EFF824534D829F0010353448342E9
:1018600094BF002001204FEA480808F0020809F060
:10187000010948EA0908B8F1010F3AD031D3B8F1AB
:10188000020F1AD1236823F0004ABBF1000F66D182
:1018900030B1009A002A6CD0BAF1000F00F09080AD
:1018A000002B00DA04340AF1010304EB8304BCE7E3
:1018B000304605A900F046FB78B1092009B0BDE823
:1018C000F08F0020CFE7D4F804800834BAE7120282
:1018D00003230592ADF81C309BE7082009B0BDE852
:1018E000F08FBBF1000F02D0002840F0B480043428
:1018F0009BE7BBF1000F18D1A8B1D4E90023991CD4
:101900004FEAD272D9D005F158010133049100F0A9
:10191000B580201DFFF7EAFD04AB01462846AFF372
:101920000080002867D108347FE70D213046D5F8C4
:101930002080FFF7EDFE8045F5D1AB6A9C42F2D1E5
:101940002046FFF707FD0F2102463046FFF702FF52
:1019500030462A460021FFF7FDFE0720AEE70D21A5
:101960003046D5F82080FFF7D3FE804532D023687B
:1019700096E7BAF1000F23D005F1580304F10408EB
:10198000CDF808B0DDF800900397A3461C4602E0AE
:101990005745B94640D040460494FFF7A7FD04AB35
:1019A000014600222846AFF3008009F1010708F143
:1019B00004080028ECD0D1455C46DDE902B7D6D159
:1019C00030460D21FFF7A4FE049B2862C5E90934C7
:1019D000062073E7AB6A9C42C9D104224FF000088D
:1019E000A318C5E90AA8C5E90C23236843454DDBC4
:1019F0000123019357E780460D213046FFF788FE0B
:101A0000B8F1020F28623ED12B46049A43F82C2FDE
:101A10006B62AC62062051E75C46D1E705A930460F
:101A200000F090FA00287FF448AF019B002B3FF4B0
:101A300054AF0F213046FFF76BFE0E2102463046B1
:101A4000FFF788FE30461A4A0F21FFF783FE072072
:101A500009B0BDE8F08F2046FFF77CFC0434074650
:101A6000AC632846AFF3008000283FF426AF304631
:101A70003A460F21FFF76EFE07201FE730460D2183
:101A8000FFF746FE2862049B6B62C2E70AF1010081
:101A900004EB8000FFF75EFC0F2102463046FFF7A3
:101AA00059FE30462A464146FFF754FE072005E717
:101AB00000000000002393E6012391E602238FE655
:101AC0002DE9F0410546C4B0042906D8DFE801F04D
:101AD0004D2B05030900032B5FD0022044B0BDE865
:101AE000F081002BF9D1102AF7D82B68DC0600F121
:101AF000F48022AC2046019200F094F9A86B019A80
:101B00000023012606FA03F1114203D0016844F8CC
:101B1000231004300133042BF4D1A863204600F0D5
:101B200077F90020DAE7012B4FEA124697B252D03C
:101B3000052BD2D106EB0708B8F1200FCDD80F2E18
:101B400040F29980B846002F40F0DB80AA6BAA6370
:101B50000F2E40F2BE80B8F1000F02D002A800F0B4
:101B60000BF9002044B0BDE8F081002BB5D1AC6B7F
:101B700097B2281D012606FA03F1394203F1010349
:101B800002D0216801600434102B00F10400F2D16E
:101B900012F40050E5D1AC63A0E7160C97B2F3192C
:101BA000102B9AD82B681A075DD422AC204600F07F
:101BB0000DF904EBC601AB6B3FB103EBC70218682C
:101BC00041F8040B04339342F9D12046AB6300F093
:101BD000DBF8002082E7F219102A3FF67EAF0F2EC5
:101BE0003FF67BAF2A68D10708D5284622F00302CA
:101BF00040F8482B019300F0B3F8019B019322AC0D
:101C0000204600F0ADF8A96B019B002F00F09580F5
:101C10007F0004EBC6044FF00008043C01EB870290
:101C200051F8040B44F8040F9142F9D1B8F1000FB8
:101C30000FD002AC102E314638BF102104EBC10189
:101C4000843902EBC80452F8040B41F8040F9442A3
:101C5000F9D1012B7FF47BAF22AC0432AA6320467A
:101C600000F07AF87DE723F008032B6005F5A870F3
:101C700000F0ACF899E7B8F1100F2A6843D9D00703
:101C8000A8F110080BD5284622F0010242F002020A
:101C900040F8482B019300F06BF82A68019B51072C
:101CA00025D40F2E04D822A8019300F061F8019BDF
:101CB000019302AC204600F063F8C6F11001002940
:101CC000AA6B019BB6DD22AC4F0004EBC6041146A3
:101CD000A3E722A800F048F83DE723F010032B60AB
:101CE00005F5E870019200F09DF8019A01E7284699
:101CF00022F0040240F8D02B019300F041F8019B40
:101D0000CFE72A68CBE7D0070AD5284622F00102A0
:101D100042F0020240F8482B019300F029F8019BA1
:101D2000019322AC204600F023F8B846A96B019B32
:101D3000002F7FF46DAF0A4609E70A468DE700BF22
:101D400000F1340191E838009C46A6464CF8045D49
:101D500090E8FF0FE54600BD90EC210B704700BFF7
:101D600080EC210B704700BF90EC200B704700BF48
:101D700080EC200B704700BFD0EC200B704700BFF9
:101D8000C0EC200B704700BFF0EC0201F0EC021138
:101D9000F0EC0221F0EC0231F0EC0241F0EC0251E7
:101DA000F0EC0261F0EC0271F0EC0281F0EC0291D7
:101DB000F0EC02A1F0EC02B1F0EC02C1F0EC02D1C7
:101DC000F0EC02E1F0EC02F1704700BFE0EC020140
:101DD000E0EC0211E0EC0221E0EC0231E0EC024127
:101DE000E0EC0251E0EC0261E0EC0271E0EC028117
:101DF000E0EC0291E0EC02A1E0EC02B1E0EC02C107
:101E0000E0EC02D1E0EC02E1E0EC02F1704700BF4F
:101E1000B0FC0181B0FC0191B0FC01A1B0FC01B1AA
:101E2000704700BFA0FC0181A0FC0191A0FC01A1B2
:101E3000A0FC01B1704700BFEC4600B52DE9005091
:101E40002DE9FF1F4FF000032DE90C0001A9FFF75A
:101E5000DDFBDDF840E012B0704700BFEC4600B596
:101E60002DE900502DE9FF1F4FF000032DE90C0074
:101E700001A9FFF705FCDDF840E012B0704700BF94
:101E8000EC4600B52DE900502DE9FF1F4FF000038F
:101E90002DE90C0001A9FFF715FCDDF840E012B0B8
:101EA000704700BFEC4600B52DE900502DE9FF1F3B
:101EB0004FF000032DE90C0001ABFFF7D7FBDDF875
:101EC00040E012B0704700BFEC4600B52DE900506D
:101ED0002DE9FF1F4FF000032DE90C0001AAFFF7C9
:101EE00047FCDDF840E012B0704700BF027A82B9CB
:101EF000437AABB14268013B10B4437213680321CB
:101F0000141D01721A02446002605DF8044B180E41
:101F100070470368013A02721A020260180E704795
:101F2000B020704700B585B003AA0023009219467F
:101F30000C22FFF7D7FB039805B05DF804FB00BF48
:101F4000F0E700BF2DE9F043054685B00E464FF09F
:101F500000083046FFF7CAFFB028044600F0B18001
:101F6000070620D500F0F003802B65D0902B36D0EB
:101F7000A02B78D0B02B47D0C02B00F08A8000F087
:101F8000F803D02B0BD100F00702013242F40022FB
:101F9000052301212846FFF793FD0028D9D0092009
:101FA00005B0BDE8F0830DF10C0900231946870048
:101FB000CDF800900D222846FFF794FBFFB2039B5B
:101FC000CDF80090043760064CBFDF1BFF180023DC
:101FD00019460D2228460397FFF7A6FBB9E700F044
:101FE0000D030D2BDBD003AF002300F00F021946C9
:101FF00000972846FFF776FB0023009719460D222D
:102000002846FFF791FBA4E7B1285FD0B22800F083
:10201000CC80B3287ED000F0FC03B42BBFD000F0FE
:1020200007020132012342F4002219462846FFF735
:1020300047FD00288DD0B2E73046FFF757FF240256
:102040000443B4F5004FAAD024010023A2B21946DC
:102050002846FFF735FD0028A1D114F4004F18BF22
:102060004FF0010875E7C24302F007034FF47F62A7
:102070001A41010702F47F624FF0000348BF42F4A7
:10208000804219462846FFF71BFD00283FF461AF48
:1020900085E7C62851D0C7285AD000F0F803C02BD6
:1020A00069D0C82875D0C9287FF479AF3046FFF7CA
:1020B0001DFF020300F00F0002F470220130024302
:1020C00066E7B8F1000F14D0002069E73046FFF74B
:1020D0000DFF00283FF463AF10F0F0037FF45FAF13
:1020E000024619462846FFF7EBFC00283FF431AFC3
:1020F00055E703AC43460E22414600942846FFF7BD
:10210000F1FA0094284643460F224146FFF70CFBA4
:10211000404645E73046FFF7E9FE010300F00F00B7
:1021200001F47021421C01230A4328461946FFF797
:10213000C7FC00283FF40DAF31E73046FFF7D6FE6D
:10214000010300F00F0001F47021421C0323EBE7B0
:102150003046FFF7CBFE024600283FF420AF10F0D8
:10216000F0037FF41CAF04212846FFF7A9FC0028E8
:102170003FF4EFAE13E700F00F020132032342F405
:10218000202219462846FFF79BFC00283FF4E1AEC9
:1021900005E73046FFF7AAFE00F0F00200F00F035B
:1021A0001032013343EA0232F2E600230DF10C094A
:1021B0000D221946CDF800902846FFF793FA3046D5
:1021C000FFF794FE02064FF002070CD5039B00F0C8
:1021D0007F00B840034430460393FFF787FE0306B1
:1021E00007F10707F2D4039BCDF8009000F07F04BD
:1021F00003F50172BC400023144419460D22284601
:102200000394FFF791FAA4E610B5C36C84B05A6842
:1022100003208DF80C00DC798DF80D401202083394
:10222000084601A901920293FFF78CFE04B010BD8D
:1022300008B5FFF785FE806C08BD00BF08B5FFF745
:102240007FFEC06CC37900EB8300083008BD00BF7F
:1022500008B50AF0CDFF00BF08B5FFF7F9FF00BFD2
:10226000704700BF844641EA000313F003036DD1B9
:10227000403A41D351F8043B40F8043B51F8043B49
:1022800040F8043B51F8043B40F8043B51F8043B50
:1022900040F8043B51F8043B40F8043B51F8043B40
:1022A00040F8043B51F8043B40F8043B51F8043B30
:1022B00040F8043B51F8043B40F8043B51F8043B20
:1022C00040F8043B51F8043B40F8043B51F8043B10
:1022D00040F8043B51F8043B40F8043B51F8043B00
:1022E00040F8043B51F8043B40F8043B51F8043BF0
:1022F00040F8043B403ABDD2303211D351F8043B90
:1023000040F8043B51F8043B40F8043B51F8043BCF
:1023100040F8043B51F8043B40F8043B103AEDD23E
:102320000C3205D351F8043B40F8043B043AF9D28F
:10233000043208D0D2071CBF11F8013B00F8013B62
:1023400001D30B8803806046704700BF082A13D36F
:102350008B078DD010F003038AD0C3F10403D21A87
:10236000DB071CBF11F8013B00F8013B80D331F8BB
:10237000023B20F8023B7BE7043AD9D3013A11F83B
:10238000013B00F8013BF9D20B7803704B784370A6
:102390008B788370604670470000000000000000EA
:1023A00001F0FF01102A2BDB10F0070F08D010F806
:1023B000013B013A8B422DD010F0070F42B3F6D10A
:1023C000F0B441EA012141EA014122F007047FF023
:1023D00000070023F0E80256083C85EA010586EA7A
:1023E000010685FA47F5A3FA87F586FA47F6A5FAB6
:1023F00087F68EB9EED1F0BC01F0FF0102F00702C2
:1024000032B110F8013B013A83EA010313B1F8D16C
:102410000020704701387047002D06BF354603384D
:10242000073815F0010F07D1013015F4807F02BF86
:10243000013015F4C03F0130F0BC0138704700BFD7
:1024400090F800F06DE9024520F007016FF0000CF4
:1024500010F0070491F820F040F049804FF000049C
:102460006FF00700D1E9002391F840F000F1080077
:1024700082FA4CF2A4FA8CF283FA4CF3A2FA8CF3AF
:102480004BBBD1E9022382FA4CF200F10800A4FA16
:102490008CF283FA4CF3A2FA8CF3E3B9D1E904236A
:1024A00082FA4CF200F10800A4FA8CF283FA4CF3A1
:1024B000A2FA8CF37BB9D1E9062301F1200182FA5B
:1024C0004CF200F10800A4FA8CF283FA4CF3A2FA61
:1024D0008CF3002BC6D0002A04BF04301A4612BA6F
:1024E000B2FA82F2FDE8024500EBD2007047D1E972
:1024F000002304F00305C4F100004FEAC50514F001
:10250000040F91F840F00CFA05F562EA05021CBFD1
:1025100063EA050362464FF00004A9E780B586B080
:1025200000AF786026497A6813465B0013449B002D
:102530000B4409331B78002B27D107F108031846F9
:1025400008F024FB0323FB721D497A6813465B00E5
:1025500013449B000B441B6807F108021146184600
:1025600008F026FB16497A6813465B0013449B006B
:102570000B44093303221A707A6813465B00134434
:102580009B000F4A13447B6115E00D497A6813469E
:102590005B0013449B000B4409331B78032B08D1C9
:1025A0007A6813465B0013449B00054A13447B6121
:1025B00001E000237B617B6918461837BD4680BD6A
:1025C0005005002080B485B000AFF8600B467A60FB
:1025D000FB7200BF1437BD465DF8047B70470000F6
:1025E00090B58BB000AFF860B9601346FB71FB6823
:1025F000FB61FB69002B3AD0FB691B7A3B7500231A
:10260000BB7500237B75FB691B680121184608F028
:1026100017FBFB691868FB695B6807F11402194630
:1026200008F02EFBFB691A68FB695B6819461046C7
:1026300008F042FBFB691A68FB695B6819461046A3
:1026400008F05EFB03467B837B8B07EE903AF8EE47
:10265000677A17EE900AFEF787F90DA3D3E90023F6
:10266000FEF7DAF903460C46C7E9083405E04FF0F7
:1026700000034FF00004C7E90834BA68D7E908340A
:10268000C2E9003400BF2C37BD4690BDAFF30080D7
:10269000100010001000F03E80B483B000AF7860EE
:1026A00000BF0C37BD465DF8047B704780B483B033
:1026B00000AF786000BF0C37BD465DF8047B704703
:1026C00080B483B000AF786000BF0C37BD465DF8C2
:1026D000047B704780B584B000AF78600B46FB7018
:1026E0007B68012B11D80C497B687A6841F823205C
:1026F0007B689B00084A1344184604F0E9FF7B6896
:102700009B00054A1344FB6001E00023FB60FB686B
:1027100018461037BD4680BD7011002080B584B0CA
:1027200000AF786039607B68002B07D03B681946A2
:10273000786805F0E9F80023FB7301E00823FB73D8
:10274000FB7B18461037BD4680BD80B588B002AF10
:10275000F8607A603B600B467B8100237B6197F8D1
:102760002030002B0CBF01230023DBB23B61FB6850
:10277000002B19D07B8959003A683B6900931346B6
:102780007A68F86805F0E8F803467B617B6913F125
:10279000020F01D1012308E07B69B3F1FF3F01D1B2
:1027A000042302E0002300E0082318461837BD4642
:1027B00080BD80B588B002AFF8607A603B600B46A0
:1027C0007B8100237B6197F82030002B0CBF012315
:1027D0000023DBB23B61FB68002B19D07B895900D9
:1027E0003A683B69009313467A68F86805F024F963
:1027F00003467B617B6913F1020F01D1012308E0DD
:102800007B69B3F1FF3F01D1042302E0002300E024
:10281000082318461837BD4680BD80B483B000AF8A
:10282000786000BF0C37BD465DF8047B7047000040
:1028300080B584B000AFF860B9601346FB71BB6827
:102840001F2B05D90D4B0E4AFF210E480AF0D8FC6C
:10285000FB68BA6853F8223023F0807323F4E063F6
:10286000FA79120202F4E06243EA0201FB68BA68F4
:1028700043F8221000BF1037BD4680BD3CFC00006D
:1028800044FE000048FC000080B483B000AF7860D4
:102890000B46FB707B681B6823F01802FB78DB009B
:1028A00003F018031A437B681A6000BF0C37BD465B
:1028B0005DF8047B7047000090B58FB000AF786181
:1028C00087ED020B87ED001B524A7B695B011344C5
:1028D00011331B78002B40F08780002387F82830C5
:1028E000002387F82930002387F82A308023FB62F1
:1028F000484A7B695B0113441868464A7B695B015F
:10290000134404331968434A7B695B011344103351
:102910001B781A46FFF78CFF3E4A7B695B01134424
:1029200008331B6807F128021146184608F0C0FC5E
:10293000384A7B695B01134408331B68DBB2002211
:102940000121184608F038FD324A7B695B011344C7
:10295000113304221A702F4A7B695B01134403F17F
:102960001802D7E90234C2E9003402233B7600237F
:102970007B76284A7B695B0113441833D3E9003422
:1029800018462146FEF7F8FA0346FB61D7E9000135
:10299000FEF7F2FA03463B620023BB841D4A7B69C3
:1029A0005B01134408331B681B4A52F823303B6316
:1029B0000021386BFFF768FF164A7B695B011344FF
:1029C00008331868134A7B695B0113440C331B6896
:1029D000DAB207F11803194608F04CFD7B695B0178
:1029E0000C4A13447B630FE00A4A7B695B01134482
:1029F00011331B78042B05D17B695B01054A134415
:102A00007B6301E000237B637B6B18463C37BD464C
:102A100090BD00BF900200207C08010080B483B00C
:102A200000AF786000BF0C37BD465DF8047B70478F
:102A300090B58BB000AFF86087ED000BFB687B6250
:102A40007B6A002B2CD07B6A5B7C042B28D1022371
:102A50003B7400237B747B6AD3E906341846214615
:102A6000FEF78AFA03467B61D7E90001FEF784FA94
:102A70000346BB610023BB837B6A9B680A4A52F80A
:102A800023303B620021386AFFF7FEFE7B6A9868BC
:102A90007B6ADB68DAB207F11003194608F0EAFC3A
:102AA00000BF2C37BD4690BD7C08010080B485B0C6
:102AB00000AF78607B68FB60FB68002B06D0FB688A
:102AC0005B7C042B02D1FB6800225A7400BF1437D0
:102AD000BD465DF8047B704780B483B000AF78607A
:102AE00000BF0C37BD465DF8047B704780B584B0ED
:102AF00000AFF860B9607A60BB680F2B06D90A4B4B
:102B00000A4A40F2E2210A480AF07AFBFA68BB68F6
:102B10005B01134403F5805310337A681A6000BFD9
:102B20001037BD4680BD00BF80FC00007CFE000069
:102B3000ACFC000080B584B000AFF860B96013460B
:102B4000FB71BB680F2B06D90C4B0D4A4FF460711B
:102B50000C480AF055FBBB685B0103F58053183342
:102B6000FA681344043303F104735B010433FA7904
:102B700092B21A8000BF1037BD4680BD80FC0000B5
:102B800098FE0000ACFC000090B587B000AFF86084
:102B90007A603B600B46FB7200237B61FB681B681D
:102BA000022B00F04D81032B00F0DF81012B00F0A0
:102BB0009580954B00221A60934B1B68934A52F8FC
:102BC0002330002B41D1904B1B68914ADB0013440A
:102BD00000229A718C4B1B688D4ADB001344002243
:102BE0001A71894B1B688A4ADB00134400225A7110
:102BF000854B1B68864A4FF4E13142F83310824B13
:102C00001B68184605F0A4F97F4B1B689B01814A9D
:102C100013448149184608F05DFA7B4B18687A4BDB
:102C20001A6813461B019B1A9B007C4A9918764B25
:102C30001B68DB00764A13441A4609F003FB724B0B
:102C40001B68724A012142F823107B68B3F1FF3FF1
:102C500020D06D4B1A68724913469B0013449B00A9
:102C60000B4428221A60684B1A686D4913469B0072
:102C700013449B000B4408336A4A1A60624B1A687B
:102C8000674913469B0013449B000B440C33664A70
:102C90001A6015E05C4B1A68614913469B001344A7
:102CA0009B000B440433C9221A60574B1A685C49D5
:102CB00013469B0013449B000B4410335B4A1A607D
:102CC000514B1B68504A1268594941F823204E4B1A
:102CD0001B689B00564A13447B61DBE14A4B01228F
:102CE0001A60494B1B68494A52F82330002B41D1E6
:102CF000454B1B68464ADB00134400229A71424B45
:102D00001B68434ADB00134400221A713E4B1B68C8
:102D10003F4ADB00134400225A713B4B1B683C4A7C
:102D20004FF4E13142F83310374B1B68184605F079
:102D30000FF9354B1B689B01364A13443649184638
:102D400008F0C8F9304B18682F4B1A6813461B015E
:102D50009B1A9B00314A99182B4B1B68DB002C4AAD
:102D600013441A4609F06EFA274B1B68274A0121C3
:102D700042F823107B68B3F1FF3F20D0224B1A6842
:102D8000274913469B0013449B000B4400221A6002
:102D90001D4B1A68224913469B0013449B000B44A9
:102DA0000833244A1A60184B1A681D4913469B00C1
:102DB00013449B000B440C331F4A1A6015E0124B5E
:102DC0001A68174913469B0013449B000B440433B5
:102DD00000221A600C4B1A68114913469B001344D9
:102DE0009B000B441033154A1A60074B1B68064AB8
:102DF00012680F4941F82320034B1B689B000C4AC3
:102E000013447B6146E100BF5C1600206016002081
:102E10007C150020941200200000002014140020D3
:102E2000B415002078110020A0110020C811002046
:102E300044160020C8110020C81100209412002060
:102E4000AD4B02221A60AC4B1B68AC4A52F82330DF
:102E5000002B41D1A84B1B68A94ADB001344002278
:102E60009A71A54B1B68A64ADB00134400221A7115
:102E7000A14B1B68A24ADB00134400225A719E4BEF
:102E80001B689F4A4FF4E13142F833109A4B1B689C
:102E9000184605F05DF8984B1B689B01994A13444E
:102EA0009949184608F016F9934B1868924B1A681E
:102EB00013461B019B1A9B00944A99188E4B1B6862
:102EC000DB008F4A13441A4609F0BCF98A4B1B6891
:102ED0008A4A012142F823107B68B3F1FF3F20D0DA
:102EE000854B1A688A4913469B0013449B000B4488
:102EF00000221A60804B1A68854913469B001344D0
:102F00009B000B440833834A1A607B4B1A68804944
:102F100013469B0013449B000B440C337E4A1A60FB
:102F200015E0754B1A687A4913469B0013449B00C1
:102F30000B44043300221A606F4B1A68744913461D
:102F40009B0013449B000B441033744A1A606A4B75
:102F50001B68694A1268724941F82320664B1B6856
:102F60009B006F4A13447B6194E0634B03221A6019
:102F7000614B1B68614A52F82330002B41D15E4BF4
:102F80001B685F4ADB00134400229A715A4B1B688E
:102F90005B4ADB00134400221A71574B1B68584AE6
:102FA000DB00134400225A71534B1B68544A4FF400
:102FB000E13142F83310504B1B68184604F0C8FF4B
:102FC0004D4B1B689B014F4A13444F49184608F06C
:102FD00081F8494B1868484B1A6813461B019B1A25
:102FE0009B004A4A9918444B1B68DB00444A13442F
:102FF0001A4609F027F9404B1B68404A012142F864
:1030000023107B68B3F1FF3F20D03B4B1A68404947
:1030100013469B0013449B000B4400221A60364B5E
:103020001A683B4913469B0013449B000B4408332A
:103030003C4A1A60304B1A68354913469B001344CA
:103040009B000B440C33384A1A6015E02A4B1A686F
:103050002F4913469B0013449B000B44043300226A
:103060001A60254B1A682A4913469B0013449B009B
:103070000B4410332D4A1A601F4B1B681E4A1268FE
:10308000274941F823201C4B1B689B00244A13440A
:103090007B6100BF7B68B3F1FF3F28D0164B1A68F5
:1030A00013461B019B1A9B002833184A1344181D12
:1030B000114B1B681A461E4908F04AF80E4B186857
:1030C0000D4B1A68124913469B0013449B000B4496
:1030D00008331C68084B1A680D4913469B001344BB
:1030E0009B000B441B681A46214600F0DFF87B6901
:1030F00018461C37BD4690BD5C16002060160020A7
:103100007C150020941200200000002014140020E0
:10311000B4150020C8110020C8110020941200200E
:1031200044160020C8110020C8110020941200206D
:103130005933000080B483B000AF78603960002359
:1031400018460C37BD465DF8047B704780B483B0E9
:1031500000AF7860084611461A460346FB700B46DE
:10316000BB7013467B70002318460C37BD465DF8D4
:10317000047B704780B586B000AFF860B9607A60B4
:10318000FB683B613B69002B33D03B691B681F4ADE
:10319000D35C012B2DD13B691B681D4A52F82330AB
:1031A000012B0FD13B691A681A4913469B0013443F
:1031B0009B000B4408331B687A681946B868FFF710
:1031C00051F80EE03B691A68124913469B001344FC
:1031D0009B000B440C331B687A681946B868FFF7EC
:1031E00041F83B691B68094A0021D1540023FB7553
:1031F00006E07A680021B8680AF042FB2023FB75DC
:10320000FB7D18461837BD4680BD00BFAC150020B9
:103210002C160020B415002080B586B000AFF860F1
:10322000B9607A60FB683B613B69002B2AD03B693F
:103230001B680021184609F047F90346082B21D0E6
:103240003B691A68134913469B0013449B000B44C7
:1032500010331B687A68B9681846FFF703F83B69B2
:1032600018683B691A680B4913469B0013449B007E
:103270000B4410331B687A68194609F001F90346BC
:10328000FB7501E02023FB75FB7D18461837BD4612
:1032900080BD00BFB415002080B483B000AF78605B
:1032A00000BF0C37BD465DF8047B704780B588B021
:1032B00000AFF860B9607A60FB68052B06D9214B36
:1032C000214A40F28911214809F09AFF204AFB68FF
:1032D00052F82330FB61FB6993F82C301B09DBB2F9
:1032E0001A461C4B53F82230BB61FB6993F82C3013
:1032F00003F00F037B61FB695B78DBB2002B01D02D
:1033000009231AE0FB6901225A70BB681A467969E1
:10331000B869FFF7EBFB7A687969B86907F022FEB4
:1033200001227969B869FFF705FC7B69DBB20122EC
:103330001946B86907F011FD002318462037BD462D
:1033400080BD00BFE4FC000058FE000004FD00004A
:10335000CC6200203C06010080B582B000AF7860EE
:103360000B46FB707B68184600F004F800BF083776
:10337000BD4680BD80B586B000AF78607B68052B08
:1033800006D93D4B3D4A40F2AD113D4809F038FFAA
:103390003C4A7B6852F823307B617B6993F82C3080
:1033A0001B09DBB21A46384B53F822303B617B696C
:1033B00093F82C3003F00F03FB600022F9683869A2
:1033C000FFF7B8FBFB68DBB200221946386907F04B
:1033D000C4FC7B69DB78DBB2002B04D07B69103343
:1033E000184607F001F97B6900225A70274A7B686A
:1033F000134401221A70264A7B6852F82330002BAE
:103400001BD124497A6813469B0013449B000B444C
:103410000C3318681F497A6813469B0013449B00BD
:103420000B441B681A4601467868FFF73FFF184AAD
:103430007B68012142F823101AE016497A68134686
:103440009B0013449B000B440833186811497A68A9
:1034500013469B0013449B000B441B681A4601460D
:103460007868FFF723FF0A4A7B68002142F823109F
:1034700000BF1837BD4680BDE4FC0000B0FE000070
:1034800004FD0000CC6200203C060100AC150020C9
:103490002C160020B415002080B590B000AF7860E5
:1034A0000B46FB70FB78002B27D107F12403002289
:1034B0001A605A609A60DA601A615A612D4A7B6814
:1034C00052F833307B62012387F82830012387F8D4
:1034D00029304FF0FF333B6307F12403184608F00F
:1034E000BBF8244A7B68DB00134401221A717B6815
:1034F000DB00204A1344FB6336E0FB78012B31D11B
:1035000007F10C0300221A605A609A60DA601A61AF
:103510005A61184A7B6852F83330FB6001233B75CF
:103520004FF0FF33BB6107F10C03184608F004F9B4
:10353000104A7B68DB00134402221A717B68292B36
:103540000AD97B682C2B07D80A4A7B6852F833309B
:103550000121184608F028F97B68DB00054A13446E
:10356000FB6301E00023FB63FB6B18464037BD465D
:1035700080BD00BF1401002080B586B000AF786028
:103580007B683B613B69002B0BD03B691B79012BAE
:1035900007D13B691B68184608F014F90346FB7510
:1035A00001E00023FB753B691B681B0ADBB2FB6073
:1035B0003B691B68DBB2BB60FB68022B02D1BB68B6
:1035C000062B05D0FB68002B09D1BB68042B06D164
:1035D000FB7D002B0CBF01230023DBB2FB75FB7DC1
:1035E00018461837BD4680BD80B586B000AF7860FC
:1035F0000B46FB707B687B617B69002B2FD07B695E
:103600001B79022B2BD17B691B681B0ADBB23B6148
:103610007B691B68DBB2FB603B69012B05D1FB6852
:10362000162B08D0FB68152B05D03B69042B0FD156
:10363000FB681A2B0CD17B691A68FB78012B14BF2D
:1036400001230023DBB21946104608F0ADF806E06E
:103650007B691B68FA781146184608F0A5F800BF88
:103660001837BD4680BD80B485B000AF78607B68F8
:10367000FB60FB68002B0ED0FB681B79022B03D18B
:10368000FB6800221A7106E0FB681B79012B02D14E
:10369000FB6800221A7100BF1437BD465DF8047B39
:1036A0007047000080B400AF084B5A790132D2B2A3
:1036B0005A71064B5B79012B02D9044B00225A71D7
:1036C00000BFBD465DF8047B704700BFA02100200D
:1036D00080B582B000AF094BD3F8E8327B60074B6E
:1036E0000822C3F8E82200F073FB044A7B68C2F8A2
:1036F000E83200BF0837BD4680BD00BF981E0020DD
:1037000098B500AF274B012283F81528254B0022DE
:1037100083F81428234B002283F81328224BD3E983
:1037200088014FF00002214BFDF7DEFB0346002B22
:1037300008D01C4B012283F816281A4B002283F86C
:10374000172807E0174B002283F81628154B012293
:1037500083F81728144BD3F8F0321846FDF7E2F837
:103760004FF00002124BFDF781FA03460C4644EC81
:10377000173BB0EE470AF0EE670A05F055F854EC37
:10378000103B18462146FDF7F7FB0246054BC3F8F0
:103790008C26044B012283F81828FFF799FF00BFFD
:1037A00098BD00BF78160020981E00200000F03F52
:1037B0000000144090B484B000AF03460A46FB7189
:1037C0001346BB71FB79022B05D14FF000030E4C61
:1037D000C7E902340CE0BB79022B03D14FF00003A0
:1037E000094C03E04FF000034FF00004C7E9023436
:1037F000D7E9023444EC173BB0EE470AF0EE670A13
:103800001037BD4690BC70470000F03F80B582B0D5
:1038100000AF094BD3F8E8327B60074B0922C3F8AD
:10382000E82200F0D5FA044A7B68C2F8E83200BF0B
:103830000837BD4680BD00BF981E002080B500AF90
:10384000FFF7E4FF00BF80BD90B484B000AF034633
:103850000A46FB711346BB71FB79012B05D14FF072
:1038600000030E4CC7E902340CE0BB79012B03D1F5
:103870004FF00003094C03E04FF000034FF0000449
:10388000C7E90234D7E9023444EC173BB0EE470AEB
:10389000F0EE670A1037BD4690BC70470000F03F5D
:1038A00090B484B000AF03460A46FB711346BB7167
:1038B000FB79002B02D0022B06D00BE04FF0000367
:1038C000174CC7E902341FE04FF00003144CC7E95E
:1038D000023419E0BB79002B02D0022B06D00BE09A
:1038E0004FF000030E4CC7E902340CE04FF0000328
:1038F0000B4CC7E9023406E04FF000034FF0000420
:10390000C7E9023400BF00BFD7E9023444EC173BDB
:10391000B0EE470AF0EE670A1037BD4690BC70471C
:103920000000F03F80B500AFFFF770FF00BF80BD23
:1039300090B583B000AFBE4BD3F8E832092B24D149
:10394000BB4B002283F80423B94B002283F80323E6
:10395000B74B002283F80223B54B022283F80123E0
:10396000B34B022283F80523B24B002283F81828B8
:10397000B04B012283F81528AE4B002283F816289D
:10398000AC4B002283F817281AE2A94B93F80233B4
:10399000022B00F0C780032B00F02481012B00D004
:1039A0000EE2A34B93F80433013B052B00F2058292
:1039B00001A252F823F000BFD13900003B3A0000C9
:1039C000AB3A0000EF3A00000F3B0000153B00004F
:1039D000984B93F8FE36022B04D0032B07D0012B13
:1039E0000ED016E0924B062283F8042324E0904B7D
:1039F000042283F804238E4B0022C3F8F4221BE038
:103A00008B4B032283F80423894B0022C3F8F42252
:103A100012E0874A4FF00003874CC2E98834854B97
:103A2000B3F80027824BA3F8F822824BD3F88436F0
:103A30007F4AC2F8F03200BF73E07E4BB3F8023722
:103A40001A467C4BB3F81037D31A7B60794BB3F826
:103A500002371A467B68934201D900237B607B685A
:103A60000A333B603B68B3F5803F02D34FF6FF73E8
:103A70003B606F4BD3F8F4325B003A689A4206D849
:103A80006B4B052283F80423FFF7D8FE44E0694B13
:103A900093F80F38002B3FD0654B002283F80423A6
:103AA000634B022283F8022336E0624BB3F81037EF
:103AB0001A465F4BB3F8F832D31A7B605D4BB3F80C
:103AC00010371A467B68934201D900237B60584B1C
:103AD000D3F8F4325B007A689A421FD8544B022222
:103AE00083F80423524B0022C3F8F42216E0504B13
:103AF000D3F8F4325B004F4AB2F8022793420FD357
:103B00004B4B052283F80423FFF798FE08E0FFF7EC
:103B10007DFE06E000BF50E100BF4EE100BF4CE17A
:103B200000BF4AE1434B93F8FD26424B93F8FC3625
:103B300019461046FFF788FE51EC100B4FF00002BB
:103B40003D4BFDF7D1F90346002B1BD0384B032228
:103B500083F80223364B012283F80323344A4FF0C3
:103B600000034FF08044C2E98834324BB3F8042795
:103B70002F4BA3F8F8222F4BD3F888362C4AC2F8E3
:103B8000F0321DE12B4B93F8FD262A4B93F8FC36BF
:103B900019461046FFF784FE51EC100B4FF000025F
:103BA000254BFDF7A1F90346002B00D108E1204B7E
:103BB000012283F802231E4B012283F804231C4AAE
:103BC0004FF000031C4CC2E988341A4BB3F80027AD
:103BD000174BA3F8F822174BD3F88436144AC2F8CF
:103BE000F032EDE0124B93F80333013B042B00F26B
:103BF000E68001A252F823F00D3C0000793C000061
:103C0000E93C00002D3D0000A93D0000094B93F860
:103C1000FE36012B02D0032B10D018E0044B0322F8
:103C200083F80323024B0022C3F8F42223E000BFF1
:103C3000981E0020781600200000F03F624B0422FE
:103C400083F80323604B0022C3F8F42213E05E4A9A
:103C50004FF000034FF08044C2E988345B4BB3F867
:103C60000427594BA3F8F822584BD3F88836564A04
:103C7000C2F8F03200BF9FE0544BB3F802371A4647
:103C8000524BB3F80E37D31A7B60504BB3F8023760
:103C90001A467B68934201D900237B607B680C3312
:103CA0003B603B68B3F5803F02D34FF6FF733B6048
:103CB000454BD3F8F4325B003A689A4206D8424B3F
:103CC000052283F80323FFF72DFE70E03F4B93F8A6
:103CD0001038002B6BD03C4B002283F803233A4B67
:103CE000022283F8022362E0384BB3F80E371A46FB
:103CF000354BB3F8F832D31A7B60344BB3F80E3738
:103D00001A467B68934201D900237B602E4BD3F87F
:103D1000F4325B007A689A424BD82B4B022283F82C
:103D20000323294B0022C3F8F42242E0274BB3F8C7
:103D300002371A46244BB3F8F832D31A7B60234B70
:103D4000B3F802371A467B68934201D900237B609F
:103D50001D4BD3F8F4325B003B601C4BB3F81437B7
:103D60001A463B68934214D3184B93F8FD26174B21
:103D700093F8FC3619461046FFF71CFD51EC100B6A
:103D80004FF000024FF00003FDF7AEF80346002BA2
:103D900003D03A687B689A420DD30B4B052283F817
:103DA0000323FFF7BFFD06E0FFF730FD04E000BF8F
:103DB00005E000BF03E000BF01E000BF00E000BF7E
:103DC00000BF0C37BD4690BD981E0020781600201D
:103DD00098B500AFC44B93F80033002B61D1C24BB0
:103DE000012283F80023C04B012283F80123BF4B3B
:103DF000002283F81128BD4B002283F81228BB4B08
:103E000093F8FD36012B06D1B84BD3F88836B64A65
:103E1000C2F8F03205E0B54BD3F88436B24AC2F8A6
:103E2000F032B14BD3F8F0321846FCF77BFD4FF07F
:103E30000002AF4BFCF71AFF03460C4644EC173B5D
:103E4000B0EE470AF0EE670A04F0EEFC54EC103BCB
:103E500018462146FDF790F80246A44BC3F88C267D
:103E6000A24B002283F81328A04B002283F81428C9
:103E70009E4B012283F815289C4B002283F81628BC
:103E80009A4B002283F81728984B012283F81828B0
:103E9000964B002283F81928944B002283F81A28A5
:103EA00044E1914B93F80133022B0ED0032B00F029
:103EB0003981012B00D039E18B4B032283F8012398
:103EC000894B022283F8022330E1874BD3F8E83292
:103ED000082B50D1854B93F8FD26844B93F8FC3684
:103EE00019461046FFF766FC51EC100B4FF000022C
:103EF0004FF00003FCF7F8FF0346002B2ED17A4B5E
:103F0000D3E988014FF000027A4BFCF7EDFF03463E
:103F1000002B23D0744B002283F80523724B03221D
:103F200083F80123704B032283F802236E4B012296
:103F300083F803236C4A4FF000034FF08044C2E93A
:103F400088346A4BB3F80427674BA3F8F822674B11
:103F5000D3F88836644AC2F8F032E2E0624B0022BD
:103F600083F80523604B032283F801235E4B022272
:103F700083F80223D9E05C4B93F80533013B032B14
:103F800000F2D38001A252F823F000BF9D3F000051
:103F900039400000BD400000F9400000534B0122B1
:103FA00083F81528514B002283F814284F4B002228
:103FB00083F813284C4BD3E988014FF000024D4B96
:103FC000FCF792FF0346002B08D0484B012283F8F0
:103FD0001628464B002283F8172807E0434B00229F
:103FE00083F81628414B012283F817283E4BD3F85B
:103FF000F0321846FCF796FC4FF000023C4BFCF701
:1040000035FE03460C4644EC173BB0EE470AF0EE93
:10401000670A04F009FC54EC103B18462146FCF7F3
:10402000ABFF0246314BC3F88C26304B012283F89C
:104030001828FFF74DFB74E02B4BD3E988014FF0B4
:1040400000022C4BFCF750FF0346002B0CD0264BF4
:10405000032283F80523244B0022C3F8F422234BC8
:10406000012283F813285CE01F4BD3E988014FF04D
:1040700000024FF08043FCF737FF0346002B0CD0C3
:10408000194B042283F80523174B0022C3F8F422AE
:10409000164B012283F8142843E0144B002283F8C6
:1040A0001828124B012283F81528104B002283F8A0
:1040B00016280E4B002283F8172832E00A4BD3F85B
:1040C000F4325B00084AB2F8F822934206D3064B5A
:1040D000012283F80523FFF713FB22E0034B0122A3
:1040E00083F813281DE000BF981E002078160020DA
:1040F000000014400000F03F0D4BD3F8F4325B0099
:104100000B4AB2F8F822934206D3094B012283F8F6
:104110000523FFF7F5FA03E0064B012283F8142884
:1041200000BF02E0FFF704FC00E000BF00BF98BD45
:10413000981E00207816002080B582B000AF78600D
:104140007B685B68012B08D17B681B7A002B04D04D
:104150007B681B691846FFF79FF800BF0837BD460C
:1041600080BD80B582B000AF78607868FFF7E4FF6B
:1041700000BF0837BD4680BD80B582B000AF786013
:104180007B681B78002B05D17B6801221A70786848
:10419000FFF7E7FF00BF0837BD4680BD80B582B09E
:1041A00000AF78607B685B68012B0DD17B681B7A60
:1041B000002B09D07B681B691846FEF777FA7B68ED
:1041C0001B691846FEF77CFA00BF0837BD4680BD64
:1041D00080B582B000AF78607868FFF7DFFF00BF7E
:1041E0000837BD4680BD80B582B000AF78607B687F
:1041F0001B78002B05D17B6801221A707868FFF7C5
:10420000E7FF00BF0837BD4680BD80B582B000AF74
:1042100078607B685B68012B08D17B681B7A002B78
:1042200004D07B681B691846FFF71DFA00BF0837EA
:10423000BD4680BD80B582B000AF78607868FFF77A
:10424000E4FF00BF0837BD4680BD80B582B000AF37
:1042500078607B681B78002B05D17B6801221A707F
:104260007868FFF7E7FF00BF0837BD4680BD80B51F
:1042700082B000AF78607B685B68012B08D17B68F7
:104280001B7A002B04D07B689B6A1846FEF7C5FAA0
:1042900000BF0837BD4680BD80B582B000AF7860F2
:1042A0007868FFF7E4FF00BF0837BD4680BD80B5E2
:1042B00082B000AF78607B681B78002B05D17B68EB
:1042C00001221A707868FFF7E7FF00BF0837BD4684
:1042D00080BD80B483B000AF78607B685B68012BE1
:1042E00002D17B6802225A6000BF0C37BD465DF8E0
:1042F000047B704780B582B000AF78607868FFF7C4
:10430000E8FF00BF0837BD4680BD80B582B000AF72
:1043100078607B681B78002B05D17B6801221A70BE
:104320007868FFF7E7FF00BF0837BD4680BD80B55E
:1043300082B000AF78607B685B68012B08D17B6836
:104340001B7A002B04D07B681B691846FFF78BF99A
:1043500000BF0837BD4680BD80B582B000AF786031
:104360007868FFF7E4FF00BF0837BD4680BD80B521
:1043700082B000AF78607B681B78002B05D17B682A
:1043800001221A707868FFF7E7FF00BF0837BD46C3
:1043900080BD80B582B000AF78607B685B68012B20
:1043A0000DD17B681B7A002B09D07B681B691846EE
:1043B000FEF77CFB7B681B691846FEF78DFB00BF90
:1043C0000837BD4680BD80B582B000AF78607868A0
:1043D000FFF7DFFF00BF0837BD4680BD80B582B064
:1043E00000AF78607B681B78002B05D17B680122C9
:1043F0001A707868FFF7E7FF00BF0837BD4680BD39
:1044000080B582B000AF78607B6800221A727B684A
:1044100001225A601A4B4FF0FF32C3F86425184B43
:104420000022C3F86825164BD3F864350A22002110
:104430001448FEF7A9FB02467B681A617B681B697A
:104440004FF4E1311846FEF775FE0D4B012283F85B
:104450006C250B4B002283F86D257B681869084B8F
:1044600093F86D25064B93F86C350821FEF76EFE28
:104470007B6801221A7200BF0837BD4680BD00BFAD
:1044800078160020E01B002080B584B002AF786071
:104490007B6800221A727B6801225A605E4B002200
:1044A00083F86E255C4B0022C3F870255A4BD3F875
:1044B0007025594B93F86E3519461046FEF70AF9E8
:1044C00002467B689A627B68544A5A627B689A6AA1
:1044D0007B685B6A19461046FEF720F94E4B2B228B
:1044E00083F8FE274C4B402283F8FF277B68986AAD
:1044F00000230193002300930223494A1D21FEF764
:1045000058F94FF4FA7006F0AFF8434B2A2283F8BB
:104510000A287B68986A00230193012300930123F2
:10452000404A1D21FEF745F903461A463A4B83F8E7
:104530000A28394B93F80A38002B10D17B68986A07
:1045400001230193002300930123364A1D21FEF726
:10455000FCF8012233493448FDF784FE03E02E4B7A
:10456000002283F809282C4B2A2283F8FE272A4BA5
:1045700093F8093823F00103DAB2274B83F8FF27B9
:104580007B68986A00230193002300930223244A46
:104590001D21FEF70EF9204B0E2283F8FE271E4B3D
:1045A000012283F8FF277B68986A00230193002388
:1045B000009302231A4A1D21FEF7FBF8164B5B22DB
:1045C00083F8FE27144B002283F8FF277B68986A44
:1045D00000230193002300930223114A1D21FEF7BB
:1045E000E8F80D4B2A2283F8FE270B4B012283F8B3
:1045F000FF277B68986A002301930023009302231E
:10460000074A1D21FEF7D5F87B6801221A7200BF08
:104610000837BD4680BD00BF78160020A086010087
:10462000761E0020821E0020811E002080B500AF73
:10463000FFF738F800BF80BD2DE9F0432DED028B68
:1046400093B002AFAC4BD3E93201AC4BD3E90234A7
:104650001A462346FCF748FC0346002B05D1A74B1E
:10466000D3E90234A44AC2E93234A34BD3F8C030B0
:104670002822A3491846FEF77DFD0346FB77282232
:104680009F49A048FDF7EEFD9B4BD3E922019B4BD0
:10469000D3E90A341A462346FCF726FC0346002BCE
:1046A00005D1964BD3E90A34934AC2E92234924B9E
:1046B000D3F880301846FDF7EFFF8F4BD3F88030EA
:1046C000072291491846FDF78BFF8C4B93ED148A16
:1046D0008E4B03F5B063D3E9003418462146FCF74E
:1046E0006BFC07EE900A68EE277A884B03F5D263DD
:1046F000C3ED007A602286498648FDF7B3FD834BFF
:1047000003F5D2631A68814B03F2F4631A607A4BA3
:10471000D3E92A01794BD3E908341A462346FCF73A
:10472000E3FB0346002B05D1744BD3E90834724AEE
:10473000C2E92A34704BD3F8A0301846FDF7ACFF1D
:104740006D4BD3F8A03007226F491846FDF748FF9C
:104750006A4B93ED158A6D4B03F5B063D3E90034D2
:1047600018462146FCF728FC07EE900A68EE277AE7
:10477000664B03F5DF63C3ED007A60226649674844
:10478000FDF770FD614B03F5DF631A685F4B03F2C1
:104790000C531A60584B93F8FA32002B5BD1564BEE
:1047A000012283F8FA22544B012283F8FB22574B53
:1047B000012283F80B28554B002283F80028534B25
:1047C000142283F80128514B502283F802284F4BC2
:1047D00003F5CD63524A1A604C4B03F26C63514AA5
:1047E0001A604A4B03F5CE634FF081421A60474B83
:1047F00003F274634B4A1A60444BC822A3F80E2795
:10480000424BC822A3F81027404BC822A3F8122716
:104810003E4B2822A3F814273C4B782283F8032828
:104820003A4B1E2283F80428384B102283F80528BF
:10483000364B052283F80628344B03F5CF633A4AFA
:104840001A60324B03F27C63374A1A602F4B012205
:1048500083F80728E4E0284B93F8FB32022B14D0AE
:10486000032B23D0012B32D1234B042283F8FB22CC
:10487000264B002283F80C28244B002283F80B28B7
:10488000224B012283F80D28CAE01B4B042283F837
:10489000FB221E4B002283F80C281C4B002283F8BD
:1048A0000B281A4B012283F80D28B9E0124B042281
:1048B00083F8FB22154B002283F80C28134B0022AF
:1048C00083F80B28114B012283F80D28A8E0FB7F09
:1048D000002B40F098800D4B93F81035552B25D1C7
:1048E000054B022283F8FB22084B002283F808289C
:1048F00001F0AEFF93E000BF981E002008000020EA
:10490000B01B0020881B0020F81B00207816002018
:10491000C02000200C1D002020210020241B00208E
:104920000000A0400000204100007042B04B032274
:1049300083F8FB22AF4B012283F80828AD4B93F894
:104940001025AC4B83F80028AA4B93F81125A94BEE
:1049500083F80128A74B93F81225A64B83F8022869
:104960000422A549A548FDF77DFC0422A449A548D9
:10497000FDF778FC0422A449A448FDF773FC042247
:10498000A349A448FDF76EFC0422A349A348FDF700
:1049900069FC0422A249A348FDF764FC0222A24953
:1049A000A248FDF75FFC0222A149A248FDF75AFC8C
:1049B0000222A149A148FDF755FC0222A049A148C5
:1049C000FDF750FC8B4B93F833258A4B83F8032873
:1049D000884B93F83425874B83F80428854B93F84C
:1049E0003525844B83F80528824B93F83625814B77
:1049F00083F806287F4B93F837257E4B83F80728EA
:104A000001F026FF0BE07B4B002283F80C28794B4A
:104A1000002283F80B28774B012283F80D2800BF72
:104A2000734BD3E91201884BD3E906341A46234667
:104A3000FCF75AFA0346002B05D1834BD3E9063421
:104A40006B4AC2E912346A4B1B6C1846FEF794FDA0
:104A500003461A46674B83F80F28654BD3E91A01C2
:104A6000794BD3E904341A462346FCF73DFA034652
:104A7000002B05D1744BD3E904345D4AC2E91A34E2
:104A80005B4B1B6E1846FEF777FD03461A46594BE3
:104A900083F81028574B002283F8FD26554B03223C
:104AA00083F8FC26534B032283F8FE26514B93F8E0
:104AB00000380A2B00F2D78001A252F823F000BF81
:104AC000ED4A0000074B0000214B00003B4B00006B
:104AD000554B00006F4B0000894B0000A34B0000BA
:104AE000BD4B0000D74B00004D4C0000414B002255
:104AF00083F8FD263F4B032283F8FC263D4B03221F
:104B000083F8FE26AFE03B4B002283F8FD26394BAD
:104B1000002283F8FC26374B012283F8FE26A2E010
:104B2000344B002283F8FD26324B032283F8FC2607
:104B3000304B032283F8FE2695E02E4B002283F8AB
:104B4000FD262C4B002283F8FC262A4B012283F8F9
:104B5000FE2688E0274B012283F8FD26254B032201
:104B600083F8FC26234B032283F8FE267BE0214BAF
:104B7000012283F8FD261F4B012283F8FC261D4BE2
:104B8000012283F8FE266EE01A4B012283F8FD26EF
:104B9000184B032283F8FC26164B032283F8FE26CB
:104BA00061E0144B012283F8FD26124B012283F8A9
:104BB000FC26104B012283F8FE2654E00D4B022206
:104BC00083F8FD260B4B032283F8FC26094B0322B6
:104BD00083F8FE2647E0074B022283F8FD26054BAB
:104BE000032283F8FC26034B032283F8FE263AE0D7
:104BF000981E0020781600208B1B0020E01C00204F
:104C00008F1B0020E41C0020931B0020F01C0020C0
:104C1000971B0020E81C00209B1B0020EC1C0020A0
:104C20009F1B0020F41C0020A31B0020861D0020D9
:104C3000A51B0020881D0020A71B00208A1D002026
:104C4000A91B00208C1D002008000020BC4B022264
:104C500083F8FD26BA4B022283F8FC26B84B0222C9
:104C600083F8FE2600BFB64B03F26C631B68184640
:104C7000FBF77AFE03460C4644EC103B07F070FF4E
:104C800054EC103B18462146FCF796F90346FB62AC
:104C9000D7ED0B7A9FEDAB7AF4EEC77AF1EE10FA0E
:104CA00030D5D7ED0B7AB6EE007AF4EEC77AF1EE96
:104CB00010FA1BDBA24B03F26C63D3ED007AB6EE65
:104CC000007A77EE877A17EE900AFBF74DFE0346DF
:104CD0000C4644EC103B07F04FFF54EC103B1846D9
:104CE0002146FCF769F90346FB6210E0944B03F29E
:104CF0006C63D3ED007A9FED947A67EE877AC7ED07
:104D00000B7A04E08E4B03F26C631B68FB6297ED39
:104D10000B0A03F06DFD0346002B06D197ED0B0A3D
:104D200003F00AFD0346002B03D04FF00003FB62A3
:104D300012E0F86AFBF718FE03460C469FED7C1B59
:104D400044EC103B07F0A0FF54EC103B1846214602
:104D5000FCF732F90346FB62D7ED0B7AF5EEC07A29
:104D6000F1EE10FA0BD5D7ED0B7AF1EE677AFCEE87
:104D7000E77A17EE903A9BB25B429BB206E0D7ED22
:104D80000B7AFCEEE77A17EE903A9BB26C4AA2F8E7
:104D900000376E4B93ED167A694B03F5CD63D3ED77
:104DA000007A67EE277AB0EE670A03F0B7FDF0EEFF
:104DB000407AC7ED0B7A97ED0B0A03F019FD034615
:104DC000002B06D197ED0B0A03F0B6FC0346002B2F
:104DD00003D04FF00003FB6212E0F86AFBF7C4FD5A
:104DE00003460C469FED541B44EC103B07F04CFF70
:104DF00054EC103B18462146FCF7DEF80346FB62F4
:104E0000D7ED0B7AF5EEC07AF1EE10FA0AD5D7EDB0
:104E10000B7AF1EE677AFCEEE77A17EE903A5B4296
:104E20001A4605E0D7ED0B7AFCEEE77A17EE902AEA
:104E3000434BC3F88426464BD3E90401434BD3E9E3
:104E40000C341A462346FCF74FF80346002B05D1D5
:104E50003E4BD3E90C343E4AC2E904340123FB77CC
:104E60003B4B986A07F11F02002301930123009333
:104E700001231D21FDF79DFC0346FB77FB7F002BE3
:104E800068D1334B986A07F1100201230193002384
:104E9000009306231D21FDF758FC07F1100107F1CF
:104EA000180306221846FDF7DDF907F1180107F18E
:104EB0000C0302221846FDF7D5F97B7B3B723B7B46
:104EC0007B7207F1080107F1180302221846FDF76B
:104ED000C9F907F11803991C07F10C0302221846BF
:104EE000FDF7C0F97B7B3B723B7B7B7207F10801CE
:104EF00007F11803023302221846FDF7B3F907F150
:104F00001803191D07F10C0302221846FDF7AAF930
:104F10007B7B3B723B7B7B7207F1080107F1180337
:104F2000043302221846FDF79DF919E0AFF3008023
:104F3000000000000000F040000000000000F04110
:104F4000781600200000004B000000000800002040
:104F5000981E002000233B8300237B830023BB8318
:104F6000B7F918309B101BB21846FBF7EBFC024652
:104F70000B46FBF79BFB03460C461846214696A3BF
:104F8000D3E90023FBF748FD03460C4618462146AB
:104F90004FF00002924BFBF769FE03460C46914A24
:104FA00002F5B062C2E900348E4B03F5B063D3E979
:104FB00000018C4B03F5B063D3E900341A46234655
:104FC000FBF72AFD03460C46C7E90C34B7F91A3043
:104FD0009B101BB21846FBF7B5FC02460B46FBF7CD
:104FE00065FB03460C46184621467BA3D3E9002304
:104FF000FBF712FD03460C46184621464FF000020F
:10500000774BFBF733FE03460C46764A02F5B06257
:10501000C2E90034734B03F5B063D3E90001714B6F
:1050200003F5B063D3E900341A462346FBF7F4FCDA
:1050300003460C46C7E90834B7F91C309B101BB275
:105040001846FBF77FFC02460B46FBF72FFB034697
:105050000C461846214660A3D3E90023FBF7DCFC8D
:1050600003460C46184621464FF000025C4BFBF706
:10507000FDFD03460C465B4A02F5B062C2E900340E
:10508000584B03F5B063D3E90001564B03F5B06309
:10509000D3E900341A462346FBF7BEFC03460C4610
:1050A000504A02F5B062C2E90034D7E90823D7E9D3
:1050B0000C01FBF7FBFA03460C4618462146494B08
:1050C00003F5B063D3E900341A462346FBF7EEFA42
:1050D00003460C4644EC173BB0EE470AF0EE670A75
:1050E00007F03AFEB0EE407AF0EE607A3D4B03F501
:1050F000B06383ED007B3C4B93F8FD32062B07D861
:10510000394B93F8FD320133DAB2374B83F8FD2285
:10511000354B93F8FC32002B1CD1334B012283F822
:10512000FC22314B002283F8FD224FF4C4722D493A
:105130002E48FDF797F84FF4C4722C492C48FDF720
:1051400091F8284B03F5B063D3E90034254AC2E94E
:10515000003431E0244B93F8FD32042B18D9224B54
:10516000002283F8FD224FF4C4721E491F48FDF748
:1051700079F84FF4C4721D491D48FDF773F8194BB7
:1051800003F5B063D3E90034164AC2E9003413E0F2
:105190004FF4C47213491548FDF764F84FF4C47214
:1051A00012491348FDF75EF80E4B03F5B063D3E9DF
:1051B00000340C4AC2E900340A4BD3E90034094AEE
:1051C00002F5B062C2E90034064BD3E90034C7E906
:1051D0000C340023FB635EE008AC1C5A643BCF3FF9
:1051E00000408F4078160020981E002008180020EC
:1051F00080160020FB6B0133A04ADB001344D3E987
:105200000034C7E908349D4B03F5B063D3E900349B
:10521000012290461A462346D7E90801FBF76EFEA5
:105220000346002B01D1002398465FFA88F383F0F0
:105230000103DBB2002B0DD097ED080B03F0A2FAAF
:105240000346002B06D18D4B03F5B062D7E9083435
:10525000C2E9003401231C46D7E90823D7E90C0131
:10526000FBF74CFE0346002B01D100231C46E3B2A2
:1052700083F00103DBB2002B0AD097ED080B03F09B
:1052800081FA0346002B03D1D7E90834C7E90C346F
:10529000FB6B0133FB63FB6B302BABDD774B03F513
:1052A000B063D3E90001D7E90C23FBF7FDF903460E
:1052B0000C46C7E90C34724B93F860301A466F4BBA
:1052C00093F8053803FB02F31846FBF73BFB4FF05E
:1052D00000026C4BFBF7A0FB03460C461846214628
:1052E000D7E90C23FBF798FB03460C469846A146EA
:1052F000624B93F801381846FBF714FB03460C4643
:105300001A46234640464946FBF7D0F903460C4669
:105310005A4A02F5B062C2E90034584B03F5B06353
:10532000D3E90089554B93F803381846FBF70AFB7D
:105330000A46014601231C4613460A464046494692
:10534000FBF7DCFD0346002B01D100231C46E3B232
:1053500083F00103DBB2002B0CD0484B93F80338E9
:105360001846FBF7DFFA03460C46444A02F5B062E2
:10537000C2E90034414B93F80328404B93F80138BD
:10538000D31ADBB2FB773D4B93F80438002B07D0E0
:10539000FA7F3A4B93F80438B2FBF3F3DBB200E048
:1053A000FF23FB63364B93F861301A46334B93F877
:1053B000073803FB02F31846FBF7C4FA4FF000026C
:1053C000314BFBF729FB03460C461A462346D7E927
:1053D0000C01FBF769F903460C46C7E90C342B4B6B
:1053E000D3F8EC32B3F1FF3F06D0284BD3F8EC32C0
:1053F0000133264AC2F8EC32244B93F8FE32002BDC
:1054000027D1224B012283F8FE22204B022283F86F
:10541000FF221A4B93F801381846FBF783FA03462C
:105420000C46164A02F5AF62C2E90034174A4FF043
:1054300000034FF00004C2E98434144A4FF0000323
:105440004FF00004C2E986340C4B002283F80E288A
:1054500072E20E4B93F8FF32013B042B00F21F82E5
:1054600001A252F823F000BF915400002D55000016
:105470003F550000DB5500006956000078160020FB
:10548000080000200000903F0000703F981E0020A0
:10549000C34A4FF000034FF00004C2E98634C04B0A
:1054A000D3F8EC327B60BF4B03F5AF63D3E9003434
:1054B0001A4623464FF00000BB49FBF7D7FB0346D3
:1054C0000C46184621464FF00002B84BFBF7A4FAF1
:1054D00003460C4644EC173BB0EE470AF0EE670A71
:1054E00007F0B6FA54EC103B18462146FBF744FD92
:1054F00003467A689A42C0F01882A94BD3F8EC327E
:105500001846FBF70FFAA4A3D3E90023FBF784FAAC
:1055100003460C46A24AC2E98434A14B052283F813
:10552000FF22A04B002283F80E28FEE19C4B0522AF
:1055300083F8FF229B4B002283F80E28FCE1984A57
:105540004FF000034FF00004C2E98434944BD3F8C9
:10555000EC327B60934B03F5AF63D3E900341A461A
:1055600023464FF000009049FBF780FB03460C46B2
:10557000184621464FF000028C4BFBF74DFA0346CC
:105580000C4644EC173BB0EE470AF0EE670A07F012
:105590005FFA54EC103B18462146FBF7EDFC03463E
:1055A0007A689A42C0F0C3817D4BD3F8EC3218463A
:1055B000FBF7B8F978A3D3E90023FBF72DFA0346EC
:1055C0000C46774AC2E98634754B052283F8FF22E0
:1055D000744B002283F80E28A9E1714BD3F8EC320A
:1055E0007B60704B03F5AF63D3E900341A46234662
:1055F0004FF000006C49FBF739FB03460C46184698
:1056000021464FF00002694BFBF706FA03460C46B1
:1056100044EC173BB0EE470AF0EE670A07F018FAC1
:1056200054EC103B18462146FBF7A6FC03467A686B
:105630009A42C0F07E815A4BD3F8EC321846FBF701
:1056400071F955A3D3E90023FBF7E6F903460C46AD
:10565000534AC2E98634524B052283F8FF22514B4C
:10566000002283F80E2864E14FF000024FF000039F
:10567000D7E90C01FBF74CFC0346002B00F09A80A5
:10568000484B93F80638002B11D0FA7F454B93F81E
:105690000638B2FBF3F3DBB21846FBF743F94FF0E1
:1056A0000002414BFBF7E2FA03460C4602E04FF0E2
:1056B00000033F4C3B4A02F5B062C2E90034394B6B
:1056C00003F5AF63D3E90089364B03F5B063D3E943
:1056D0000001334BD3E986341A462346FBF79CF985
:1056E00003460C461A46234640464946FAF7DCFF75
:1056F00003460C469846A1462A4B93F801381846B3
:10570000FBF720F903460C461A4623464046494615
:10571000FBF7FEFB0346002B15D0214B042283F838
:10572000FF221F4B0022C3F8EC221E4B93F80138D6
:105730001846FBF7F7F803460C461A4A02F5AF6223
:10574000C2E90034F8E0164B032283F8FF22144B21
:105750000022C3F8EC22134B03F5AF63D3E90089B1
:10576000104B03F5B063D3E900010D4BD3E9863448
:105770001A462346FBF750F903460C461A462346C1
:1057800040464946FAF790FF03460C46054A02F5A3
:10579000AF62C2E90034CFE0FCA9F1D24D62603FB4
:1057A000981E00207816002000004E4000407F40E8
:1057B000000011404FF000024FF00003D7E90C0148
:1057C000FBF7BAFB0346002B64D0F86BFBF7BAF883
:1057D000B94BD3E984341A462346FBF71DF9034637
:1057E0000C4618462146B54B03F5AF63D3E90034A8
:1057F0001A462346FAF75AFF03460C461846214636
:10580000AE4B03F5B063D3E900341A462346FBF7E9
:1058100089FB0346002B12D0A74B062283F8FF22F8
:10582000A54B0022C3F8EC22A44B03F5B063D3E9E7
:105830000034A24A02F5AF62C2E900347CE09F4B1B
:10584000012283F80E289C4B012283F8FF229A4BF9
:105850000022C3F8EC22994B03F5AF63D3E900892A
:10586000F86BFBF76FF8944BD3E984341A46234660
:10587000FBF7D2F803460C461A46234640464946F3
:10588000FAF714FF03460C468C4A02F5AF62C2E9F0
:10589000003451E0894B002283F80E284CE0864BFF
:1058A000D3F8EC327B60854B03F5AF63D3E900346A
:1058B0001A4623464FF000008149FBF7D7F903460B
:1058C0000C46184621464FF000027E4BFBF7A4F829
:1058D00003460C4644EC173BB0EE470AF0EE670A6D
:1058E00007F0B6F854EC103B18462146FBF744FB92
:1058F00003467A689A421ED36F4BD3F8EC321846AF
:10590000FBF710F868A3D3E90023FBF785F80346FB
:105910000C46694AC2E98434674B052283F8FF22AA
:10592000664B002283F80E2805E000BF04E000BFAC
:1059300002E000BF00E000BF604B03F5AF63D3E9B6
:1059400000341A4623464FF000005F49FBF78EF9FA
:1059500003460C46184621465C4BD3E90E341A46E2
:105960002346FBF759F803460C4644EC173BB0EED0
:10597000470AF0EE670A07F0FFF8B0EE407AF0EE63
:10598000607A4E4B03F5B06383ED007B4B4B03F520
:10599000B06393ED007BB0EE470AF0EE670A02F0C9
:1059A000F1FE0346002B0DD1444B03F5B06393ED9C
:1059B000007BB0EE470AF0EE670A02F095FE034660
:1059C000002B09D03D4B03F5B0624FF000034FF0C0
:1059D0000004C2E9003415E0384B03F5B06393EDE1
:1059E000007B9FED331BB0EE470AF0EE670A07F02D
:1059F0004BF9B0EE407AF0EE607A304B03F5B063CD
:105A000083ED007B2D4B03F5B063D3E900014FF02C
:105A100000024FF00003FBF771FA0346002B10D091
:105A2000264B03F5B063D3E900341D4684F00046ED
:105A300028463146FBF7A0FA03469BB25B429BB275
:105A40000AE01E4B03F5B063D3E900341846214643
:105A5000FBF792FA03469BB2184AA2F802371B4B97
:105A600093ED177A154B03F5CE63D3ED007A67EE0D
:105A7000277AB0EE670A02F051FFF0EE407AC7EDE8
:105A80000B7A97ED0B0A02F0B3FE0346002B06D10A
:105A900097ED0B0A02F050FE0346002B18D04FF092
:105AA0000003FB6227E000BFFCA9F1D24D62603F1A
:105AB000000000000000F040981E00207816002032
:105AC00000004E4000407F400000F03F08000020F2
:105AD000F86AFAF749FF03460C469FEDAF1B44EC0A
:105AE000103B07F0D1F854EC103B18462146FBF769
:105AF00063FA0346FB62D7ED0B7AF5EEC07AF1EE5E
:105B000010FA0AD5D7ED0B7AF1EE677AFCEEE77A58
:105B100017EE903A5B421A4605E0D7ED0B7AFCEEA1
:105B2000E77A17EE902AA04BC3F888269E4B03F223
:105B300074631B681846FAF717FF03460C4644ECDB
:105B4000103B07F00DF854EC103B18462146FBF7CC
:105B500033FA0346FB62D7ED0B7A9FED947AF4EEAD
:105B6000C77AF1EE10FA30D5D7ED0B7AB6EE007A9F
:105B7000F4EEC77AF1EE10FA1BDB8B4B03F2746381
:105B8000D3ED007AB6EE007A77EE877A17EE900AB8
:105B9000FAF7EAFE03460C4644EC103B06F0ECFF35
:105BA00054EC103B18462146FBF706FA0346FB620D
:105BB00010E07D4B03F27463D3ED007A9FED7C7AA5
:105BC00067EE877AC7ED0B7A04E0774B03F27463D4
:105BD0001B68FB6297ED0B0A02F00AFE0346002BDE
:105BE00006D197ED0B0A02F0A7FD0346002B03D068
:105BF0004FF00003FB6212E0F86AFAF7B5FE0346C5
:105C00000C469FED671B44EC103B07F03DF854EC4D
:105C1000103B18462146FBF7CFF90346FB62D7ED50
:105C20000B7AF5EEC07AF1EE10FA0BD5D7ED0B7AC0
:105C3000F1EE677AFCEEE77A17EE903A9BB25B42A0
:105C40009BB206E0D7ED0B7AFCEEE77A17EE903ABE
:105C50009BB2554AA2F80437564BD3F8F432B3F14D
:105C6000FF3F06D0534BD3F8F4320133514AC2F808
:105C7000F432504B4FF0FF32C3F8E822FEF7A8F899
:105C80004C4BD3F81C21484B93F811381946104659
:105C9000FDF7AAFC474BD3F8E040434BD3F88C36D2
:105CA0001846FAF73FFE02460B4643EC102B2046FF
:105CB000FCF7BEFE3F4BD3F830213B4B93F8123834
:105CC00019461046FDF790FC3A4BD3F84421364B69
:105CD00093F8133819461046FDF786FC354BD3F878
:105CE0005821314B93F8143819461046FDF77CFCC7
:105CF000304BD3F86C212C4B93F8153819461046CD
:105D0000FDF772FC2B4BD3F88021274B93F8163804
:105D100019461046FDF768FC264BD3F89421224B18
:105D200093F8173819461046FDF75EFC214BD3F85F
