:1000000000000020F5040000FB2A0000012B000086
:10001000072B00000D2B0000132B00000000000038
:100020000000000000000000000000006505000066
:10003000192B0000000000000B0600006B060000FA
:100040008929000097290000A5290000B329000094
:10005000C1290000CF290000DD290000EB290000A4
:10006000F9290000072A0000152A0000232A0000B1
:10007000312A00003F2A00004D2A00005B2A0000C0
:10008000692A00001F2B0000252B00002B2B0000ED
:10009000312B0000372B00003D2B0000432B0000CC
:1000A000492B00004F2B0000552B00005B2B00005C
:1000B000612B0000672B00006D2B0000772A0000E9
:1000C000732B0000852A0000792B0000932A000082
:1000D0007F2B0000A12A0000852B00008B2B000045
:1000E000912B0000972B00009D2B0000A32B0000FC
:1000F000A92B0000AF2B0000B52B0000BB2B00008C
:1001000005050000050500000505000005050000C7
:10011000C12B0000C72B0000CD2B0000D32B00000B
:10012000D92B0000DF2B0000E52B0000EB2B00009B
:10013000F12B0000F72B0000FD2B0000032C00002A
:10014000092C00000F2C0000AF2A0000152C000025
:10015000BD2A00001B2C0000212C0000272C0000D1
:100160002D2C0000332C0000392C00003F2C000007
:10017000452C00004B2C0000512C0000572C000097
:100180005D2C0000050500000505000005050000C8
:100190000505000005050000050500000505000037
:1001A0000505000005050000050500000505000027
:1001B0000505000005050000050500000505000017
:1001C0000505000005050000050500000505000007
:1003F000050500000505000005050000FFFFFFFFE3
:10040000FFFFFFFFFFFFFFFFFFFFFFFFFEFFFFFFFD
:1004400010B5054C237833B9044B13B10448AFF30E
:1004500000800123237010BD780B002000000000F5
:10046000E48E000008B5034B1BB103490348AFF30A
:10047000008008BD000000007C0B0020E48E00001E
:10048000154B002B08BF134B9D46A3F5803A002166
:100490008B460F461348144A121A05F0BDFF0F4B46
:1004A000002B00D098470E4B002B00D0984700201F
:1004B000002104000D000D48002802D00C4805F072
:1004C00089FC05F0D1FC2000290002F039FA05F082
:1004D0008DFC00BF000008000000002000000000AC
:1004E00071260000780B0020DC3C0020D55D000068
:1004F0000D5E000072B602F039FD02F0D1FC62B66A
:10050000FFF7BEFFFFF7FEBF80F309887047EFF3E8
:1005100009807047684680F309885A480078C00708
:1005200014BF0220032080F314887047DFF858C1FD
:10053000EFF305831B0618BF6047EFF31483DB0757
:1005400008BF604700DF7047DFF840C1EFF3058365
:100550001B0618BF6047EFF31483DB0708BF604733
:1005600000DF7047EFF30980816911F8021CE1BBDD
:1005700090E80F1010B5E047BDE81040EFF3098C8C
:100580008CE80700424B93E80600914208BF704791
:1005900041B91EF0100F16D13E49086820F0010045
:1005A000086010E01EF0100F06BF2CED108A01202D
:1005B000002081F825002CE9F00FC1F828C00CB408
:1005C00004F0B2F80CBC1A60D2F828C0BCE8F00FF6
:1005D00092F8250000280EBF6FF0020E6FF0120E89
:1005E000BCEC108A8CF30988704710B52A4A12684F
:1005F000914209D8294C54F8214090E80F10A047A7
:10060000EFF3098C8CE80F0010BD10B504F010F862
:10061000BDE810401E4B93E80600914208BF7047AA
:10062000EFF3098C1EF0100F06BF2CED108A01208D
:10063000002081F825002CE9F00FC1F828C00CB487
:1006400004F072F80CBC1A60D2F828C0BCE8F00FB5
:1006500092F8250000280EBF6FF0020E6FF0120E08
:10066000BCEC108A8CF30988704710B504F03EF892
:10067000FFF7CEBF10B504F037F804F037F8FFF7F6
:10068000C7BF000034880000B53F0000D13F000024
:10069000783C002034EF00E000000000FCFFFFFF8A
:1006A0004FF0FF3C06E000BF4FF0010C02E000BF3E
:1006B0004FF0010C4DF804CD4FEA410C7FEA6C5C21
:1006C0004FEA430C18BF7FEA6C5C1BD001B050EAC4
:1006D000410C0CBF52EA430C91EA030F02BF90EAAF
:1006E000020F0020704710F1000F91EA030F58BF6E
:1006F000994208BF90422CBFD8176FEAE37040F0D0
:10070000010070474FEA410C7FEA6C5C02D150EA6D
:10071000013C07D14FEA430C7FEA6C5CD6D152EA28
:10072000033CD3D05DF8040B704700BF84461046ED
:1007300062468C461946634600E000BF01B5FFF7EC
:10074000B7FF002848BF10F1000F01BD4DF808EDBC
:10075000FFF7F4FF0CBF012000205DF808FB00BF8D
:100760004DF808EDFFF7EAFF34BF012000205DF8E7
:1007700008FB00BF4DF808EDFFF7E0FF94BF012034
:1007800000205DF808FB00BF4DF808EDFFF7CEFF35
:1007900094BF012000205DF808FB00BF4DF808ED74
:1007A000FFF7C4FF34BF012000205DF808FB00BF45
:1007B00053B94AB9002908BF00281CBF4FF0FF31C8
:1007C0004FF0FF3001F0F8B8ADF1080C6DE904CE40
:1007D00000F006F8DDF804E0DDE9022304B070471C
:1007E0002DE9F047089E04468846002B4BD18A42EB
:1007F000154667D9B2FA82F24AB1C2F1200701FA6E
:1008000002F320FA07F7954047EA030894404FEABD
:10081000154E230CB8FBFEF71FFA85FC0EFB17885C
:1008200043EA084307FB0CF1994209D9EB1807F199
:10083000FF3080F01B81994240F21881023F2B4427
:100840005B1AA4B2B3FBFEF00EFB103344EA034480
:1008500000FB0CFCA44509D92C1900F1FF3380F0F2
:100860000781A44540F2048102382C4440EA074045
:10087000A4EB0C0400271EB1D4400023C6E90043BA
:100880003946BDE8F0878B4209D9002E00F0EB8095
:100890000027C6E9000138463946BDE8F087B3FABB
:1008A00083F7002F47D18B4202D3824200F2FA80B5
:1008B000841A61EB030301209846002EE0D0C6E9BC
:1008C0000048DDE702B9FFDEB2FA82F2002A40F00A
:1008D0008F80491B4FEA154E1FFA85F80127B1FB9F
:1008E000FEFC230C0EFB1C1143EA014308FB0CF138
:1008F000994207D9EB180CF1FF3002D2994200F26D
:10090000CD808446591AA3B2B1FBFEF00EFB101441
:1009100043EA044408FB00F8A04507D92C1900F16C
:10092000FF3302D2A04500F2B6801846A4EB0804BB
:1009300040EA0C409FE7C7F1200CBB4022FA0CFEB6
:100940004EEA030E01FA07F420FA0CF521FA0CF333
:100950004FEA1E482543B3FBF8F92C0C08FB19336A
:100960001FFA8EFA44EA034309FB0AF49C4202FA96
:1009700007F200FA07F10BD91EEB030309F1FF3070
:1009800080F087809C4240F28480A9F10209734480
:100990001B1BADB2B3FBF8F008FB103345EA034470
:1009A00000FB0AFAA24508D91EEB040400F1FF334C
:1009B0006BD2A24569D90238744440EA0940A0FBD1
:1009C0000289A4EB0A044C45C2464B4654D351D08D
:1009D000002E69D0B1EB0A0564EB030404FA0CFCA9
:1009E000FD40FC404CEA0505C6E90054002747E7F6
:1009F000C2F1200320FA03F7954001FA02F021FA30
:100A000003F34FEA154E3843010CB3FBFEF71FFA10
:100A100085F80EFB173341EA034107FB08F38B42CD
:100A200004FA02F407D9691807F1FF3C2FD28B4270
:100A30002DD9023F2944CB1A81B2B3FBFEF00EFB45
:100A4000103341EA034100FB08F38B4207D96918D0
:100A500000F1FF3C17D28B4215D902382944C91A3C
:100A600040EA07473BE73746304609E70746E7E6EF
:100A70001846FBE64145ABD2B8EB020A69EB0E0221
:100A800001381346A4E76046E9E7184695E767464C
:100A9000D1E781467CE702382C4447E7ACF1020CF1
:100AA0002B442FE7384608E73746E9E603685A0043
:100AB0004CBF43F0004323F000431844704700BF8D
:100AC00061B32DE9F84F01F1FF3A90460646D14651
:100AD000002707EB090404EBD4746410E5007119D6
:100AE0000846FFF7E3FFA245834605F108003044BE
:100AF00009D0FFF7DBFFC34500F1FF3005D84045C3
:100B000009D2671CE5E7C34505D9A74202D004F125
:100B1000FF39DEE700210846BDE8F88F0846704738
:100B2000012807D0022807D0044B00280CBF184624
:100B30000020704702487047024870470D120000BD
:100B4000111200001512000030B5254B83B0044689
:100B50008D1E4BB301A92846AFF30080F0B1019977
:100B60002A46FFF7ADFF0146C0B1FFF79FFF4B6874
:100B7000A064012B2ED0002B01F1040026DBFFF72F
:100B800095FF0023C4E913030368002B12DBFFF772
:100B90008DFF00232061184603B030BD0023236180
:100BA0000923184603B030BD0E490F48091AC91071
:100BB0000191D5E7C3F30360FFF7B2FF002814BF2C
:100BC000002309232061184603B030BD0123C4E986
:100BD0001303D9E7002323610523184603B030BD72
:100BE00000000000B8920000A09000000368DA073F
:100BF00010B5044606D49B0700F1480009D500F063
:100C00005FFC2368590709D51A070ED5DB0613D5F3
:100C100010BD00F04DFC23685907F5D404F1D00055
:100C200000F056FC23681A07F0D404F5A87000F011
:100C300057FC2368DB06EBD404F5E870BDE81040F0
:100C400000F092BC036803B103441846704700BF2C
:100C500009207047704700BF70B504460D4608E094
:100C60002B6C63612A462369214601209847082896
:100C700008D1296C2046FFF767FF06460028EFD011
:100C800005F082F80728FBD13046296CFFF7E2FF18
:100C9000281D00F001FC00BF2DE9F0470C1D0546A2
:100CA00017460FCCADF5727D03AE0FC60FCC0FC645
:100CB0000FCC0FC694E80F0002ACD5F80C80D5F825
:100CC000189086E80F000023236021E0236C6B61FD
:100CD0004FF4F07221467AA800F070FE2B697AAAD0
:100CE000294630469847889BCDE90049824663648F
:100CF00031462B462A460120C0470746F8B94FF433
:100D0000F0727AA9204600F059FEBAF1080F1CD102
:100D1000216C2846FFF718FF002F08BF0926074659
:100D200018BF0A260028D1D0A36B46F01001CDE9E8
:100D300000492A46636401202B46C04700B10927B9
:100D400038460DF5727DBDE8F087BAF1070FF6D190
:100D50003846216CFFF77EFF03A800F09DFB00BF23
:100D6000406C7047F0B5CB6B0B640D1D0F4606460B
:100D70000FCDF9B001AC0FC40FCD0FC40FCD0FC410
:100D800095E80F004FF0FF3584E80F00009506E06E
:100D900033696A46314698470828044608D11099B5
:100DA0003046FFF7D1FE0028F2D0092079B0F0BD1F
:100DB0006846FFF71BFF062CF7D139463046FFF790
:100DC0004BFF00BF30B4DD6BC160826119461D640A
:100DD000002230BC60E700BF70B5C66843690B6491
:100DE000BEB903690A4604460D46014602209847EB
:100DF000072807D0082803D129462046FFF72CFFF3
:100E000004F0C2FF3046296CFFF724FF281D00F0D4
:100E100043FB0122FFF740FF04F0B6FFC2681AB19E
:100E2000CA6B0A64002237E79CE700BF704700BF27
:100E3000836813B10146012018477047042907D879
:100E4000DFE801F00308060808000BB90F2A03D9F0
:100E5000022070470120704700EB82021846536859
:100E6000009A1360704700BF10B584B0002303AC34
:100E70000A4600941946FFF7E1FF039804B010BD3D
:100E8000042907D8DFE801F00308060808000BB9B9
:100E90000F2A03D9022070470120704700EB82001F
:100EA000009A126842601846704700BF10B584B0BF
:100EB00004AC002344F8042D0A4600941946FFF7B9
:100EC000DFFF04B010BD00BFF0B5D36B1364151D78
:100ED00007460E460FCDADF50F7D17AC0FC40FCDF5
:100EE0000FC40FCD0FC495E80F004FF0FF3584E815
:100EF0000F00169510E016A8FFF7D8FF314616A888
:100F0000B84716AA694678B9049B0820984705286F
:100F100004460AD0092807D026996846FFF714FE30
:100F20006A460C210028E6D0092416A8FFF75EFEC9
:100F300020460DF50F7DF0BD2DE9F04F0D46C96C33
:100F400089B00C1D164600F0030B0A6806941F4674
:100F5000002B68D0130CD9B212048DF81D30022377
:100F600004EB810405928DF81C302B6DBBF1020F50
:100F700008BFAC6B13F0010346D1019300F00803E6
:100F80000093D4F80090B9F1000F00F0F380022F25
:100F900045D0B4F80090B4F802800434AB6C28F06B
:100FA000010A0F2130469A44FFF75EFF824534D88C
:100FB00029F001035344834294BF002001204FEAEB
:100FC000480808F0020809F0010948EA0908B8F1E0
:100FD000010F3AD031D3B8F1020F1AD1236823F0B0
:100FE000004ABBF1000F66D130B1009A002A6CD0E4
:100FF000BAF1000F00F09080002B00DA04340AF1FF
:10100000010304EB8304BCE7304605A900F046FB6E
:1010100078B1092009B0BDE8F08F0020CFE7D4F8FF
:1010200004800834BAE7120203230592ADF81C309D
:101030009BE7082009B0BDE8F08FBBF1000F02D09C
:10104000002840F0B48004349BE7BBF1000F18D1B6
:10105000A8B1D4E90023991C4FEAD272D9D005F186
:1010600058010133049100F0B580201DFFF7EAFD1F
:1010700004AB01462846AFF30080002867D108344E
:101080007FE70D213046D5F82080FFF7EDFE804543
:10109000F5D1AB6A9C42F2D12046FFF707FD0F2144
:1010A00002463046FFF702FF30462A460021FFF78E
:1010B000FDFE0720AEE70D213046D5F82080FFF772
:1010C000D3FE804532D0236896E7BAF1000F23D0D3
:1010D00005F1580304F10408CDF808B0DDF80090DC
:1010E0000397A3461C4602E05745B94640D0404608
:1010F0000494FFF7A7FD04AB014600222846AFF396
:10110000008009F1010708F104080028ECD0D1455E
:101110005C46DDE902B7D6D130460D21FFF7A4FECB
:10112000049B2862C5E90934062073E7AB6A9C4238
:10113000C9D104224FF00008A318C5E90AA8C5E9DF
:101140000C23236843454DDB0123019357E7804679
:101150000D213046FFF788FEB8F1020F28623ED11C
:101160002B46049A43F82C2F6B62AC62062051E7A1
:101170005C46D1E705A9304600F090FA00287FF4DC
:1011800048AF019B002B3FF454AF0F213046FFF7CF
:101190006BFE0E2102463046FFF788FE30461A4AA3
:1011A0000F21FFF783FE072009B0BDE8F08F20462E
:1011B000FFF77CFC04340746AC632846AFF300809D
:1011C00000283FF426AF30463A460F21FFF76EFE67
:1011D00007201FE730460D21FFF746FE2862049BDB
:1011E0006B62C2E70AF1010004EB8000FFF75EFCCE
:1011F0000F2102463046FFF759FE30462A46414647
:10120000FFF754FE072005E700000000002393E6E7
:10121000012391E602238FE62DE9F0410546C4B093
:10122000042906D8DFE801F04D2B05030900032B44
:101230005FD0022044B0BDE8F081002BF9D1102A24
:10124000F7D82B68DC0600F1F48022AC204601922E
:1012500000F094F9A86B019A0023012606FA03F125
:10126000114203D0016844F8231004300133042BE9
:10127000F4D1A863204600F077F90020DAE7012BCB
:101280004FEA124697B252D0052BD2D106EB07088F
:10129000B8F1200FCDD80F2E40F29980B846002F1C
:1012A00040F0DB80AA6BAA630F2E40F2BE80B8F13B
:1012B000000F02D002A800F00BF9002044B0BDE8F6
:1012C000F081002BB5D1AC6B97B2281D012606FA30
:1012D00003F1394203F1010302D0216801600434B3
:1012E000102B00F10400F2D112F40050E5D1AC63F0
:1012F000A0E7160C97B2F319102B9AD82B681A078F
:101300005DD422AC204600F00DF904EBC601AB6BB6
:101310003FB103EBC702186841F8040B0433934252
:10132000F9D12046AB6300F0DBF8002082E7F21928
:10133000102A3FF67EAF0F2E3FF67BAF2A68D1070B
:1013400008D5284622F0030240F8482B019300F00C
:10135000B3F8019B019322AC204600F0ADF8A96BD5
:10136000019B002F00F095807F0004EBC6044FF036
:101370000008043C01EB870251F8040B44F8040F09
:101380009142F9D1B8F1000F0FD002AC102E3146C6
:1013900038BF102104EBC101843902EBC80452F8B4
:1013A000040B41F8040F9442F9D1012B7FF47BAF79
:1013B00022AC0432AA63204600F07AF87DE723F0DD
:1013C00008032B6005F5A87000F0ACF899E7B8F1B8
:1013D000100F2A6843D9D007A8F110080BD528466A
:1013E00022F0010242F0020240F8482B019300F083
:1013F0006BF82A68019B510725D40F2E04D822A828
:10140000019300F061F8019B019302AC204600F0CB
:1014100063F8C6F110010029AA6B019BB6DD22AC6E
:101420004F0004EBC6041146A3E722A800F048F8D9
:101430003DE723F010032B6005F5E870019200F002
:101440009DF8019A01E7284622F0040240F8D02BCB
:10145000019300F041F8019BCFE72A68CBE7D00762
:101460000AD5284622F0010242F0020240F8482B39
:10147000019300F029F8019B019322AC204600F073
:1014800023F8B846A96B019B002F7FF46DAF0A4685
:1014900009E70A468DE700BF00F1340191E8380002
:1014A0009C46A6464CF8045D90E8FF0FE54600BD5B
:1014B00090EC210B704700BF80EC210B704700BF00
:1014C00090EC200B704700BF80EC200B704700BFF2
:1014D000D0EC200B704700BFC0EC200B704700BF62
:1014E000F0EC0201F0EC0211F0EC0221F0EC023120
:1014F000F0EC0241F0EC0251F0EC0261F0EC027110
:10150000F0EC0281F0EC0291F0EC02A1F0EC02B1FF
:10151000F0EC02C1F0EC02D1F0EC02E1F0EC02F1EF
:10152000704700BFE0EC0201E0EC0211E0EC0221A8
:10153000E0EC0231E0EC0241E0EC0251E0EC02614F
:10154000E0EC0271E0EC0281E0EC0291E0EC02A13F
:10155000E0EC02B1E0EC02C1E0EC02D1E0EC02E12F
:10156000E0EC02F1704700BFB0FC0181B0FC0191DA
:10157000B0FC01A1B0FC01B1704700BFA0FC01812B
:10158000A0FC0191A0FC01A1A0FC01B1704700BF2B
:10159000EC4600B52DE900502DE9FF1F4FF0000388
:1015A0002DE90C0001A9FFF7DDFBDDF840E012B0EA
:1015B000704700BFEC4600B52DE900502DE9FF1F34
:1015C0004FF000032DE90C0001A9FFF705FCDDF841
:1015D00040E012B0704700BFEC4600B52DE9005066
:1015E0002DE9FF1F4FF000032DE90C0001A9FFF7C3
:1015F00015FCDDF840E012B0704700BFEC4600B5C6
:101600002DE900502DE9FF1F4FF000032DE90C00DC
:1016100001ABFFF7D7FBDDF840E012B0704700BF29
:10162000EC4600B52DE900502DE9FF1F4FF00003F7
:101630002DE90C0001AAFFF747FCDDF840E012B0ED
:10164000704700BF027A82B9437AABB14268013B6E
:1016500010B4437213680321141D01721A0244600E
:1016600002605DF8044B180E70470368013A02727D
:101670001A020260180E7047B020704700B585B09E
:1016800003AA0023009219460C22FFF7D7FB039808
:1016900005B05DF804FB00BFF0E700BF2DE9F043A3
:1016A000054685B00E464FF000083046FFF7CAFFEA
:1016B000B028044600F0B180070620D500F0F00302
:1016C000802B65D0902B36D0A02B78D0B02B47D074
:1016D000C02B00F08A8000F0F803D02B0BD100F073
:1016E0000702013242F40022052301212846FFF7B8
:1016F00093FD0028D9D0092005B0BDE8F0830DF195
:101700000C09002319468700CDF800900D222846C9
:10171000FFF794FBFFB2039BCDF8009004376006FF
:101720004CBFDF1BFF18002319460D2228460397E4
:10173000FFF7A6FBB9E700F00D030D2BDBD003AFDD
:10174000002300F00F02194600972846FFF776FBAA
:101750000023009719460D222846FFF791FBA4E7C6
:10176000B1285FD0B22800F0CC80B3287ED000F042
:10177000FC03B42BBFD000F007020132012342F476
:10178000002219462846FFF747FD00288DD0B2E712
:101790003046FFF757FF24020443B4F5004FAAD0A8
:1017A00024010023A2B219462846FFF735FD002880
:1017B000A1D114F4004F18BF4FF0010875E7C243E0
:1017C00002F007034FF47F621A41010702F47F62BF
:1017D0004FF0000348BF42F4804219462846FFF705
:1017E0001BFD00283FF461AF85E7C62851D0C7280C
:1017F0005AD000F0F803C02B69D0C82875D0C9288A
:101800007FF479AF3046FFF71DFF020300F00F00B1
:1018100002F470220130024366E7B8F1000F14D0E1
:10182000002069E73046FFF70DFF00283FF463AF63
:1018300010F0F0037FF45FAF024619462846FFF729
:10184000EBFC00283FF431AF55E703AC43460E22D2
:10185000414600942846FFF7F1FA00942846434693
:101860000F224146FFF70CFB404645E73046FFF7A5
:10187000E9FE010300F00F0001F47021421C012376
:101880000A4328461946FFF7C7FC00283FF40DAF6E
:1018900031E73046FFF7D6FE010300F00F0001F4F8
:1018A0007021421C0323EBE73046FFF7CBFE0246D4
:1018B00000283FF420AF10F0F0037FF41CAF0421A8
:1018C0002846FFF7A9FC00283FF4EFAE13E700F02D
:1018D0000F020132032342F4202219462846FFF763
:1018E0009BFC00283FF4E1AE05E73046FFF7AAFE77
:1018F00000F0F00200F00F031032013343EA02322D
:10190000F2E600230DF10C090D221946CDF80090E6
:101910002846FFF793FA3046FFF794FE02064FF091
:1019200002070CD5039B00F07F00B840034430460B
:101930000393FFF787FE030607F10707F2D4039B23
:10194000CDF8009000F07F0403F50172BC40002345
:10195000144419460D2228460394FFF791FAA4E691
:1019600010B5C36C84B05A6803208DF80C00DC7984
:101970008DF80D4012020833084601A90192029326
:10198000FFF78CFE04B010BD08B5FFF785FE806C34
:1019900008BD00BF08B5FFF77FFEC06CC37900EB40
:1019A0008300083008BD00BF08B504F0EDF900BFA2
:1019B00008B5FFF7F9FF00BF704700BF844641EA52
:1019C000000313F003036DD1403A41D351F8043BB7
:1019D00040F8043B51F8043B40F8043B51F8043B09
:1019E00040F8043B51F8043B40F8043B51F8043BF9
:1019F00040F8043B51F8043B40F8043B51F8043BE9
:101A000040F8043B51F8043B40F8043B51F8043BD8
:101A100040F8043B51F8043B40F8043B51F8043BC8
:101A200040F8043B51F8043B40F8043B51F8043BB8
:101A300040F8043B51F8043B40F8043B51F8043BA8
:101A400040F8043B51F8043B40F8043B403ABDD217
:101A5000303211D351F8043B40F8043B51F8043BB9
:101A600040F8043B51F8043B40F8043B51F8043B78
:101A700040F8043B103AEDD20C3205D351F8043B48
:101A800040F8043B043AF9D2043208D0D2071CBF14
:101A900011F8013B00F8013B01D30B88038060463D
:101AA000704700BF082A13D38B078DD010F00303B3
:101AB0008AD0C3F10403D21ADB071CBF11F8013B23
:101AC00000F8013B80D331F8023B20F8023B7BE772
:101AD000043AD9D3013A11F8013B00F8013BF9D29D
:101AE0000B7803704B7843708B7883706046704737
:101AF00001F0FF01102A2BDB10F0070F08D010F8BF
:101B0000013B013A8B422DD010F0070F42B3F6D1C2
:101B1000F0B441EA012141EA014122F007047FF0DB
:101B200000070023F0E80256083C85EA010586EA32
:101B3000010685FA47F5A3FA87F586FA47F6A5FA6E
:101B400087F68EB9EED1F0BC01F0FF0102F007027A
:101B500032B110F8013B013A83EA010313B1F8D125
:101B60000020704701387047002D06BF3546033806
:101B7000073815F0010F07D1013015F4807F02BF3F
:101B8000013015F4C03F0130F0BC0138704700BF90
:101B90000000000000000000000000000000000045
:101BA0000000000000000000000000000000000035
:101BB0000000000000000000000000000000000025
:101BC00090F800F06DE9024520F007016FF0000C7D
:101BD00010F0070491F820F040F049804FF0000425
:101BE0006FF00700D1E9002391F840F000F1080000
:101BF00082FA4CF2A4FA8CF283FA4CF3A2FA8CF338
:101C00004BBBD1E9022382FA4CF200F10800A4FA9E
:101C10008CF283FA4CF3A2FA8CF3E3B9D1E90423F2
:101C200082FA4CF200F10800A4FA8CF283FA4CF329
:101C3000A2FA8CF37BB9D1E9062301F1200182FAE3
:101C40004CF200F10800A4FA8CF283FA4CF3A2FAE9
:101C50008CF3002BC6D0002A04BF04301A4612BAF7
:101C6000B2FA82F2FDE8024500EBD2007047D1E9FA
:101C7000002304F00305C4F100004FEAC50514F089
:101C8000040F91F840F00CFA05F562EA05021CBF5A
:101C900063EA050362464FF00004A9E780B590B0FF
:101CA00000AF78600B46FB70FB78002B27D107F163
:101CB000240300221A605A609A60DA601A615A613D
:101CC0002D4A7B6852F833307B62012387F8283035
:101CD000012387F829304FF0FF333B6307F12403DA
:101CE000184603F001FB244A7B68DB001344012201
:101CF0001A717B68DB00204A1344FB6336E0FB78F3
:101D0000012B31D107F10C0300221A605A609A604E
:101D1000DA601A615A61184A7B6852F83330FB6006
:101D200001233B754FF0FF33BB6107F10C031846ED
:101D300003F04AFB104A7B68DB00134402221A714D
:101D40007B68292B0AD97B682C2B07D80A4A7B6829
:101D500052F833300121184603F06EFB7B68DB003C
:101D6000054A1344FB6301E00023FB63FB6B184649
:101D70004037BD4680BD00BF4400002080B586B01E
:101D800000AF78607B683B613B69002B0BD03B69FF
:101D90001B79012B07D13B691B68184603F05AFBDE
:101DA0000346FB7501E00023FB753B691B681B0ABA
:101DB000DBB2FB603B691B68DBB2BB60FB68022BDC
:101DC00002D1BB68062B05D0FB68002B09D1BB688C
:101DD000042B06D1FB7D002B0CBF01230023DBB2BB
:101DE000FB75FB7D18461837BD4680BD80B586B0B3
:101DF00000AF78600B46FB707B687B617B69002BD2
:101E00002FD07B691B79022B2BD17B691B681B0AA6
:101E1000DBB23B617B691B68DBB2FB603B69012B7A
:101E200005D1FB68162B08D0FB68152B05D03B6944
:101E3000042B0FD1FB681A2B0CD17B691A68FB7835
:101E4000012B14BF01230023DBB21946104603F017
:101E5000F3FA06E07B691B68FA781146184603F02E
:101E6000EBFA00BF1837BD4680BD80B485B000AF27
:101E700078607B68FB60FB68002B0ED0FB681B79E9
:101E8000022B03D1FB6800221A7106E0FB681B7964
:101E9000012B02D1FB6800221A7100BF1437BD4626
:101EA0005DF8047B7047000080B582B000AF094B3D
:101EB000D3F8A4307B60074B0222C3F8A42000F0C3
:101EC00035F8044A7B68C2F8A43000BF0837BD4625
:101ED00080BD00BFA00B002080B582B000AF094BD1
:101EE000D3F8A4307B60074B0022C3F8A42000F095
:101EF0001DF8044A7B68C2F8A43000BF0837BD460D
:101F000080BD00BFA00B002080B500AF054B0022B4
:101F10005A70054B93F8AD30C72B01D9FFF7DCFFA2
:101F200000BF80BD980B0020A00B002080B500AF43
:101F30008B4B93F8A830002B0BD1894B012283F8EF
:101F4000A820874B012283F8A920864B0122DA7052
:101F500004E1834B93F8A930022B1FD0032B00F030
:101F60008A80012B00D0F9E07D4B032283F8A92061
:101F70007D4B93F82030012B0BD1794B012283F854
:101F8000AA20774B022283F8AB20764B00229A706E
:101F9000E4E0734B022283F8AA20DFE0704BD3F811
:101FA000A430022B1DD16E4B002283F8AC206C4B69
:101FB000032283F8A9206C4B93F82030012B0BD11E
:101FC000674B012283F8AA20654B022283F8AB20DD
:101FD000644B00229A70C1E0614B022283F8AA2070
:101FE000BCE05F4B93F8AC30012B02D0022B1BD02E
:101FF000B4E05B4BD3F8A430012B0AD1584B02223A
:1020000083F8AC20564B002283F8AD20FFF77CFF0D
:102010002DE0544B01225A70514B93F8AD30C72B31
:1020200025D9FFF741FF22E04D4BD3F8A430002B18
:1020300012D14B4B012283F8AC20494B002283F88C
:10204000AD20484B01225A70454B93F8AD30C72B59
:102050000FD9FFF729FF0CE0424B00225A70404B8A
:1020600093F8AD30C72B04D9FFF736FF01E000BF6E
:1020700074E000BF72E03A4BD3F8A430032B16D1C2
:10208000374B002283F8AB20354B002283F8AA207F
:10209000334B022283F8A920314B022283F8AC2073
:1020A0002F4B002283F8AD20FFF72EFF55E02C4B7D
:1020B00093F8AA30012B50D1294B93F8AB30013B58
:1020C000032B4AD801A252F823F000BFDD20000004
:1020D000032100005121000037210000214B1B7813
:1020E000002B37D01E4B042283F8AB201C4B002260
:1020F00083F8AD201B4B01229A701A4B01225A70B3
:1021000028E0194B93F82230002B02D0012B08D085
:102110000CE0134B012283F8AB20124B00229A7083
:1021200008E00F4B032283F8AB2003E00D4B0022A5
:102130009A7000BF11E00A4B93F8AD30C72B0BD952
:10214000074B012283F8AB20064B00229A7003E074
:1021500000BF02E000BF00E000BF00BF00BF80BDC5
:10216000A00B0020980B00200000002080B582B05A
:1021700000AF78607B685B68012B08D17B681B7AB5
:10218000002B04D07B681B691846FFF76EFE00BF6A
:102190000837BD4680BD80B582B000AF78607868F2
:1021A000FFF7E4FF00BF0837BD4680BD80B582B0B1
:1021B00000AF78607B681B78002B05D17B6801221B
:1021C0001A707868FFF7E7FF00BF0837BD4680BD8B
:1021D00080B582B000AF78607B685B68012B08D166
:1021E0007B681B7A002B04D07B681B691846FFF7BD
:1021F0003CFE00BF0837BD4680BD80B582B000AF51
:1022000078607868FFF7E4FF00BF0837BD4680BDFF
:1022100080B582B000AF78607B681B78002B05D159
:102220007B6801221A707868FFF7E7FF00BF083764
:10223000BD4680BDB0B582B000AF604BD3E90601AA
:102240005F4BD3E902341A462346FEF77FFA034672
:10225000002B05D15A4BD3E90234584AC2E906345F
:10226000564B1B691846FFF789FD03461A46554B26
:102270001A70524BD3E90E01514BD3E900341A4680
:102280002346FEF763FA0346002B05D14C4BD3E9F6
:1022900000344A4AC2E90E34484B1B6B1846FFF71C
:1022A0006DFD464B93F8AD30FF2B07D0434B93F8B1
:1022B000AD300133DAB2414B83F8AD203F4B4FF0E4
:1022C000FF32C3F8A420FFF731FE3C4B1A6D3D4BA3
:1022D0005B7819461046FFF789FD384B5A6E394B2B
:1022E0009B7819461046FFF781FD364BDB78002BB3
:1022F00005D0334BD3E90634C7E9003405E04FF08D
:1023000000034FF00004C7E900342C4B9C6F0123FD
:102310001D464FF000024FF00003D7E90001FEF721
:1023200015FA0346002B01D000231D46EBB21946D7
:102330002046FFF75BFD234BDB78002B05D0204BBD
:10234000D3E90434C7E9003405E04FF000034FF04F
:102350000004C7E90034194BD3F88C4001231D4613
:102360004FF000024FF00003D7E90001FEF7EEF94D
:102370000346002B01D000231D46EBB21946204630
:10238000FFF734FD0D4BD3F8A04001231D464FF05D
:1023900000024FF00003D7E90001FEF7D7F903462A
:1023A000002B01D000231D46EBB219462046FFF753
:1023B0001DFD00BF0837BD46B0BD00BFA00B00200B
:1023C00000000020980B002090B583B000AF7D4B3B
:1023D0004FF0FF32C3F8A4207A4B01221A70794BD8
:1023E00000225A60774A4FF00003774CC2E9063466
:1023F000744B00221A70754BD3E90234714AC2E95A
:102400000634704B7B606F4B00221A726D4B0122B9
:102410005A6000210020FFF741FC02467B681A61E8
:10242000684B01221A72674B012283F82020654B0A
:1024300000225A62634A4FF00003634CC2E90E3433
:10244000604B002283F82020604BD3E900345D4AC2
:10245000C2E90E345E4B7B605A4B002283F8282081
:10246000584B01225A6200210120FFF717FC024657
:102470007B681A61534B012283F82820514B0122BB
:1024800083F840204F4B00225A644E4B002283F8C1
:102490004020504B3B604B4B002283F84820494B77
:1024A00001225A6401212A20FFF7F8FB02463B680B
:1024B0001A61444B012283F84820424B012283F8E1
:1024C0005420404B00229A653E4B002283F8542052
:1024D000414B3B603B4B002283F85C20394B01228F
:1024E0009A6501212C20FFF7D9FB02463B681A614F
:1024F000344B012283F85C20324B012283F86820A0
:10250000304B0022DA662F4B002283F86820334BD1
:102510003B602C4B002283F870202A4B0122DA66A4
:1025200001210D20FFF7BAFB02463B681A61254BDB
:10253000012283F87020234B012283F87C20214B59
:102540000022C3F880201F4B002283F87C20244BFC
:102550003B601C4B002283F884201A4B0122C3F8F5
:10256000802001210320FFF799FB02463B681A6196
:10257000144B012283F88420124B012283F890200F
:10258000104B0022C3F894200E4B002283F89020B9
:10259000144B3B600B4B002283F89820094B01221F
:1025A000C3F8942001210620FFF778FB02463B6820
:1025B0001A61044B012283F8982000BF0C37BD46F6
:1025C00090BD00BFA00B00200000F0BF0000002065
:1025D000C00B0020E00B0020F40B0020080C0020B2
:1025E0001C0C0020300C002080B500AF0B48FFF71A
:1025F000DDFD0B48FFF7DAFD0A48FFF709FE0A4840
:10260000FFF706FE0948FFF703FE0948FFF700FE43
:102610000848FFF7FDFD00BF80BD00BFA00B0020F4
:10262000C00B0020E00B0020F40B0020080C002061
:102630001C0C0020300C002080B400AFFEE700002E
:1026400080B483B000AF78607B68013B032B0BD86C
:1026500001A252F823F000BF69260000692600009D
:10266000692600006926000000BFFEE7704770473A
:102670000020002104460D46084803F0ABFB03F0A0
:10268000F3FB2046294600F04DFF0548002101F0EC
:102690007DF800F0D7FF03F0A9FB00000D5E0000FD
:1026A0006888000080B584B000AFF860B960134658
:1026B000FB71BB681F2B05D90D4B0E4AFF210E483D
:1026C00003F06AFBFB68BA6853F8223023F080738A
:1026D00023F4E063FA79120202F4E06243EA0201B1
:1026E000FB68BA6843F8221000BF1037BD4680BDB2
:1026F000D487000090880000E087000080B483B099
:1027000000AF78600B46FB707B68FA781A7000BFE8
:102710000C37BD465DF8047B7047000080B584B07F
:1027200000AF3B4600221A605A609A60DA60064B9E
:102730003B6002237B723B461946002002F046FCB8
:1027400000BF1037BD4680BD80F0FA0280B584B06E
:1027500000AF074A3B1D07CA83E807003B1D194627
:10276000002002F081FC00BF1037BD4680BD00BFD5
:102770001888000080B500AF2A210848FFF7BEFF87
:10278000002212210648FFF78DFFFFF7C7FFFFF772
:10279000DDFF044802F0BCFC00BF80BD00E0074044
:1027A000009004407888000080B582B000AF786067
:1027B000034800F0A0FA00BF0837BD4680BD00BF47
:1027C000503B002098B500AF094B0A4A1A600A4BEB
:1027D0000A4A1C1D13460FCB84E80F0000F0E1FAF3
:1027E0000246054B1A60064B034A1A6000BF98BDAB
:1027F000503B0020583B0020303B00206888000000
:10280000483B002080B586B002AF87ED010A3860F2
:102810000223FB60FFF7D6FF164800F05CFA034680
:10282000BB60154800F057FA0346BB6000230093D5
:102830000023FA681149124800F08AFA0346BB6087
:102840000023104A0121104800F0C3FA0346BB6080
:10285000D7ED017A9FED0D7A67EE877AFCEEE77A85
:1028600017EE901A084800F0DBFA00BF1037BD469B
:1028700080BD00BF503B0020483B00209128000055
:10288000583B0020A92700000C3B002000007A44A0
:1028900080B586B000AF7861184B1B681B68002BB1
:1028A0000CBF01230023DBB21A46154B1A7011E04E
:1028B0003B461449184600F031FAFFF7BBFC0F4BBA
:1028C0001B681B68002B14BF01230023DBB21A46D0
:1028D0000D4B1A700A4B1B78DBB2002BE8D1084B6A
:1028E00000221A70786900F011F8002000F060FAF8
:1028F000002318461837BD4680BD00BF248800005D
:1029000040000020503B0020443B002080B582B0B6
:1029100000AF7860074B01221A60074B00221A7043
:10292000FFF762FE054800F0E6F900231846083775
:10293000BD4680BD6C3B002040000020483B00208D
:1029400080B586B000AF7861396100F0FDFB00F022
:10295000BCF80A4B1B6800221A60FFF735FD002007
:102960009FED070AFFF74EFF3B460649184600F069
:10297000D5F9002318461837BD4680BD24880000CD
:102980006F12833A483B002080B500AF002002F070
:1029900041FC00BF80BD80B500AF012002F03AFCD1
:1029A00000BF80BD80B500AF022002F033FC00BF45
:1029B00080BD80B500AF032002F02CFC00BF80BDBD
:1029C00080B500AF042002F025FC00BF80BD80B5BB
:1029D00000AF052002F01EFC00BF80BD80B500AF37
:1029E000062002F017FC00BF80BD80B500AF0720B5
:1029F00002F010FC00BF80BD80B500AF082002F0DF
:102A000009FC00BF80BD80B500AF092002F002FCC8
:102A100000BF80BD80B500AF0A2002F0FBFB00BF05
:102A200080BD80B500AF0B2002F0F4FB00BF80BD7D
:102A300080B500AF0C2002F0EDFB00BF80BD80B57B
:102A400000AF0D2002F0E6FB00BF80BD80B500AFF7
:102A50000E2002F0DFFB00BF80BD80B500AF0F206D
:102A600002F0D8FB00BF80BD80B500AF002002F0AF
:102A7000E9FB00BF80BD80B500AF002003F05CF82B
:102A800000BF80BD80B500AF012003F055F800BF46
:102A900080BD80B500AF022003F04EF800BF80BDBE
:102AA00080B500AF032003F047F800BF80BD80B5BC
:102AB00000AF042003F040F800BF80BD80B500AF38
:102AC000052003F039F800BF80BD80B582B000AFAB
:102AD00002F0BAF90023FB7106E0FB79184602F018
:102AE0006FFBFB790133FB71FB79042BF5D9FFF701
:102AF00041FE00BF0837BD4680BD80B400AFFEE791
:102B000080B400AFFEE780B400AFFEE780B400AF52
:102B1000FEE780B400AFFEE780B400AFFEE780B40C
:102B200000AFFEE780B400AFFEE780B400AFFEE781
:102B300080B400AFFEE780B400AFFEE780B400AF22
:102B4000FEE780B400AFFEE780B400AFFEE780B4DC
:102B500000AFFEE780B400AFFEE780B400AFFEE751
:102B600080B400AFFEE780B400AFFEE780B400AFF2
:102B7000FEE780B400AFFEE780B400AFFEE780B4AC
:102B800000AFFEE780B400AFFEE780B400AFFEE721
:102B900080B400AFFEE780B400AFFEE780B400AFC2
:102BA000FEE780B400AFFEE780B400AFFEE780B47C
:102BB00000AFFEE780B400AFFEE780B400AFFEE7F1
:102BC00080B400AFFEE780B400AFFEE780B400AF92
:102BD000FEE780B400AFFEE780B400AFFEE780B44C
:102BE00000AFFEE780B400AFFEE780B400AFFEE7C1
:102BF00080B400AFFEE780B400AFFEE780B400AF62
:102C0000FEE780B400AFFEE780B400AFFEE780B41B
:102C100000AFFEE780B400AFFEE780B400AFFEE790
:102C200080B400AFFEE780B400AFFEE780B400AF31
:102C3000FEE780B400AFFEE780B400AFFEE780B4EB
:102C400000AFFEE780B400AFFEE780B400AFFEE760
:102C500080B400AFFEE780B400AFFEE780B400AF01
:102C6000FEE784B080B582B000AF07F1100C8CE8AD
:102C70000F003B69796A184600F0DAFF03467B6073
:102C80007B6818460837BD46BDE8804004B07047F1
:102C900084B080B500AF07F1080C8CE80F00BB686A
:102CA000F969184600F0E4FF03461846BD46BDE842
:102CB000804004B0704780B582B000AF7860396062
:102CC0007B684FF0FF323968184600F0DFFF786804
:102CD0000837BD4680BD80B485B000AF78607B68A2
:102CE00001225A600123FB60FB6818461437BD4679
:102CF0005DF8047B704780B584B002AF78607B6874
:102D00001B687A68526801921A6900920FCBFFF72C
:102D1000A8FF034618460837BD4680BD80B584B07D
:102D200002AF786039603B681B683A68526801926C
:102D30001A6900920FCBFFF7ABFF3B685A687B68BC
:102D400011461846FFF7B7FF78680837BD4680BDC3
:102D500080B586B000AFF860B9607A603B60FB6810
:102D6000BA685A60FB687A689A60FB680122DA6088
:102D70003A68FB681A61FB680433396A184600F048
:102D800005FD0246FB681A60FB681B68002B14BF38
:102D900001230023DBB27B617B6918461837BD46EF
:102DA00080BD80B500AF00F03FFD0346184680BDF2
:102DB00080B584B000AF786000F036FD0346FB605C
:102DC000F86800F03DFD0346BB6000BF1037BD460C
:102DD00080BD80B586B000AFF8607A603B600B467E
:102DE000FB72FB6803F10C02FB689A60FB687A686F
:102DF0005A60FB680433F97A3A68184600F014FE0A
:102E00000246FB681A60FB681B68002B14BF012395
:102E10000023DBB27B617B6918461837BD4680BD55
:102E200080B584B000AF786039607B681B68396812
:102E3000184600F02BFE0346FB60FB68184610376F
:102E4000BD4680BD80B584B000AF7860114B1B6873
:102E5000002B02D10F4B104A1A600E4B1B68FB600F
:102E60000C4B1A687B6813440C4A934207D902F052
:102E7000B7FF02460C2313604FF0FF3306E0054B0B
:102E80001A687B681344034A1360FB6818461037BE
:102E9000BD4680BD703B00200000FF1F00000020E9
:102EA00080B489B000AF284BFB60284A284B9A4277
:102EB00016D00023FB610AE0254AFB6952F8232063
:102EC0002249FB6941F82320FB690133FB61FB6860
:102ED0009B08FA699A42EFD31E4B1C4A9A6002E0A3
:102EE0001C4B1B4A9A601C4BBB611C4B7B611C4BEF
:102EF000BB60BA687B69D31AFB6107E07A69531C2F
:102F00007B61BB69591CB96112781A70FB695A1E42
:102F1000FA61002BF2D1134B3B61134B7B607A6853
:102F20003B69D31AFB6104E03B695A1C3A610022F9
:102F30001A70FB695A1EFA61002BF5D100BF2437C5
:102F4000BD465DF8047B70470000000000000000F3
:102F50000000000000ED00E000000020C49200002E
:102F60003C9E0000780B0020DC3C002080B400AFC9
:102F70006B4BD3F888306A4A43F47003C2F8883048
:102F8000684B4CF22052DA81664B4DF62812DA81FA
:102F9000644B4FF4E9721A80634B1B78DBB203F089
:102FA0000103002B0FD0614B9B78DBB203F00803C9
:102FB000002B2ED05D4B9B78DBB25C4A43F00803BC
:102FC000DBB2937025E05A4B03F581531C331B6829
:102FD000574943F0005201F581531C331A60554B99
:102FE0001B6903F48073002B13D1524B1B6923F42C
:102FF0007C53504A43F4407313614E4B1B694D4A56
:1030000043F4807313614B4B1B694A4A23F40073EA
:103010001361494B2A221A70454B03F5825304333E
:103020004FF08A721A60424B1B6823F44023404AD7
:1030300043F4002313603E4B03F5805304331B68B5
:1030400023F440333A4943F4803201F5805304338A
:103050001A60374B03F5815318331B68344943F426
:10306000007201F5815318331A60344B9B6C334A5C
:1030700023F0807323F4E0639364314B00221A72CF
:103080002F4B5B78DBB223F06003DBB22C4A43F0BA
:103090002003DBB253702B4B80221A70284B002286
:1030A0001A73274BBA221A7000BF254B9B79DBB2EB
:1030B00003F01003002BF8D1214BDB78DBB2204A60
:1030C00003F01F03DBB2D3701D4B13221A711C4B8C
:1030D00018225A711A4B5B79DBB2194A43F040034C
:1030E000DBB2537100BF164B9B79DBB203F0400398
:1030F000002BF8D0124B1B78DBB2114A03F03F03D0
:10310000DBB2137000BF0E4B9B79DBB203F00C03F4
:103110000C2BF8D100BFBD465DF8047B704700BFA3
:1031200000ED00E00020054000F0074000D007401F
:103130000070044000D0034000E0074000900440CD
:10314000004006400050064080B483B000AF964B6C
:103150001B78DBB203F0C003002B40F0D280924B0F
:103160005B79DBB203F04003002B40F0AD808E4B67
:103170001B78DBB203F00403002B4ED18A4B1B7B80
:10318000DBB203F00303002B02D0012B03D006E0D7
:10319000864B7B6006E04FF400437B6002E0844B8B
:1031A0007B6000BF804B5B78DBB203F03003002B09
:1031B00023D07D4B1B7BDBB203F00303012B1CD020
:1031C000794B1B78DBB203F03803302B05D0382B5A
:1031D00007D14FF4C0637B800EE04FF4A0637B8087
:1031E0000AE0714B1B78DBB2DB0803F007032022F7
:1031F00002FA03F37B8000BF09E06B4B1B78DBB264
:10320000DB0803F00703012202FA03F37B807B88CB
:103210007A68B2FBF3F37B6002E04FF400437B601B
:10322000614BDB78DBB203F0E003602B29D0602B2D
:1032300006D8202B17D0402B1CD0002B0CD09DE0A3
:10324000A02B2CD0A02B02D8802B21D096E0C02B15
:103250002CD0E02B31D091E07A6813469B001344C8
:10326000DB017B608AE07A6813469B0013441B02F3
:103270007B6083E07A6813461B019B1ADB017B604D
:103280007CE07A6813469B0013445B027B6075E028
:103290007B684FF4377202FB03F37B606EE07B6860
:1032A0004FF4B76202FB03F37B6067E07B6840F694
:1032B000950202FB03F37B6060E07B6840F67132AD
:1032C00002FB03F37B6059E0374B1B79DBB29BB207
:1032D00003F01F039BB201337B807B88334AB2FB30
:1032E000F3F37B60304B5B79DBB29BB203F01F03DF
:1032F0009BB218337B807A887B6802FB03F37B6088
:103300003CE0294B1B78DBB203F0C003402B1AD101
:10331000254B5B78DBB203F00103002B03D14FF4A4
:1033200000437B602AE0204B1B7ADBB25B0803F092
:103330000703012202FA03F37B807B881D4AB2FB5C
:10334000F3F37B601AE0184B1B78DBB203F0C00389
:10335000802B22D1144B1B7BDBB203F00303002B29
:1033600002D0012B03D006E0104B7B6006E04FF447
:1033700000437B6002E00E4B7B6000BF0E4B03F509
:10338000825304331B681B0F03F00F0301337A6869
:10339000B2FBF3F3094A136000E000BF0C37BD46EF
:1033A0005DF8047B704700BF0040064080F0FA02E1
:1033B000006CDC0200093D0000700440BC010020EC
:1033C00000B5DFF80CC000DFDFF808C000DFFEE763
:1033D00031370000493700002DE9F041334C2378A4
:1033E00053B1334B1B68FF229A70324A00200123ED
:1033F00010702370BDE8F0812F4B3048196800F041
:1034000055FD10B18520BDE8F08101F005FC284B89
:1034100021781B68FF229A700029E6D1284A136898
:10342000002B40D0556845B12A78002A39D1191DA2
:10343000890089B2284600F0F9FD224B224A1E6815
:10344000156066B35D68EA1C062A28D8DF68B7B144
:1034500039461A4800F038FD804600B3291D41EA7C
:10346000072130460023424601F06CFA054670B948
:103470004146124800F050FD144B1D60B5E7291D70
:1034800030463B463A4601F05DFA054638B1104BEE
:10349000104A013D53F82550AB6A5A63ECE700250A
:1034A000EAE70D46C9E71D46C7E700BF343C0020E8
:1034B000783C0020353C002044880000102F00207C
:1034C0005C8800004C880000043B0020E03A0020AB
:1034D000D43A0020C133000038B5104C207808B130
:1034E000002038BD0E4D2B6893F8241001F0AEF982
:1034F0002B68DA78FF2A08D06A68094952B101F0CE
:1035000001FC01232370002038BD9A6A203282F327
:103510000988F1E781E80C00F1E700BF353C0020A5
:10352000783C00202DE9F041EFF3058414B18220AE
:10353000BDE8F081EFF31484E40704D5DFF800C19F
:1035400000DFBDE8F081334C237853B1324B1B6868
:10355000FF229A70314A0020012310702370BDE8C9
:10356000F0812F4B2F48196800F0A0FC10B1852086
:10357000BDE8F08101F050FB274B21781B68FF224A
:103580009A700029E6D1284A1368002B40D055686C
:1035900045B12A78002A39D1191D890089B22846F7
:1035A00000F044FD214B224A1E68156066B35D6839
:1035B000EA1C062A28D8DF68B7B13946194800F056
:1035C00083FC804600B3291D41EA072130460023D1
:1035D000424601F0B7F9054670B94146114800F07E
:1035E0009BFC144B1D60B5E7291D30463B463A460F
:1035F00001F0A8F9054638B10F4B104A013D53F8C8
:103600002550AB6A5A63ECE70025EAE70D46C9E7A7
:103610001D46C7E7343C0020783C0020353C0020A4
:1036200044880000102F00205C8800004C880000B7
:10363000043B0020E03A0020D43A0020C1330000CF
:10364000D933000010B588B0EFF3058414B182209F
:1036500008B010BDEFF3148404F00304022C1DD055
:10366000032C14D0012C16D008AC84F309880F4C1D
:103670002478E40716D5022484F31488BFF34F8F0F
:10368000BFF36F8FDFF828C000DF08B010BD074C14
:103690002478E407F6D5FF2008B010BD034C247849
:1036A000E407EFD4032484F31488E7E734880000A8
:1036B000D9340000002833D0F8B5066876B34768DF
:1036C000FB1C062B2AD8C26804460D46BAB1114627
:1036D000144800F0F9FB064600B36268E168206810
:1036E000043242EA01212B46324601F02BF904460E
:1036F00060B931460B4800F00FFC2046F8BD0B4680
:103700003046391D01F01EF9044638B1013C064B24
:10371000064A53F82400836A5A63F8BD0020F8BDB6
:1037200000207047102F0020D43A0020C133000041
:1037300008B501F083F818B10138024B53F82000A6
:1037400008BD00BFD43A002098B1830711D1037897
:103750007BB9C18C10B571B9C0780C4601F07AF90B
:10376000FF280ED01CB12146074800F0D5FB0020F1
:1037700010BD80207047C46AC07801F06BF9FF2843
:10378000F0D1812010BD00BF102F0020F8B5EFF35D
:1037900005846CBBEFF31484E40702D41D4C247839
:1037A0001CB1DFF880C000DFF8BD08B30668FEB1C9
:1037B0004768FB1C062B1BD8C2680D460446CAB1DD
:1037C0001146154800F080FB064688B16268E16842
:1037D0002068043242EA01212B46324601F0B2F859
:1037E000044678B931460C4800F096FB2046F8BDF7
:1037F0000020F8BD0B463046391D01F0A3F8044601
:103800000028F5D0601E054B054A53F82000836A56
:103810005A63F8BD353C0020102F0020D43A002018
:10382000C1330000B536000010B5EFF305841CB9B4
:10383000DFF808C000DF10BD002010BD31370000E8
:1038400010B5EFF305840CB1822010BDDFF804C081
:1038500000DF10BD4937000098B130B404689CB156
:1038600043689BB101290DD8094C246864B11C79C7
:1038700044B9012558611C6059711A611D711846BF
:1038800030BC70470020FBE72046F9E71846F7E711
:10389000E03A0020820703D110B119B986207047A1
:1038A00080207047F8B52B4B1A68002312F1FF36C1
:1038B00043F1FF3704464FF47A70E0FB016730466E
:1038C0003946FCF775FF2379012B10D0022B0CD160
:1038D000214D2B684BB19C4237D0194602E09442EF
:1038E00026D011460A68002AF9D18120F8BD1A4D68
:1038F000E06002222B6822715BB19968884204D291
:103900000EE0916881420DD813461A68401A002AC9
:10391000F7D10022A0602260A3B11C600020F8BD96
:103920001A460023A06091682260081A9060F3E7AD
:1039300022680A602268002ADED09668A1683144B5
:103940009160D9E72C601846F8BD22682A601346BA
:10395000F1E700BF38880000383C0020830704D11D
:1039600030B143690169186870470020014670470B
:10397000014670472DE9F04F294F3C6883B054B39E
:10398000A668DFF8A080013EA660B9464FF0000AA5
:103990000EBBD8F8003025683D6023B193F800B025
:1039A000BBF1010F02D00420FEF74AFE1846019336
:1039B00000F09EFB019B0028F5D01846214600F040
:1039C0009BFB6379012B09D084F804B01DB1AE686C
:1039D0002C46002EDDD003B0BDE8F08FD9F80000F2
:1039E000E26858B18168914204D90DE0996891422A
:1039F0000CD818460368521A002BF7D1C4F800A05F
:103A0000A26050B10460E1E703463046A2609968C5
:103A100023608A1A9A600028F4D13C60D6E700BF80
:103A2000383C0020043B002030B5EFF3058404BB94
:103A3000EFF31484E40702D4114C24781CB1DFF8AE
:103A400048C000DF30BD98B10368A3B1436893B1AB
:103A500001290CD80B4D2D687DB11D793DB901248C
:103A600059711C7158611D601A61184630BD20469D
:103A700030BD002030BD184630BD284630BD00BFE7
:103A8000353C0020E03A00205938000010B5EFF333
:103A900005840CB1822010BDDFF804C000DF10BD2A
:103AA0009538000008B50C4E3568EFF305844FF0EB
:103AB000FF312846002CF8D1DFF820C000DF1028A5
:103AC000F2D10846DFF818C000DF04460028EBD02A
:103AD0000846A047E8E700BF043B0020B53C0000D3
:103AE0005D39000078B183070DD103785BB90B0C09
:103AF0001B0443B910B50B46048BC17898B200F093
:103B000015FD204610BD4FF00040704778B1830787
:103B10000DD103785BB90B0C1B0443B910B50B46F0
:103B2000048BC17898B200F02DFD204610BD4FF0F7
:103B3000004070472DE9F0414FEA10484FEA08482D
:103B4000B8F1000F37D10D46044698B180B2002974
:103B500037D1012200F0C4FC02284FD0002D0CBF49
:103B60000023402300242546184641462A462B467A
:103B7000BDE8F081002938D04B1C4CD0294B99422C
:103B800044D8294B1A684FF6FE714FF47A73501ED1
:103B900003FB0505B5FBF2F58D423AD900224FF63D
:103BA000FF7000F09DFC02282BD1204B1A680823DF
:103BB000B2F81A80D6E7002186200A460B46BDE8F7
:103BC000F0814A1C2AD0174B99421CD8164B1E680C
:103BD0004FF47A72731E4FF6FE7102FB0533B3FB8E
:103BE000F6F38B42B5D899B2B3E742464FF6FF7071
:103BF00000F076FC0228D8D04346B3E7A04608235D
:103C0000B0E74023AEE74FF6FE71A2E74FF6FE7134
:103C1000C4E7A9B2C2E74FF6FF71BFE74FF6FF71E5
:103C200097E700BF00093D0038880000783C00207D
:103C300070B5EFF305851DB9DFF830C000DF70BD4A
:103C4000044678B183070DD103785BB90B0C1B04D4
:103C50000E463BB92346248BD978B0B200F09EFCC7
:103C6000204670BD4FF0004070BD0000E53A0000F6
:103C700010B5EFF305841CB9DFF80CC000DF10BDF0
:103C80004FF0004010BD00000D3B000070B5044631
:103C9000EFF3058545B908461146DFF814C000DF8B
:103CA00084E80700204670BD82230360204670BD73
:103CB000353B0000F0B5044685B0002836D00378C7
:103CC000012B05D0002180200A460B4605B0F0BD2F
:103CD00003460C4681B90A4602A900F0B5F901284D
:103CE0002DD00024264627461024029D2046294632
:103CF00032463B4605B0F0BD4A1C28D0154A9142D9
:103D00001AD8154A10684FF47A75411E4FF6FE72A4
:103D100005FB0414B4FBF0F1914216D9184602A930
:103D200000F092F90128DCD1402109E080202146F1
:103D30002246234605B0F0BD4FF6FE72EEE721465F
:103D40000024264627460C46CFE78AB2E6E74FF620
:103D5000FF72E3E700093D00388800002DE9F047D5
:103D60008046C08C244B80088A4640D0D3F800900F
:103D70000746D8F82C6006EB8704630748BF043C6D
:103D80004FF08073A4F1400544F8043C44F808ACBB
:103D900028463822002102F03FFBD8F81C3044F8B6
:103DA000203C19F0805FC8F82850C8F830A01AD01D
:103DB000112F18D9A7F110004008431E0CD02A4635
:103DC0004FF0CC31013B42F8041C42F8081DF9D1F8
:103DD000C000C0F1080005442B1F9E423CBF4FF0BD
:103DE000CC3345F8043C054B3360BDE8F0871B68D5
:103DF000C3F38D079946BCE72C880000A52E5AE234
:103E000090F82520836A12B9203319607047603317
:103E10001960704710B490F82540836A2CB920339C
:103E200083E806005DF8044B7047603383E80600C2
:103E30005DF8044B704700BF084B1B68DA0107D5DB
:103E4000074B1B68DB0703D5064B1B68002B00DB09
:103E50007047054B01221A70704700BFFCED00E06F
:103E6000800E00E0000E00E03C3C002010B4094C45
:103E70002268084B002AFBD0026B1A601A68054CB6
:103E8000002AFBD0C37843EA012189B221805DF882
:103E9000044B70477C0000E003490B68024A002B8A
:103EA000FBD0C0B2107070477C0000E0034648B100
:103EB000072907D904390022084418605A501046CF
:103EC0005A6070470120704718B3F9B10B3110B434
:103ED000036821F0030102E018461B685BB14468E7
:103EE0001A1A121B9142F7D84CB1021903515160B2
:103EF00002F10803026018465DF8044B704700F1B8
:103F0000080341605DF8044B184670470B4618469D
:103F100070470346FBE700BFD0B1C9B110B4A1F1AF
:103F20000804A04216D0036823B90DE01A681846A9
:103F300052B113469C42F9D160B151F8083C03607C
:103F400000205DF8044B704701205DF8044B70477A
:103F50000120704700206060F3E700BF002A30B402
:103F60001FDB033222F003020C24BAB113198B4277
:103F700014D8044401448D1AA3189D420460416082
:103F8000826015D3002100E00346981885426350F3
:103F90001144F9D20020186030BC7047012030BCB9
:103FA000704722F00042073222F007021024DCE7BB
:103FB0002346EFE7EFF3108372B6026803F00103C4
:103FC0000AB11168016003B962B61046704700BFBC
:103FD00081420DD3436899420AD2EFF3108372B63F
:103FE00002680A60016013F0010003D162B67047F5
:103FF0000120704700207047426882B110B500F080
:104000001DF9044600F034FA012161702046FFF7E3
:10401000F7FE21460448BDE8104000F0E7B84288AA
:1040200001324280704700BF443C00201039002319
:1040300089080122C181027043708370436003814B
:1040400043818381704700BF70B585890446CDB137
:104050004389C289181D01339BB254F820000860BF
:104060009A42638104BF00236381636813B163785C
:10407000022B1FD0EFF3108372B6013DA58162B60B
:10408000002070BD16465AB143685BB1174B1968E2
:1040900000F0ACF83046082100F0A8FB012070BD0C
:1040A000012070BD114A1268426001215360906086
:1040B0004170EFE7204600F0C1F800210546FFF708
:1040C0009FFE2389E289E869191D01339BB29A4258
:1040D00044F82100238104BF00232381284600F0F7
:1040E000C7F9284600F044FB002070BD783C002052
:1040F000C2898089101A704708B500F0CFF9BDE871
:10410000084000F085BA00BF426870B50346002A37
:104110004FD04678022E0D46044625D0032E02D0FD
:10412000012E10D070BD0846FFF744FF0546002859
:10413000F8D0204600F082F829460446FFF760FEDA
:104140000123637007E000F079F804462A46102145
:10415000FFF760FE6670204600F08AF9214622488B
:10416000BDE8704000F042B800F068F80021054654
:10417000FFF746FE2389E9691A1D44F82210EFF380
:10418000108272B6A2890132A28162B6E28901333D
:104190009BB29A42238104BF002323810123284636
:1041A0006B7000F065F929460F48BDE8704000F0DB
:1041B0001DB88489C589AC4210D20089061D43F818
:1041C0002610EFF3108172B601349C8162B6013083
:1041D00080B2854214BF18811A8170BD0320BDE8EA
:1041E0007040FEF72DBA00BF443C002030B4057883
:1041F00042688C78013DEDB2F2B19378A34204D2CB
:104200000FE0987884420ED81A465368002BF8D1F4
:104210000023022D4B60516000D900228A6030BC1F
:10422000704713460246022D4B60516098BF99605B
:10423000F3D88A6030BC70470246E9E702784368E9
:10424000013A59684160022A07D811B100228860FA
:104250005A6000229A601846704700225A60184639
:10426000704700BF034B5A6842600022586082606A
:10427000704700BF443C0020816830B4002931D031
:104280000B780A461BB992681378002BFBD0436861
:104290004B60436803B19960157851688478013D9B
:1042A000EDB200292ED08B78A34204D20FE09A7889
:1042B00094420ED819464B68002BF8D10023022DEA
:1042C000436048600BD90023836030BC70470B46C5
:1042D0001146022D4360486098BF9860F3D8816012
:1042E00030BC70474378012BEFD1074B5A6890429E
:1042F00004D01346002AF9D1034ACDE742685A6038
:10430000014AC9E71146D9E7443C002030B4164CB5
:10431000E2681AB3A38A994203D822E0D4689CB118
:104320002246948A23449942F8D8D568C560D06063
:10433000C468026104B120615B1A9BB28382918AD6
:10434000CB1A938230BC70479BB2CB1A0021C1605C
:1043500030BCD0600261938281827047134622464E
:10436000F3E715462246E1E75C3C00202DE9F041E9
:10437000314EF068002856D0B58A013DADB2B58205
:10438000002D50D1DFF8B8E02C4B9EF80070B3F848
:104390000080013FFFB24FF0010C826832B14368E8
:1043A000536043680BB19A6045608560DEF8042075
:1043B0008478002A39D09378A34204D21BE09978FC
:1043C0008C421AD81A465368002BF8D1022F456048
:1043D000506000D9002243788260042B828A17D073
:1043E000C36880F801C0DBB11E611349C560056177
:1043F000EAB91846D1E71346114A4360022F5060CC
:1044000098BF9860E6D843788260042B828AE7D10F
:10441000C38A80F801C043448382C368002BE3D180
:10442000B282F3600361BDE8F081054ACEE78A827B
:10443000CB60BDE8F08100BF5C3C0020403C002028
:10444000443C002083682BB142685A60426842B104
:1044500093607047054B5A68904203D01346002A78
:10446000F9D1704742685A60704700BF443C002051
:10447000036973B1C268DA60C16859B130B4828A25
:104480009D8A00242A449A820B61C46030BC0023B8
:1044900003617047998200230361704730B40F4B6A
:1044A000DC78EFF3108272B69A78944208D9551CE2
:1044B0001A789D70551CAC4214BFEDB200251D70DA
:1044C00062B6944205D903EBC20330BC58609960D0
:1044D0007047022030BCFEF7B3B800BF503A00204E
:1044E00038B5114B6AB11A68138B30EA030413D044
:1044F00006250C4650832946204600F077F9012016
:1045000038BD1A68138B10EA03040AD023EA0000AE
:1045100010835483022038BD23EA00001083022058
:1045200038BD0525E5E700BF783C00200139144B74
:1045300010B553F8214044B1238B6278618B184346
:10454000062A208318D0052A00D010BD10EA0103E6
:10455000FBD0638320EA010020832046FFF788FF19
:10456000012320466370628B0821FFF753FC20462D
:10457000BDE8104000F0FCB831EA0003EAD010BDFD
:10458000D43A00200139044B53F821301BB11A8B67
:1045900022EA000018837047D43A002008B5013998
:1045A000064B53F821303BB101461846FFF776FF22
:1045B000BDE8084000F02CB808BD00BFD43A002088
:1045C00038B5038B4278458B1943062A018319D0ED
:1045D000052A00D038BD11EA0503FBD0438321EA48
:1045E000050104460183FFF743FF01232046637062
:1045F000628B0821FFF70EFC21460448BDE83840D5
:10460000FFF7F4BD35EA0103E9D038BD443C002092
:10461000054B1A7812B101229A707047034B4FF084
:1046200080521A60704700BF940B002004ED00E038
:1046300038B51A4B1A4D186801234370FFF712FE64
:10464000AB786C7893B921E0012A1AD0FFF7D4FC3B
:10465000EB7801349C4208BF0024EFF3108372B65C
:10466000AB78013BDBB2AB7062B67BB105EBC4014A
:104670004B681A781846002AE6D10989FFF7A0FF8F
:10468000E6E789681846FFF73FFDE1E705486C70EB
:10469000FFF7D4FDBDE8384000F058B8783C002062
:1046A000503A0020443C00200A4A0B490B480C4B6E
:1046B00010B414680C600B4A0024072104601960D0
:1046C00013685DF8044B43F07F434FF0FF301360F5
:1046D000704700BF3088000014E000E018E000E000
:1046E00010E000E020ED00E0704700BF08B50B4B84
:1046F000186801234370FFF7B5FDFDF7B8FF084ABE
:10470000136801331360FFF731FEFFF733F90548F3
:10471000FFF794FDBDE8084000F018B8783C002091
:10472000403C0020443C0020064B1B68DA6A9B6A30
:104730009A4203D81268044B9A4202D00120FDF736
:104740007FBF7047783C0020A52E5AE2064A074BEF
:1047500012785860022141702AB11B68984202D039
:10476000C078FFF799BB70473C3C0020783C0020A4
:1047700038B508B31A4D82780446286883789A427F
:104780000BD9FFF76FFD174A2B6812780120022121
:1047900058706C60617042B938BD01236370214666
:1047A0001148BDE83840FFF721BD9C42F4D0E078C5
:1047B000BDE83840FFF770BB0B48FFF73FFD094AE3
:1047C000074B1278586002214170002AE4D01B6820
:1047D0008342E1D0C078BDE83840FFF75DBB00BF41
:1047E000783C00203C3C0020443C0020F8B138B527
:1047F0004FF6FF7398420C460D4D03D001462868D2
:10480000FFF784FD2B680B485C70FFF717FD0A4B20
:1048100068601B7806490222427003B938BD0B68F4
:104820009842FBD0C078BDE83840FFF735BB7047F1
:10483000783C0020443C00203C3C0020024B18689F
:1048400000B1C078704700BF783C002070B558B9FF
:10485000374D2B68997083F82410364C6268927833
:104860008A4236D8002070BD334B1B88984201D94C
:10487000FF2070BD0138314B53F82040002CF7D099
:104880002B4DA1702B6884F824109C42E5D0204663
:10489000FFF7F2FC6678012EE4D12648FFF7CEFC44
:1048A0000446002836D02868A27883789A422AD90C
:1048B000FFF7D8FC224A2B6812785E7002216C60E8
:1048C0006170002ACED09C42CCD0E078FFF7E4FAA9
:1048D000C8E719462046FFF789FC2B68144E0122D1
:1048E0005A702046FFF7AAFC154B68601B7802221D
:1048F0004270002BB6D033688342B3D0C078FFF744
:10490000CBFA002070BD667021460A48FFF76EFCA6
:10491000002070BD0748FFF791FC094B68601B78C9
:1049200002224270002B9DD02B689842E6D199E775
:10493000783C0020443C002028880000D43A002025
:104940003C3C00202DE9F04111F0FF0F0C460646DB
:10495000394890461F4608BF0134FFF72BFB054638
:1049600000282ED00020C4F30F210123E4B2C5F8A3
:104970002C80EF61E984AC7085F824402870686071
:10498000A860E86028612862A882E882288368839A
:1049900085F825006B70B9B128463146FFF7DEF97E
:1049A000264B188868B1264E3368002B41D032461A
:1049B000012303E052F8041F59B123465C1C8442D2
:1049C000F8D90020BDE8F0811E48FFF7F3FAE8624D
:1049D000E2E7E2B21C4F46F823503B78EA701BBB7B
:1049E0001A4EAA78306883789A420CD9FFF73AFCBD
:1049F00033683A78012002215870756069705AB99D
:104A00002046BDE8F08101236B7029461048FFF76E
:104A1000EDFB2046BDE8F0819D42F1D0E878FFF73C
:104A20003BFA2046BDE8F08101212846FFF71EFA37
:104A3000D6E701221446CDE7540C00202888000058
:104A4000D43A0020000D00203C3C0020783C00209F
:104A5000443C00202DE9F047684F3C6848B1E378BA
:104A6000984206D0664B1B88984259D9FF20BDE872
:104A7000F08700236370FBF74AFDA062FFF754FE46
:104A80003B681C6AE4B1012663682046002B3FD0D6
:104A9000FFF7D4FB00210546FFF7B2F92846FFF7E0
:104AA000E7FC6E7029465748FFF7A0FBE3682A6AC7
:104AB000E260A56066802C621C46002CE4D13B6855
:104AC000DA785149514D52484C4E013A002441F890
:104AD0002240D96AFFF77CFA3B682A78DC6222B16F
:104AE00018462146FFF7C2F933684A48434E194633
:104AF000FFF76EFA002443483C60FFF79FFB2B78DA
:104B0000786002224270002B61D10020BDE8F0875E
:104B1000E2686380A360E3601446002CB4D1CEE762
:104B2000461EDFF8E4A05AF82690B9F1000F9DD098
:104B30004846FFF787FC4846FFF79AFCD9F8204023
:104B40004FF00108E4B163682046002B48D0FFF71E
:104B500075FB00210546FFF753F92846FFF788FC4F
:104B600085F8018029462748FFF740FBE3682A6A59
:104B7000E260A560A4F802802C621C46002CE2D101
:104B800000244AF82640214DD9F82C102048FFF780
:104B90001FFA2B78C9F82C4053BB1A4C1D48174EEE
:104BA0004946FFF715FA396862688B7892789A421D
:104BB000ABD901234B702046FFF718FB2046FFF7C7
:104BC0003DFB2B78706002224270002B9DD0336831
:104BD00083429AD0C078FFF75FF90020BDE8F087E4
:104BE000E2686380A360E3601446002CABD1C7E7A2
:104BF00021464846FFF73AF9CFE700BF783C00204E
:104C000028880000443C0020D43A00203C3C00208E
:104C1000000D0020540C0020F8B5FFF70DF9294BCA
:104C20001A8822B192000021274801F0F5FB274B9A
:104C300027481988274D284E3422FFF78FF9274A35
:104C4000274B12881968274842F00042FFF786F97F
:104C5000254B264A186811880822FFF77FF900249F
:104C6000FF2201231F48EA706B70EC842C70AC703B
:104C700085F824406C60AC60EC602C612C62AC82E6
:104C8000EC822C836C8385F82540FFF793F9184953
:104C9000E8622846FFF762F81649174B174A18488A
:104CA0000D603678022704216F70D670147054702E
:104CB000017019704460DC601C619C82BDE8F840A2
:104CC000FDF7D4BC28880000D43A00203C880000BE
:104CD000540C0020803C0020488800002C880000F4
:104CE00040880000000D0020083B00206488000080
:104CF00039260000783C00205C3C0020503A00201F
:104D0000443C002008B51E4B1A6842F47F021A602A
:104D10001B681B0203F07F43DB43B3FA83F3194A9A
:104D200019481268DBB2C3F10803C2F302229342AE
:104D300098BF531C6FF08071026801FA03F322F0F0
:104D40007F4203F07F4313430360FFF7ADFC0F4B3B
:104D50000028186012DB00F1604000F56440FF227B
:104D600002701A6853099B0003F1604303F5614325
:104D700002F01F02012101FA02F21A6008BD00BF11
:104D800020ED00E00CED00E01CED00E0743C0020A4
:104D9000F7B50E4B0E4F01244FF085451C600026E1
:104DA0008DF800408DF8014000992E60384600F0E3
:104DB0008DFB8DF805408DF804600199384600F0B0
:104DC00067FBAE612C6003B0F0BD00BF00079042EE
:104DD0000000044010B5044628B90A4B0A4A0B48A3
:104DE000CC2100F0D9FF4378FF2B09D000F00AFA5C
:104DF00063780133DBB2637000F0FAF9002010BD74
:104E00000120FCE7A4880000E9880000A9880000D0
:104E10000A4B00229A6403F140029A6303F13002C4
:104E20009A6203F120029A6103F110029A60044A27
:104E30001360044BC3E90233704700BF783B002086
:104E4000743B0020C83B002008B5FFF7E1FFFFF7E7
:104E50009FFF002008BD0000094B1A7802F03F02B6
:104E600042F080021A709A79C2F38102022AFAD1C2
:104E7000044B00221A76044A1378002BFCD17047A9
:104E800000400640A000C842D400C8422DE9F041CD
:104E90000446467A414886B0884600F066FC23887E
:104EA000042B32D1802801D1FFF7D6FF05A8637902
:104EB0002279E179CDE90080384800F08FFC384B49
:104EC00001221A71374BA2781A71E2781A70A3780E
:104ED00073B12379012B03D16179304800F089FB4C
:104EE0002F4B22791A7022792F490B789A42FCD1E4
:104EF000A07A00284DD02948E37A627B217B00F01C
:104F0000C0FB002006B0BDE8F081082B1BD1802833
:104F100001D1FFF7A1FF224B204D00221A7105A9F4
:104F2000CDE90181E179237A0091A27931462846C1
:104F300000F0B0FC2B7803F03F032B70AB7913F03B
:104F40000C0FFBD1BEE7802B26D1802805AF0CD0FB
:104F5000134B124800221A71E1790091237AA27949
:104F6000CDE90187314600F095FC0C4D627B237B37
:104F70000092019700223146284600F001FD2B786F
:104F800003F03F032B70AB79C3F38103032BFAD1FA
:104F900098E7064B1876B5E70120B3E700400640D6
:104FA0002000C8420000C842C000C8428000C84279
:104FB000054B0A7853F8203003F104735B011A772C
:104FC0004A781A75704700BFCC89000010B50C46AE
:104FD00030B11E4B1E4A1F4840F24F2100F0DCFE4C
:104FE0008B7A012B18D10B79002B4B7914BF082039
:104FF0000020002B8B7914BF04220022002BE379C0
:1050000043EA000343EA020314BF022100211943CB
:10501000114B186800F01CFD04F10B010020FFF794
:10502000C7FFA37A227A617A0C4800F076FB628986
:1050300040F201139A4203D1094A1378002BFCD0A5
:10504000084B22681A60002010BD00BF688900006C
:10505000A48900000E890000CC89000000400640B1
:10506000C400C842E03B002008B530B1124B134ADF
:1050700013484FF4307100F08FFE124B01221A607A
:10508000114B0A681A60114B0A7A1B6803F104730A
:1050900011335B01186840B93AB108795861487911
:1050A00018618879D860C87998601A604A7A82F065
:1050B00001025A60002008BD86890000B689000000
:1050C0000E890000F4079042E43B0020F08B0000C2
:1050D000054B00F0E002134400F01F0003449B0066
:1050E00001221A60704700BF4001A41008B50648AD
:1050F00000F002FB054A41F24403D3581B0F013371
:10510000B0FBF3F008BD00BF004006400070044053
:1051100037B5044628B91D4B1D4A1E48722100F0C0
:105120003BFE1D4D0423009301220223284600214B
:1051300000F095FC19492046FFF7A8FE607D237D0D
:10514000E27CA17C0090284600F089FC41F2040139
:10515000237C6A581B0422F4403203F44033134387
:105160006B50637C2A689B0422F4402203F44023A2
:1051700013432B6004F10E010020FFF719FFFFF726
:10518000B5FF074B1860002003B030BD0A8A00004D
:10519000668A0000198A000000700440A5510000D2
:1051A000BC01002008B5FFF7A1FF40F6B833B0FB03
:1051B000F3F010F1FF3000D208BD00BFF9E70000A6
:1051C000042808B506D9064B064A074840F2B12123
:1051D00000F0E2FD054B185CBDE80840FFF778BF22
:1051E000D0890000818A0000198A00009B8A000093
:1051F000034A13681BB1013B136003B962B67047E1
:10520000D83B002072B6024A13680133136070471E
:10521000D83B0020094B1B6853F8203063B10109CB
:10522000074A52F8212000F00F001077D0775A6813
:1052300012B1197B98681047704700BFDC3B002013
:10524000A08A00001F4B2DE9F74F53F82050DFF8DC
:105250007890D5F82CB00701002698464FF0020A46
:10526000BBF1000F01D0102E07D105F104756D01BF
:1052700000236B6103B0BDE8F08F1BF0010F1DD060
:10528000F4B2F319002221462846019300F0C2FC33
:10529000D9F80020019B52F823307BB13C44E4B2A2
:1052A000220904F00F0458F822201477D4775A68A2
:1052B00083F80CA012B1197B986890474FEA5B0BFA
:1052C0000136CDE7A08A0000DC3B002008B5034A88
:1052D000034B0448FF2100F05FFD00BFA28B0000DC
:1052E000618B00006B8B00002DE9F84304682E4BA6
:1052F000C4F30728074653F828902C4BE4B24046E5
:1053000053F82850FFF75CFF1F2C01D9FFF7DEFF91
:1053100055F8243023F0807323F4E06343F4807362
:1053200045F824300022214605EB8406484600F06B
:1053300077FC06F104735B013A795A607A791A6056
:10534000BA791A61FB79D5F8C020397AA3401343A2
:10535000C5F8C03055F824200B0422F0877203F4FE
:10536000702322F48032134345F82430D1B1104B1E
:1053700013F90830002B15D005DA0E4B0E4A5D21CB
:105380000E4800F009FD552B03DD0D4B0A4A5E2146
:10539000F6E75909012203F01F0302FA03F3094A51
:1053A00042F82130BDE8F883F48C0000088D00003D
:1053B0001C8D0000E48A0000CC8B0000F38A000002
:1053C000368B000000E100E02DE9F0410468184B45
:1053D0000646C4F30720E4B253F82080154B53F877
:1053E0002070FFF7EDFE1F2C01D9FFF76FFF57F874
:1053F000243023F0807323F4E06343F4807347F890
:10540000243001222146404600F00AFC07EB8405C7
:1054100072682146404600F01DFC05F104735B01F3
:10542000327A9A60727A9A61B27A5A61BDE8F081F2
:10543000F48C0000088D000010B4054BC0F3072465
:105440000A46C1B253F824005DF8044B00F002BCD8
:10545000F48C0000C0F3072208B5C0B2084B1F2827
:1054600053F8223006D9074B074A08484FF49B717E
:1054700000F092FC1B6923FA00F000F0010008BD67
:10548000F48C0000A48A0000B68B0000AD8A0000F6
:1054900082B001919DF804309DF8062001685B0000
:1054A000D20002F0080203F0020313439DF8052026
:1054B00043EA82039DF80720120102F0300221F036
:1054C000BE0113430B43036002B07047CAB2C1F37D
:1054D0000123490B43EA820301F0780182B00B43B8
:1054E000436002B070470000012908D004D30229AC
:1054F000044818BF00207047034B18687047034BDF
:10550000FBE700BF006CDC02E03B0020E43B002036
:10551000017B01F00301FFF7E7BF21FA02F0A3B11D
:105520009DF80030012B10D0072A0DD8DFE802F0DB
:10553000040404040404060A400970471423B0FB61
:10554000F3F070470C23FAE70020704713B500F121
:1055500004735B0104461B7A8BB9FFF7D9FF2278ED
:105560006378217B01F003010091C3F3011301462D
:10557000C2F3C2022046FFF7D0FF02B010BD014BBC
:105580001868FAE7C401002010B522B1B1F5004F48
:1055900008D900200CE0A1F5F444123C41F68560E6
:1055A000844206D802EB4302034B33F8120048430F
:1055B00010BD1046FCE700BFDE8B000010B500F107
:1055C000047306335B0104461B7D83B9FFF7BEFFFE
:1055D000014660B104F1047303335B0120461A7F76
:1055E000E378BDE81040C3F34113FFF7CDBF0020BF
:1055F00010BD037AC3F342038B4210B50DD000F106
:10560000047301335B0149001A7801F00E012AB9D5
:10561000037A03F0F0031943017210BD00221A70DF
:1056200000F10472063252011478002CFCD1047A85
:1056300004F0F00421430172012119701378012B49
:10564000FCD1EAE708B500F1047306335B010246BA
:105650001B7D3BB900F1047304335B011B7E03F037
:10566000FF006BB11046FFF753FF137903F01F03E0
:105670000133B0FBF3F0537903F01F0318335843A1
:1056800008BD10B5447902F01F0204F0E004144391
:105690004471027901F01F0141F0400141EA4311D8
:1056A00002F080021143C9B20171400100F184404F
:1056B000D8300378002BFCD010BD000000F104733B
:1056C0005B011A7902F0FF037AB100F10473013330
:1056D0005B011B7813B9064B18687047007A054ABE
:1056E000C0F342031068D84070471846704700BFA7
:1056F000C4010020C00100208379C3F38103022B81
:1057000009D0032B03D0012B03D1FFF7D7BFFFF73D
:1057100099BFFFF753BFFFF7FBBE10B5D2009B0048
:10572000447802F0080203F0040309011A4301F06F
:1057300030010A4304F0C3042243427010BD037BCE
:1057400001F0030203F0FC031343037361B900F19A
:10575000047301335B011B7A33B1400100F18440D3
:10576000C4300378002BFCD07047034600F104706E
:1057700013F8061F013003F104735B0140011A7C2A
:1057800000791B7DC1F381010229D2B2C0B2DBB224
:1057900011D0032916D0012905D0E3B9002A0CBF86
:1057A000082001207047012A15D1A3B900280CBF99
:1057B00002200420704772B958B9002B14BF402052
:1057C000102070473AB9002B0CBF4FF400708020B6
:1057D0007047202070474FF4007070472DE9F84360
:1057E000099E0446884615461F46FFF7BEFF10F087
:1057F0001D0F49D004F1047303335B0100221A77B3
:105800002278234602F03B0242F0440203F8062BC2
:1058100003F104734FEA431909F110021378012BC5
:10582000FCD1012D03D139462046FFF7E2FE637813
:1058300005F0010203F0FC031343637099F8003094
:105840009D42FBD1E2784FEA481303F0600302F077
:105850009F021343E370E378C3F341134345FAD146
:10586000A379C3F38103012BFAD1089B98472DB983
:10587000064B1B6833600020BDE8F883044B1B68AF
:1058800023FA07F73760F6E70120F5E7C4010020A7
:10589000C00100202DE9F0470446894615461F4601
:1058A0009DF82060FFF761FF10F07B0F824662D009
:1058B00049462046FFF718FE804600285DD004F1D7
:1058C000047305335B0100221A7604F10473063376
:1058D0005B0103F11400027802F0FF01002AFAD103
:1058E00004F1047201325201BAF1080F117106D0AD
:1058F000217B09F0030001F0FC01014321732178B1
:10590000ED0005F0380501F003010D4345F0800579
:105910002570197C0029FCD1BAF1080F06D1217B32
:1059200009F0030001F0FC0101432173B9F1000FFC
:1059300004D1127A12B11A79002AFCD0E2787301EC
:1059400003F0600343EAC71302F01F021343DBB204
:10595000E370E378C3F34113B342FAD1A379C3F3FD
:105960008103022BFAD1099B98470A9B0020C3F8B8
:105970000080BDE8F0870120FBE72120F9E7000067
:10598000F8B504460F461E46FFF7EFFE10F0B00FC5
:1059900055D039462046FFF7A7FD0546002850D0D0
:1059A000731C2A4AB0FBF3F3A3F5F413A3F5906339
:1059B000934248D804F1047301335B0100221A7149
:1059C000237803F03F0343F080032370A379C3F3EC
:1059D0008103022BFAD139462046FFF7B0FE04F1CD
:1059E000047304F10471043305315B0149010022A1
:1059F0001A760A7604F104720632520102F1140793
:105A00003B78002BFCD123799DF8180003F0E003CC
:105A100006F01F0633432371637900F01F0003F083
:105A2000E0030343637101230B763B78002BFCD02A
:105A3000137E002BFCD0079B00201D60F8BD0120C9
:105A4000FCE72120FAE74120F8E700BF80841E0030
:105A5000037803F0F0031943C9B20170704710B521
:105A60009DF808401B05240403F4700304F470241B
:105A7000234343EA0171130603F0706341F24402C9
:105A80000B43835010BD0000052838B506D90E4BD6
:105A90000E4A0F4840F2C32100F07EF90D4B53F837
:105AA00020500D4B53F8203003F1047303335B0196
:105AB00000221A77AB7D14461BB105F11800FFF7E1
:105AC00089F92C7538BD00BFF48B0000738C000081
:105AD000138C0000E83B0020248D0000052838B519
:105AE00006D9104B104A114840F20A3100F054F91F
:105AF0000F4B53F820500F4B53F8200000F1047364
:105B000003335B0100241C75224640F2032100F0A0
:105B1000C0F8EB7D1BB105F12400FFF75BF96C7554
:105B200038BD00BFF48B0000568C0000138C0000C1
:105B3000E83B0020248D0000F8B5344B53F820409A
:105B4000237D074613B9637D002B5DD0304B53F89E
:105B5000275005F1047603367601337D33B105F124
:105B6000047304335B011B7D002B35D1337FFBB104
:105B700005F1047304335B011B7FCBB1E368BBB158
:105B80002B7D2678F61AF6B296B163682846197806
:105B900000F078F8A36B002B2FD0214638469847A9
:105BA000E368013EF6B2002BEED13846FFF76CFFFA
:105BB0000321284600F0A0F830B328460321BDE8B1
:105BC000F84000F0AEB8A168284600F05EF8236BFC
:105BD00033B1214638469847AB7D002BF3D1C5E75A
:105BE000A3680133A3602369013B23612369002B70
:105BF000F2D13846FFF772FFB8E76368013363609C
:105C0000E368013BE360CBE7F8BD00BFE83B002061
:105C1000248D00000AB1C17670478176704700007C
:105C20001F2908B505D9084B084A09482E2100F05C
:105C3000B3F8012303FA01F19A4243690CBF1943F7
:105C400023EA0101416108BDA48A0000C98C00005B
:105C50008D8C00001F2908B505D9074B074A084855
:105C6000422100F099F8012303FA01F10AB14160E1
:105C700008BD8160FCE700BFA48A0000DC8C000046
:105C80008D8C00000379C17170470379C3790B7063
:105C9000704710B50123CCB2090AA340032908D8E4
:105CA000DFE801F0020C1620DBB21AB102781343D0
:105CB000037010BD027822EA0303F9E7DBB21AB1E0
:105CC000C2781343C370F4E7C27822EA0303F9E70A
:105CD000DBB21AB1827913438371EAE7827922EA4F
:105CE0000303F9E7DBB21AB1427C13434374E0E7E4
:105CF000427C22EA0303F9E70B0A032B0FD8DFE803
:105D000003F002080A0C0079C9B2084100F0010052
:105D100070474079F8E7007BF6E7807CF4E70020E5
:105D2000704740F20713994223D0B1F5847F0DD21A
