:1000000000000020F5040000075100000D51000021
:1000100013510000195100001F51000000000000A2
:100020000000000000000000000000006505000066
:1000300025510000000000000B0600006B060000C8
:10004000954F0000A34F0000B14F0000BF4F0000CC
:10005000CD4F0000DB4F0000E94F0000F74F0000DC
:100060000550000013500000215000002F500000E8
:100070003D5000004B5000005950000067500000F8
:10008000755000002B510000315100003751000025
:100090003D51000043510000495100004F51000004
:1000A000555100005B510000615100006751000094
:1000B0006D51000073510000795100008350000021
:1000C0007F51000091500000855100009F500000BA
:1000D0008B510000AD50000091510000975100007D
:1000E0009D510000A3510000A9510000AF51000034
:1000F000B5510000BB510000C1510000C7510000C4
:1001000005050000050500000505000005050000C7
:10011000CD510000D3510000D9510000DF51000043
:10012000E5510000EB510000F1510000F7510000D3
:10013000FD51000003520000095200000F52000060
:10014000155200001B520000BB500000215200005D
:10015000C9500000275200002D5200003352000009
:10016000395200003F520000455200004B5200003F
:1001700051520000575200005D52000063520000CF
:100180006952000005050000050500000505000096
:100190000505000005050000050500000505000037
:1001A0000505000005050000050500000505000027
:1001B0000505000005050000050500000505000017
:1001C0000505000005050000050500000505000007
:1003F000050500000505000005050000FFFFFFFFE3
:10040000FFFFFFFFFFFFFFFFFFFFFFFFFEFFFFFFFD
:1004400010B5054C237833B9044B13B10448AFF30E
:1004500000800123237010BD400E0020000000002A
:10046000F0DF000008B5034B1BB103490348AFF3AD
:10047000008008BD00000000440E0020F0DF0000F6
:10048000154B002B08BF134B9D46A3F5803A002166
:100490008B460F461348144A121A0AF04BFB0F4BB7
:1004A000002B00D098470E4B002B00D0984700201F
:1004B000002104000D000D48002802D00C480AF06D
:1004C00017F80AF05FF82000290004F03FFD0AF059
:1004D0001BF800BF00000800000000200000000022
:1004E0007D4C0000400E002030460020F1A40000AA
:1004F00029A5000072B605F035FB05F0CDFA62B60D
:10050000FFF7BEFFFFF7FEBF80F309887047EFF3E8
:1005100009807047684680F309885A480078C00708
:1005200014BF0220032080F314887047DFF858C1FD
:10053000EFF305831B0618BF6047EFF31483DB0757
:1005400008BF604700DF7047DFF840C1EFF3058365
:100550001B0618BF6047EFF31483DB0708BF604733
:1005600000DF7047EFF30980816911F8021CE1BBDD
:1005700090E80F1010B5E047BDE81040EFF3098C8C
:100580008CE80700424B93E80600914208BF704791
:1005900041B91EF0100F16D13E49086820F0010045
:1005A000086010E01EF0100F06BF2CED108A01202D
:1005B000002081F825002CE9F00FC1F828C00CB408
:1005C00007F04AF90CBC1A60D2F828C0BCE8F00F5A
:1005D00092F8250000280EBF6FF0020E6FF0120E89
:1005E000BCEC108A8CF30988704710B52A4A12684F
:1005F000914209D8294C54F8214090E80F10A047A7
:10060000EFF3098C8CE80F0010BD10B507F0A8F8C7
:10061000BDE810401E4B93E80600914208BF7047AA
:10062000EFF3098C1EF0100F06BF2CED108A01208D
:10063000002081F825002CE9F00FC1F828C00CB487
:1006400007F00AF90CBC1A60D2F828C0BCE8F00F19
:1006500092F8250000280EBF6FF0020E6FF0120E08
:10066000BCEC108A8CF30988704710B507F0D6F8F7
:10067000FFF7CEBF10B507F0CFF807F0CFF8FFF7C0
:10068000C7BF000054D10000E570000001710000F8
:10069000CC45002034EF00E000000000FCFFFFFF2D
:1006A00081F0004102E000BF83F0004330B54FEA23
:1006B00041044FEA430594EA050F08BF90EA020F90
:1006C0001FBF54EA000C55EA020C7FEA645C7FEA23
:1006D000655C00F0E2804FEA5454D4EB5555B8BF46
:1006E0006D420CDD2C4480EA020281EA030382EAB7
:1006F000000083EA010180EA020281EA0303362D49
:1007000088BF30BD11F0004F4FEA01314FF4801C1B
:100710004CEA113102D0404261EB410113F0004F2D
:100720004FEA03334CEA133302D0524263EB4303E4
:1007300094EA050F00F0A780A4F10104D5F1200E82
:100740000DDB02FA0EFC22FA05F2801841F10001DD
:1007500003FA0EF2801843FA05F359410EE0A5F1B1
:1007600020050EF1200E012A03FA0EFC28BF4CF0E2
:10077000020C43FA05F3C01851EBE37101F0004598
:1007800007D54FF0000EDCF1000C7EEB00006EEBA5
:100790000101B1F5801F1BD3B1F5001F0CD349082F
:1007A0005FEA30004FEA3C0C04F101044FEA445286
:1007B00012F5800F80F09A80BCF1004F08BF5FEA0D
:1007C000500C50F1000041EB045141EA050130BDED
:1007D0005FEA4C0C404141EB010111F4801FA4F190
:1007E0000104E9D191F0000F04BF01460020B1FAE5
:1007F00081F308BF2033A3F10B03B3F120020CDA1D
:100800000C3208DD02F1140CC2F10C0201FA0CF0FA
:1008100021FA02F10CE002F11402D8BFC2F1200C5F
:1008200001FA02F120FA0CFCDCBF41EA0C01904015
:10083000E41AA2BF01EB0451294330BD6FEA04045E
:100840001F3C1CDA0C340EDC04F11404C4F1200249
:1008500020FA04F001FA02F340EA030021FA04F35B
:1008600045EA030130BDC4F10C04C4F1200220FAB2
:1008700002F001FA04F340EA0300294630BD21FAF0
:1008800004F0294630BD94F0000F83F4801306BFB6
:1008900081F480110134013D4EE77FEA645C18BFAA
:1008A0007FEA655C29D094EA050F08BF90EA020F41
:1008B00005D054EA000C04BF1946104630BD91EA39
:1008C000030F1EBF0021002030BD5FEA545C05D13C
:1008D0004000494128BF41F0004130BD14F580047B
:1008E0003CBF01F5801130BD01F0004545F0FE41EF
:1008F00041F470014FF0000030BD7FEA645C1ABF24
:10090000194610467FEA655C1CBF0B46024650EA5A
:10091000013406BF52EA033591EA030F41F4002186
:1009200030BD00BF90F0000F04BF0021704730B50C
:100930004FF4806404F132044FF000054FF00001E1
:1009400050E700BF90F0000F04BF0021704730B5A2
:100950004FF4806404F1320410F0004548BF404277
:100960004FF000013EE700BF42004FEAE2014FEACC
:1009700031014FEA02701FBF12F07F4393F07F4FA7
:1009800081F06051704732F07F4208BF704793F0AA
:100990007F4F04BF41F40021704730B54FF46074BD
:1009A00001F0004521F000411CE700BF50EA0102C0
:1009B00008BF704730B54FF000050AE050EA010269
:1009C00008BF704730B511F0004502D5404261EBD9
:1009D00041014FF4806404F132045FEA915C3FF41A
:1009E000D8AE4FF003025FEADC0C18BF03325FEAB7
:1009F000DC0C18BF033202EBDC02C2F1200300FA68
:100A000003FC20FA02F001FA03FE40EA0E0021FA8C
:100A100002F11444BDE600BF70B54FF0FF0C4CF47A
:100A2000E06C1CEA11541DBF1CEA135594EA0C0F2C
:100A300095EA0C0F00F0DEF82C4481EA030621EA67
:100A40004C5123EA4C5350EA013518BF52EA0335A2
:100A500041F4801143F4801338D0A0FB02CE4FF054
:100A60000005E1FB02E506F00042E0FB03E54FF084
:100A70000006E1FB03569CF0000F18BF4EF0010E7C
:100A8000A4F1FF04B6F5007F64F5407404D25FEA78
:100A90004E0E6D4146EB060642EAC62141EA55512B
:100AA0004FEAC52040EA5E504FEACE2EB4F1FD0C6D
:100AB00088BFBCF5E06F1ED8BEF1004F08BF5FEAEB
:100AC000500E50F1000041EB045170BD06F000469D
:100AD00046EA010140EA020081EA0301B4EB5C044A
:100AE000C2BFD4EB0C0541EA045170BD41F4801142
:100AF0004FF0000E013C00F3AB8014F1360FDEBF67
:100B0000002001F0004170BDC4F10004203C35DA42
:100B10000C341BDC04F11404C4F1200500FA05F3C5
:100B200020FA04F001FA05F240EA020001F0004266
:100B300021F0004110EBD37021FA04F642EB0601DC
:100B40005EEA430E08BF20EAD37070BDC4F10C0406
:100B5000C4F1200500FA04F320FA05F001FA04F2CA
:100B600040EA020001F0004110EBD37041F10001B6
:100B70005EEA430E08BF20EAD37070BDC4F12005C1
:100B800000FA05F24EEA020E20FA04F301FA05F229
:100B900043EA020321FA04F001F0004121FA04F2D1
:100BA00020EA020000EBD3705EEA430E08BF20EAA1
:100BB000D37070BD94F0000F0FD101F000464000DB
:100BC00041EB010111F4801F08BF013CF7D041EA5D
:100BD000060195F0000F18BF704703F00046520061
:100BE00043EB030313F4801F08BF013DF7D043EA32
:100BF0000603704794EA0C0F0CEA135518BF95EAE8
:100C00000C0F0CD050EA410618BF52EA4306D1D16E
:100C100081EA030101F000414FF0000070BD50EA8D
:100C2000410606BF1046194652EA430619D094EA17
:100C30000C0F02D150EA013613D195EA0C0F05D101
:100C400052EA03361CBF104619460AD181EA030155
:100C500001F0004141F0FE4141F470014FF000000D
:100C600070BD41F0FE4141F4780170BD70B54FF0A8
:100C7000FF0C4CF4E06C1CEA11541DBF1CEA135528
:100C800094EA0C0F95EA0C0F00F0A7F8A4EB05040A
:100C900081EA030E52EA03354FEA013100F0888001
:100CA0004FEA03334FF0805545EA131343EA1263CA
:100CB0004FEA022245EA111545EA10654FEA00267F
:100CC0000EF000419D4208BF964244F1FD0404F538
:100CD000407402D25B084FEA3202B61A65EB030594
:100CE0005B084FEA32024FF480104FF4002CB6EB51
:100CF000020E75EB030E22BFB61A754640EA0C00D1
:100D00005B084FEA3202B6EB020E75EB030E22BF10
:100D1000B61A754640EA5C005B084FEA3202B6EB51
:100D2000020E75EB030E22BFB61A754640EA9C0010
:100D30005B084FEA3202B6EB020E75EB030E22BFE0
:100D4000B61A754640EADC0055EA060E18D04FEA9E
:100D5000051545EA16754FEA06164FEAC30343EA3E
:100D600052734FEAC2025FEA1C1CC0D111F4801F0B
:100D70000BD141EA00014FF000004FF0004CB6E704
:100D800011F4801F04BF01430020B4F1FD0C88BFA3
:100D9000BCF5E06F3FF6AFAEB5EB030C04BFB6EBAE
:100DA000020C5FEA500C50F1000041EB045170BDA1
:100DB0000EF0004E4EEA113114EB5C04C2BFD4EBCE
:100DC0000C0541EA045170BD41F480114FF0000E52
:100DD000013C90E645EA060E8DE60CEA135594EACE
:100DE0000C0F08BF95EA0C0F3FF43BAF94EA0C0FD1
:100DF0000AD150EA01347FF434AF95EA0C0F7FF446
:100E000025AF104619462CE795EA0C0F06D152EA99
:100E100003353FF4FDAE1046194622E750EA41067D
:100E200018BF52EA43067FF4C5AE50EA41047FF48E
:100E30000DAF52EA43057FF4EBAE12E74FF0FF3CF3
:100E400006E000BF4FF0010C02E000BF4FF0010CC4
:100E50004DF804CD4FEA410C7FEA6C5C4FEA430C3D
:100E600018BF7FEA6C5C1BD001B050EA410C0CBF8C
:100E700052EA430C91EA030F02BF90EA020F0020EE
:100E8000704710F1000F91EA030F58BF994208BF55
:100E900090422CBFD8176FEAE37040F00100704712
:100EA0004FEA410C7FEA6C5C02D150EA013C07D169
:100EB0004FEA430C7FEA6C5CD6D152EA033CD3D0B4
:100EC0005DF8040B704700BF8446104662468C46AE
:100ED0001946634600E000BF01B5FFF7B7FF0028E1
:100EE00048BF10F1000F01BD4DF808EDFFF7F4FF0A
:100EF0000CBF012000205DF808FB00BF4DF808ED95
:100F0000FFF7EAFF34BF012000205DF808FB00BFB7
:100F10004DF808EDFFF7E0FF94BF012000205DF8D9
:100F200008FB00BF4DF808EDFFF7CEFF94BF01208E
:100F300000205DF808FB00BF4DF808EDFFF7C4FF87
:100F400034BF012000205DF808FB00BF4FEA410CD0
:100F50007FEA6C5C02D150EA013C0AD14FEA430CB3
:100F60007FEA6C5C02D152EA033C02D14FF00000F0
:100F700070474FF0010070474A0011D212F500127D
:100F800011D20DD56FF47873B3EB62520ED44FEAE1
:100F9000C12343F0004343EA505323FA02F0704761
:100FA0004FF00000704750EA013002D14FF0FF309F
:100FB00070474FF0000070474FEA4102B2F1E04342
:100FC00024BFB3F5001CDCF1FE5C0DD901F0004C30
:100FD0004FEAC0024CEA5070B2F1004F40EB830080
:100FE00008BF20F00100704711F0804F21D113F1AC
:100FF0003872BCBF01F00040704741F480114FEAE5
:101000005252C2F11802C2F1200C10FA0CF320FA6D
:1010100002F018BF40F001004FEAC1234FEAD3238A
:1010200003FA0CFC40EA0C0023FA02F34FEA4303F4
:10103000CCE77FEA625307D150EA01331EBF4FF07D
:10104000FE4040F44000704701F0004040F0FE4098
:1010500040F40000704700BF53B94AB9002908BFE7
:1010600000281CBF4FF0FF314FF0FF3001F0F8B8FF
:10107000ADF1080C6DE904CE00F006F8DDF804E0EF
:10108000DDE9022304B070472DE9F047089E0446CD
:101090008846002B4BD18A42154667D9B2FA82F2B4
:1010A0004AB1C2F1200701FA02F320FA07F795408E
:1010B00047EA030894404FEA154E230CB8FBFEF7AD
:1010C0001FFA85FC0EFB178843EA084307FB0CF167
:1010D000994209D9EB1807F1FF3080F01B81994242
:1010E00040F21881023F2B445B1AA4B2B3FBFEF01E
:1010F0000EFB103344EA034400FB0CFCA44509D961
:101100002C1900F1FF3380F00781A44540F20481DF
:1011100002382C4440EA0740A4EB0C0400271EB11F
:10112000D4400023C6E900433946BDE8F0878B422E
:1011300009D9002E00F0EB800027C6E900013846EF
:101140003946BDE8F087B3FA83F7002F47D18B42C9
:1011500002D3824200F2FA80841A61EB0303012079
:101160009846002EE0D0C6E90048DDE702B9FFDE70
:10117000B2FA82F2002A40F08F80491B4FEA154EE6
:101180001FFA85F80127B1FBFEFC230C0EFB1C1196
:1011900043EA014308FB0CF1994207D9EB180CF123
:1011A000FF3002D2994200F2CD808446591AA3B290
:1011B000B1FBFEF00EFB101443EA044408FB00F8F8
:1011C000A04507D92C1900F1FF3302D2A04500F247
:1011D000B6801846A4EB080440EA0C409FE7C7F12C
:1011E000200CBB4022FA0CFE4EEA030E01FA07F473
:1011F00020FA0CF521FA0CF34FEA1E482543B3FB05
:10120000F8F92C0C08FB19331FFA8EFA44EA034351
:1012100009FB0AF49C4202FA07F200FA07F10BD923
:101220001EEB030309F1FF3080F087809C4240F2FF
:101230008480A9F1020973441B1BADB2B3FBF8F023
:1012400008FB103345EA034400FB0AFAA24508D91B
:101250001EEB040400F1FF336BD2A24569D90238BA
:10126000744440EA0940A0FB0289A4EB0A044C45FF
:10127000C2464B4654D351D0002E69D0B1EB0A057B
:1012800064EB030404FA0CFCFD40FC404CEA050549
:10129000C6E90054002747E7C2F1200320FA03F70C
:1012A000954001FA02F021FA03F34FEA154E384354
:1012B000010CB3FBFEF71FFA85F80EFB173341EA6A
:1012C000034107FB08F38B4204FA02F407D96918BB
:1012D00007F1FF3C2FD28B422DD9023F2944CB1A74
:1012E00081B2B3FBFEF00EFB103341EA034100FB79
:1012F00008F38B4207D9691800F1FF3C17D28B42E3
:1013000015D902382944C91A40EA07473BE737464E
:10131000304609E70746E7E61846FBE64145ABD20B
:10132000B8EB020A69EB0E0201381346A4E76046E7
:10133000E9E7184695E76746D1E781467CE702383A
:101340002C4447E7ACF1020C2B442FE7384608E762
:101350003746E9E603685A004CBF43F0004323F0E8
:1013600000431844704700BF61B32DE9F84F01F105
:10137000FF3A90460646D146002707EB090404EBE6
:10138000D4746410E50071190846FFF7E3FFA24525
:10139000834605F10800304409D0FFF7DBFFC34561
:1013A00000F1FF3005D8404509D2671CE5E7C34589
:1013B00005D9A74202D004F1FF39DEE70021084633
:1013C000BDE8F88F08467047012807D0022807D0EB
:1013D000044B00280CBF1846002070470248704795
:1013E00002487047B51A0000B91A0000BD1A000083
:1013F00030B5254B83B004468D1E4BB301A928465A
:10140000AFF30080F0B101992A46FFF7ADFF014626
:10141000C0B1FFF79FFF4B68A064012B2ED0002BBB
:1014200001F1040026DBFFF795FF0023C4E9130355
:101430000368002B12DBFFF78DFF002320611846A5
:1014400003B030BD002323610923184603B030BD2B
:101450000E490F48091AC9100191D5E7C3F303607B
:10146000FFF7B2FF002814BF0023092320611846AC
:1014700003B030BD0123C4E91303D9E7002323617E
:101480000523184603B030BD00000000F8E6000058
:1014900050E300000368DA0710B5044606D49B0742
:1014A00000F1480009D500F05FFC2368590709D511
:1014B0001A070ED5DB0613D510BD00F04DFC2368CE
:1014C0005907F5D404F1D00000F056FC23681A0740
:1014D000F0D404F5A87000F057FC2368DB06EBD4C9
:1014E00004F5E870BDE8104000F092BC036803B159
:1014F00003441846704700BF09207047704700BF7B
:1015000070B504460D4608E02B6C63612A462369DA
:10151000214601209847082808D1296C2046FFF76A
:1015200067FF06460028EFD008F0BCFF0728FBD174
:101530003046296CFFF7E2FF281D00F001FC00BFD8
:101540002DE9F0470C1D054617460FCCADF5727D11
:1015500003AE0FC60FCC0FC60FCC0FC694E80F001A
:1015600002ACD5F80C80D5F8189086E80F0000235F
:10157000236021E0236C6B614FF4F07221467AA85E
:1015800000F070FE2B697AAA294630469847889B5E
:10159000CDE900498246636431462B462A46012044
:1015A000C0470746F8B94FF4F0727AA9204600F018
:1015B00059FEBAF1080F1CD1216C2846FFF718FF1D
:1015C000002F08BF0926074618BF0A260028D1D0D9
:1015D000A36B46F01001CDE900492A46636401205F
:1015E0002B46C04700B1092738460DF5727DBDE88E
:1015F000F087BAF1070FF6D13846216CFFF77EFF6E
:1016000003A800F09DFB00BF406C7047F0B5CB6BAA
:101610000B640D1D0F4606460FCDF9B001AC0FC48B
:101620000FCD0FC40FCD0FC495E80F004FF0FF355D
:1016300084E80F00009506E033696A463146984712
:101640000828044608D110993046FFF7D1FE00283B
:10165000F2D0092079B0F0BD6846FFF71BFF062CD9
:10166000F7D139463046FFF74BFF00BF30B4DD6B92
:10167000C160826119461D64002230BC60E700BF72
:1016800070B5C66843690B64BEB903690A4604466F
:101690000D46014602209847072807D0082803D1A5
:1016A00029462046FFF72CFF08F0FCFE3046296C47
:1016B000FFF724FF281D00F043FB0122FFF740FF46
:1016C00008F0F0FEC2681AB1CA6B0A64002237E75C
:1016D0009CE700BF704700BF836813B1014601203B
:1016E00018477047042907D8DFE801F00308060807
:1016F00008000BB90F2A03D9022070470120704758
:1017000000EB820218465368009A1360704700BFCE
:1017100010B584B0002303AC0A4600941946FFF7C5
:10172000E1FF039804B010BD042907D8DFE801F0F9
:101730000308060808000BB90F2A03D902207047D6
:101740000120704700EB8200009A12684260184640
:10175000704700BF10B584B004AC002344F8042DDA
:101760000A4600941946FFF7DFFF04B010BD00BF22
:10177000F0B5D36B1364151D07460E460FCDADF5BE
:101780000F7D17AC0FC40FCD0FC40FCD0FC495E85C
:101790000F004FF0FF3584E80F00169510E016A8F3
:1017A000FFF7D8FF314616A8B84716AA694678B998
:1017B000049B08209847052804460AD0092807D02A
:1017C00026996846FFF714FE6A460C210028E6D0E9
:1017D000092416A8FFF75EFE20460DF50F7DF0BD2B
:1017E0002DE9F04F0D46C96C89B00C1D164600F06E
:1017F000030B0A6806941F46002B68D0130CD9B25D
:1018000012048DF81D30022304EB810405928DF83B
:101810001C302B6DBBF1020F08BFAC6B13F0010342
:1018200046D1019300F008030093D4F80090B9F179
:10183000000F00F0F380022F45D0B4F80090B4F808
:1018400002800434AB6C28F0010A0F2130469A4420
:10185000FFF75EFF824534D829F0010353448342E9
:1018600094BF002001204FEA480808F0020809F060
:10187000010948EA0908B8F1010F3AD031D3B8F1AB
:10188000020F1AD1236823F0004ABBF1000F66D182
:1018900030B1009A002A6CD0BAF1000F00F09080AD
:1018A000002B00DA04340AF1010304EB8304BCE7E3
:1018B000304605A900F046FB78B1092009B0BDE823
:1018C000F08F0020CFE7D4F804800834BAE7120282
:1018D00003230592ADF81C309BE7082009B0BDE852
:1018E000F08FBBF1000F02D0002840F0B480043428
:1018F0009BE7BBF1000F18D1A8B1D4E90023991CD4
:101900004FEAD272D9D005F158010133049100F0A9
:10191000B580201DFFF7EAFD04AB01462846AFF372
:101920000080002867D108347FE70D213046D5F8C4
:101930002080FFF7EDFE8045F5D1AB6A9C42F2D1E5
:101940002046FFF707FD0F2102463046FFF702FF52
:1019500030462A460021FFF7FDFE0720AEE70D21A5
:101960003046D5F82080FFF7D3FE804532D023687B
:1019700096E7BAF1000F23D005F1580304F10408EB
:10198000CDF808B0DDF800900397A3461C4602E0AE
:101990005745B94640D040460494FFF7A7FD04AB35
:1019A000014600222846AFF3008009F1010708F143
:1019B00004080028ECD0D1455C46DDE902B7D6D159
:1019C00030460D21FFF7A4FE049B2862C5E90934C7
:1019D000062073E7AB6A9C42C9D104224FF000088D
:1019E000A318C5E90AA8C5E90C23236843454DDBC4
:1019F0000123019357E780460D213046FFF788FE0B
:101A0000B8F1020F28623ED12B46049A43F82C2FDE
:101A10006B62AC62062051E75C46D1E705A930460F
:101A200000F090FA00287FF448AF019B002B3FF4B0
:101A300054AF0F213046FFF76BFE0E2102463046B1
:101A4000FFF788FE30461A4A0F21FFF783FE072072
:101A500009B0BDE8F08F2046FFF77CFC0434074650
:101A6000AC632846AFF3008000283FF426AF304631
:101A70003A460F21FFF76EFE07201FE730460D2183
:101A8000FFF746FE2862049B6B62C2E70AF1010081
:101A900004EB8000FFF75EFC0F2102463046FFF7A3
:101AA00059FE30462A464146FFF754FE072005E717
:101AB00000000000002393E6012391E602238FE655
:101AC0002DE9F0410546C4B0042906D8DFE801F04D
:101AD0004D2B05030900032B5FD0022044B0BDE865
:101AE000F081002BF9D1102AF7D82B68DC0600F121
:101AF000F48022AC2046019200F094F9A86B019A80
:101B00000023012606FA03F1114203D0016844F8CC
:101B1000231004300133042BF4D1A863204600F0D5
:101B200077F90020DAE7012B4FEA124697B252D03C
:101B3000052BD2D106EB0708B8F1200FCDD80F2E18
:101B400040F29980B846002F40F0DB80AA6BAA6370
:101B50000F2E40F2BE80B8F1000F02D002A800F0B4
:101B60000BF9002044B0BDE8F081002BB5D1AC6B7F
:101B700097B2281D012606FA03F1394203F1010349
:101B800002D0216801600434102B00F10400F2D16E
:101B900012F40050E5D1AC63A0E7160C97B2F3192C
:101BA000102B9AD82B681A075DD422AC204600F07F
:101BB0000DF904EBC601AB6B3FB103EBC70218682C
:101BC00041F8040B04339342F9D12046AB6300F093
:101BD000DBF8002082E7F219102A3FF67EAF0F2EC5
:101BE0003FF67BAF2A68D10708D5284622F00302CA
:101BF00040F8482B019300F0B3F8019B019322AC0D
:101C0000204600F0ADF8A96B019B002F00F09580F5
:101C10007F0004EBC6044FF00008043C01EB870290
:101C200051F8040B44F8040F9142F9D1B8F1000FB8
:101C30000FD002AC102E314638BF102104EBC10189
:101C4000843902EBC80452F8040B41F8040F9442A3
:101C5000F9D1012B7FF47BAF22AC0432AA6320467A
:101C600000F07AF87DE723F008032B6005F5A870F3
:101C700000F0ACF899E7B8F1100F2A6843D9D00703
:101C8000A8F110080BD5284622F0010242F002020A
:101C900040F8482B019300F06BF82A68019B51072C
:101CA00025D40F2E04D822A8019300F061F8019BDF
:101CB000019302AC204600F063F8C6F11001002940
:101CC000AA6B019BB6DD22AC4F0004EBC6041146A3
:101CD000A3E722A800F048F83DE723F010032B60AB
:101CE00005F5E870019200F09DF8019A01E7284699
:101CF00022F0040240F8D02B019300F041F8019B40
:101D0000CFE72A68CBE7D0070AD5284622F00102A0
:101D100042F0020240F8482B019300F029F8019BA1
:101D2000019322AC204600F023F8B846A96B019B32
:101D3000002F7FF46DAF0A4609E70A468DE700BF22
:101D400000F1340191E838009C46A6464CF8045D49
:101D500090E8FF0FE54600BD90EC210B704700BFF7
:101D600080EC210B704700BF90EC200B704700BF48
:101D700080EC200B704700BFD0EC200B704700BFF9
:101D8000C0EC200B704700BFF0EC0201F0EC021138
:101D9000F0EC0221F0EC0231F0EC0241F0EC0251E7
:101DA000F0EC0261F0EC0271F0EC0281F0EC0291D7
:101DB000F0EC02A1F0EC02B1F0EC02C1F0EC02D1C7
:101DC000F0EC02E1F0EC02F1704700BFE0EC020140
:101DD000E0EC0211E0EC0221E0EC0231E0EC024127
:101DE000E0EC0251E0EC0261E0EC0271E0EC028117
:101DF000E0EC0291E0EC02A1E0EC02B1E0EC02C107
:101E0000E0EC02D1E0EC02E1E0EC02F1704700BF4F
:101E1000B0FC0181B0FC0191B0FC01A1B0FC01B1AA
:101E2000704700BFA0FC0181A0FC0191A0FC01A1B2
:101E3000A0FC01B1704700BFEC4600B52DE9005091
:101E40002DE9FF1F4FF000032DE90C0001A9FFF75A
:101E5000DDFBDDF840E012B0704700BFEC4600B596
:101E60002DE900502DE9FF1F4FF000032DE90C0074
:101E700001A9FFF705FCDDF840E012B0704700BF94
:101E8000EC4600B52DE900502DE9FF1F4FF000038F
:101E90002DE90C0001A9FFF715FCDDF840E012B0B8
:101EA000704700BFEC4600B52DE900502DE9FF1F3B
:101EB0004FF000032DE90C0001ABFFF7D7FBDDF875
:101EC00040E012B0704700BFEC4600B52DE900506D
:101ED0002DE9FF1F4FF000032DE90C0001AAFFF7C9
:101EE00047FCDDF840E012B0704700BF027A82B9CB
:101EF000437AABB14268013B10B4437213680321CB
:101F0000141D01721A02446002605DF8044B180E41
:101F100070470368013A02721A020260180E704795
:101F2000B020704700B585B003AA0023009219467F
:101F30000C22FFF7D7FB039805B05DF804FB00BF48
:101F4000F0E700BF2DE9F043054685B00E464FF09F
:101F500000083046FFF7CAFFB028044600F0B18001
:101F6000070620D500F0F003802B65D0902B36D0EB
:101F7000A02B78D0B02B47D0C02B00F08A8000F087
:101F8000F803D02B0BD100F00702013242F40022FB
:101F9000052301212846FFF793FD0028D9D0092009
:101FA00005B0BDE8F0830DF10C0900231946870048
:101FB000CDF800900D222846FFF794FBFFB2039B5B
:101FC000CDF80090043760064CBFDF1BFF180023DC
:101FD00019460D2228460397FFF7A6FBB9E700F044
:101FE0000D030D2BDBD003AF002300F00F021946C9
:101FF00000972846FFF776FB0023009719460D222D
:102000002846FFF791FBA4E7B1285FD0B22800F083
:10201000CC80B3287ED000F0FC03B42BBFD000F0FE
:1020200007020132012342F4002219462846FFF735
:1020300047FD00288DD0B2E73046FFF757FF240256
:102040000443B4F5004FAAD024010023A2B21946DC
:102050002846FFF735FD0028A1D114F4004F18BF22
:102060004FF0010875E7C24302F007034FF47F62A7
:102070001A41010702F47F624FF0000348BF42F4A7
:10208000804219462846FFF71BFD00283FF461AF48
:1020900085E7C62851D0C7285AD000F0F803C02BD6
:1020A00069D0C82875D0C9287FF479AF3046FFF7CA
:1020B0001DFF020300F00F0002F470220130024302
:1020C00066E7B8F1000F14D0002069E73046FFF74B
:1020D0000DFF00283FF463AF10F0F0037FF45FAF13
:1020E000024619462846FFF7EBFC00283FF431AFC3
:1020F00055E703AC43460E22414600942846FFF7BD
:10210000F1FA0094284643460F224146FFF70CFBA4
:10211000404645E73046FFF7E9FE010300F00F00B7
:1021200001F47021421C01230A4328461946FFF797
:10213000C7FC00283FF40DAF31E73046FFF7D6FE6D
:10214000010300F00F0001F47021421C0323EBE7B0
:102150003046FFF7CBFE024600283FF420AF10F0D8
:10216000F0037FF41CAF04212846FFF7A9FC0028E8
:102170003FF4EFAE13E700F00F020132032342F405
:10218000202219462846FFF79BFC00283FF4E1AEC9
:1021900005E73046FFF7AAFE00F0F00200F00F035B
:1021A0001032013343EA0232F2E600230DF10C094A
:1021B0000D221946CDF800902846FFF793FA3046D5
:1021C000FFF794FE02064FF002070CD5039B00F0C8
:1021D0007F00B840034430460393FFF787FE0306B1
:1021E00007F10707F2D4039BCDF8009000F07F04BD
:1021F00003F50172BC400023144419460D22284601
:102200000394FFF791FAA4E610B5C36C84B05A6842
:1022100003208DF80C00DC798DF80D401202083394
:10222000084601A901920293FFF78CFE04B010BD8D
:1022300008B5FFF785FE806C08BD00BF08B5FFF745
:102240007FFEC06CC37900EB8300083008BD00BF7F
:1022500008B508F027F900BF08B5FFF7F9FF00BF80
:10226000704700BF844641EA000313F003036DD1B9
:10227000403A41D351F8043B40F8043B51F8043B49
:1022800040F8043B51F8043B40F8043B51F8043B50
:1022900040F8043B51F8043B40F8043B51F8043B40
:1022A00040F8043B51F8043B40F8043B51F8043B30
:1022B00040F8043B51F8043B40F8043B51F8043B20
:1022C00040F8043B51F8043B40F8043B51F8043B10
:1022D00040F8043B51F8043B40F8043B51F8043B00
:1022E00040F8043B51F8043B40F8043B51F8043BF0
:1022F00040F8043B403ABDD2303211D351F8043B90
:1023000040F8043B51F8043B40F8043B51F8043BCF
:1023100040F8043B51F8043B40F8043B103AEDD23E
:102320000C3205D351F8043B40F8043B043AF9D28F
:10233000043208D0D2071CBF11F8013B00F8013B62
:1023400001D30B8803806046704700BF082A13D36F
:102350008B078DD010F003038AD0C3F10403D21A87
:10236000DB071CBF11F8013B00F8013B80D331F8BB
:10237000023B20F8023B7BE7043AD9D3013A11F83B
:10238000013B00F8013BF9D20B7803704B784370A6
:102390008B788370604670470000000000000000EA
:1023A00001F0FF01102A2BDB10F0070F08D010F806
:1023B000013B013A8B422DD010F0070F42B3F6D10A
:1023C000F0B441EA012141EA014122F007047FF023
:1023D00000070023F0E80256083C85EA010586EA7A
:1023E000010685FA47F5A3FA87F586FA47F6A5FAB6
:1023F00087F68EB9EED1F0BC01F0FF0102F00702C2
:1024000032B110F8013B013A83EA010313B1F8D16C
:102410000020704701387047002D06BF354603384D
:10242000073815F0010F07D1013015F4807F02BF86
:10243000013015F4C03F0130F0BC0138704700BFD7
:1024400090F800F06DE9024520F007016FF0000CF4
:1024500010F0070491F820F040F049804FF000049C
:102460006FF00700D1E9002391F840F000F1080077
:1024700082FA4CF2A4FA8CF283FA4CF3A2FA8CF3AF
:102480004BBBD1E9022382FA4CF200F10800A4FA16
:102490008CF283FA4CF3A2FA8CF3E3B9D1E904236A
:1024A00082FA4CF200F10800A4FA8CF283FA4CF3A1
:1024B000A2FA8CF37BB9D1E9062301F1200182FA5B
:1024C0004CF200F10800A4FA8CF283FA4CF3A2FA61
:1024D0008CF3002BC6D0002A04BF04301A4612BA6F
:1024E000B2FA82F2FDE8024500EBD2007047D1E972
:1024F000002304F00305C4F100004FEAC50514F001
:10250000040F91F840F00CFA05F562EA05021CBFD1
:1025100063EA050362464FF00004A9E780B584B082
:1025200000AFF860B9601346FB71BB681F2B05D97B
:102530000D4B0E4AFF210E4807F0BCFFFB68BA683E
:1025400053F8223023F0807323F4E063FA79120207
:1025500002F4E06243EA0201FB68BA6843F8221021
:1025600000BF1037BD4680BDF0CE0000B4D00000E3
:10257000FCCE000080B483B000AF78600B46FB70E7
:102580007B681B6823F01802FB78DB0003F018035C
:102590001A437B681A6000BF0C37BD465DF8047BA8
:1025A0007047000090B58FB000AF786187ED020BE7
:1025B00087ED001B524A7B695B01134411331B7882
:1025C000002B40F08780002387F82830002387F80D
:1025D0002930002387F82A308023FB62484A7B6930
:1025E0005B0113441868464A7B695B01134404335A
:1025F0001968434A7B695B01134410331B781A4600
:10260000FFF78CFF3E4A7B695B01134408331B686C
:1026100007F128021146184606F0BAF9384A7B69D4
:102620005B01134408331B68DBB20022012118460A
:1026300006F032FA324A7B695B01134411330422FB
:102640001A702F4A7B695B01134403F11802D7E922
:102650000234C2E9003402233B7600237B76284A09
:102660007B695B0113441833D3E9003418462146D3
:10267000FEF782FC0346FB61D7E90001FEF77CFC14
:1026800003463B620023BB841D4A7B695B01134404
:1026900008331B681B4A52F823303B630021386B18
:1026A000FFF768FF164A7B695B011344083318681B
:1026B000134A7B695B0113440C331B68DAB207F1E0
:1026C0001803194606F046FA7B695B010C4A13446D
:1026D0007B630FE00A4A7B695B01134411331B786B
:1026E000042B05D17B695B01054A13447B6301E040
:1026F00000237B637B6B18463C37BD4690BD00BF13
:10270000C001002070D8000080B483B000AF7860B2
:1027100000BF0C37BD465DF8047B704790B58BB0A9
:1027200000AFF86087ED000BFB687B627B6A002BD3
:102730002CD07B6A5B7C042B28D102233B740023C2
:102740007B747B6AD3E9063418462146FEF714FCF5
:1027500003467B61D7E90001FEF70EFC0346BB612F
:102760000023BB837B6A9B680A4A52F823303B6292
:102770000021386AFFF7FEFE7B6A98687B6ADB6897
:10278000DAB207F11003194606F0E4F900BF2C375E
:10279000BD4690BD70D8000080B485B000AF7860B1
:1027A0007B68FB60FB68002B06D0FB685B7C042B1E
:1027B00002D1FB6800225A7400BF1437BD465DF891
:1027C000047B704780B483B000AF786000BF0C37E3
:1027D000BD465DF8047B704780B584B000AFF860FB
:1027E000B9607A60BB680F2B06D90A4B0A4A40F2DF
:1027F000E2210A4807F05EFEFA68BB685B011344F9
:1028000003F5805310337A681A6000BF1037BD4655
:1028100080BD00BF34CF0000ECD0000060CF0000CE
:1028200080B584B000AFF860B9601346FB71BB6837
:102830000F2B06D90C4B0D4A4FF460710C4807F072
:1028400039FEBB685B0103F580531833FA68134403
:10285000043303F104735B010433FA7992B21A80F2
:1028600000BF1037BD4680BD34CF000008D1000046
:1028700060CF000090B587B000AFF8607A603B6031
:102880000B46FB7200237B61FB681B68022B00F088
:102890004D81032B00F0DF81012B00F09580954BDB
:1028A00000221A60934B1B68934A52F82330002B86
:1028B00041D1904B1B68914ADB00134400229A716E
:1028C0008C4B1B688D4ADB00134400221A71894B24
:1028D0001B688A4ADB00134400225A71854B1B682F
:1028E000864A4FF4E13142F83310824B1B68184698
:1028F00002F0FAFD7F4B1B689B01814A134481491A
:10290000184605F057FF7B4B18687A4B1A68134638
:102910001B019B1A9B007C4A9918764B1B68DB00B5
:10292000764A13441A4606F07DFF724B1B68724AC2
:10293000012142F823107B68B3F1FF3F20D06D4B9B
:102940001A68724913469B0013449B000B442722CC
:102950001A60684B1A686D4913469B0013449B002C
:102960000B4408336A4A1A60624B1A686749134677
:102970009B0013449B000B440C33664A1A6015E01D
:102980005C4B1A68614913469B0013449B000B443F
:10299000043327221A60574B1A685C4913469B0080
:1029A00013449B000B4410335B4A1A60514B1B6865
:1029B000504A1268594941F823204E4B1B689B002E
:1029C000564A13447B61DBE14A4B01221A60494BB2
:1029D0001B68494A52F82330002B41D1454B1B68F4
:1029E000464ADB00134400229A71424B1B68434A5B
:1029F000DB00134400221A713E4B1B683F4ADB0088
:102A0000134400225A713B4B1B683C4A4FF4E1319E
:102A100042F83310374B1B68184602F065FD354B02
:102A20001B689B01364A13443649184605F0C2FE1E
:102A3000304B18682F4B1A6813461B019B1A9B00DA
:102A4000314A99182B4B1B68DB002C4A13441A4659
:102A500006F0E8FE274B1B68274A012142F82310A5
:102A60007B68B3F1FF3F20D0224B1A6827491346F9
:102A70009B0013449B000B4400221A601D4B1A68F4
:102A8000224913469B0013449B000B440833244AFD
:102A90001A60184B1A681D4913469B0013449B008B
:102AA0000B440C331F4A1A6015E0124B1A68174981
:102AB00013469B0013449B000B44043300221A600E
:102AC0000C4B1A68114913469B0013449B000B449E
:102AD0001033154A1A60074B1B68064A12680F49E3
:102AE00041F82320034B1B689B000C4A13447B6175
:102AF00046E100BFA0120020A4120020C011002057
:102B0000D80E00200000002058100020F8110020EE
:102B1000600E0020880E0020B00E002088120020D9
:102B2000B00E0020B00E0020D80E0020AD4B0222C7
:102B30001A60AC4B1B68AC4A52F82330002B41D1D1
:102B4000A84B1B68A94ADB00134400229A71A54BCD
:102B50001B68A64ADB00134400221A71A14B1B68B4
:102B6000A24ADB00134400225A719E4B1B689F4A05
:102B70004FF4E13142F833109A4B1B68184602F0CB
:102B8000B3FC984B1B689B01994A1344994918461A
:102B900005F010FE934B1868924B1A6813461B0100
:102BA0009B1A9B00944A99188E4B1B68DB008F4A36
:102BB00013441A4606F036FE8A4B1B688A4A0121E6
:102BC00042F823107B68B3F1FF3F20D0854B1A6891
:102BD0008A4913469B0013449B000B4400221A6051
:102BE000804B1A68854913469B0013449B000B4495
:102BF0000833834A1A607B4B1A68804913469B004E
:102C000013449B000B440C337E4A1A6015E0754B4D
:102C10001A687A4913469B0013449B000B44043303
:102C200000221A606F4B1A68744913469B001344C4
:102C30009B000B441033744A1A606A4B1B68694A44
:102C40001268724941F82320664B1B689B006F4A4B
:102C500013447B6194E0634B03221A60614B1B6851
:102C6000614A52F82330002B41D15E4B1B685F4A0A
:102C7000DB00134400229A715A4B1B685B4ADB004D
:102C8000134400221A71574B1B68584ADB00134447
:102C900000225A71534B1B68544A4FF4E13142F8F9
:102CA0003310504B1B68184602F01EFC4D4B1B683E
:102CB0009B014F4A13444F49184605F07BFD494B91
:102CC0001868484B1A6813461B019B1A9B004A4A16
:102CD0009918444B1B68DB00444A13441A4606F01B
:102CE000A1FD404B1B68404A012142F823107B683C
:102CF000B3F1FF3F20D03B4B1A68404913469B007D
:102D000013449B000B4400221A60364B1A683B495F
:102D100013469B0013449B000B4408333C4A1A6043
:102D2000304B1A68354913469B0013449B000B44F3
:102D30000C33384A1A6015E02A4B1A682F4913469B
:102D40009B0013449B000B44043300221A60254B64
:102D50001A682A4913469B0013449B000B44103306
:102D60002D4A1A601F4B1B681E4A1268274941F8FA
:102D700023201C4B1B689B00244A13447B6100BF2B
:102D80007B68B3F1FF3F28D0164B1A6813461B012E
:102D90009B1A9B002833184A1344181D114B1B68BB
:102DA0001A461E4905F044FD0E4B18680D4B1A6873
:102DB000124913469B0013449B000B4408331C68C4
:102DC000084B1A680D4913469B0013449B000B44A3
:102DD0001B681A46214600F0DFF87B6918461C374D
:102DE000BD4690BDA0120020A4120020C0110020FA
:102DF000D80E00200000002058100020F8110020FC
:102E0000B00E0020B00E0020D80E00208812002046
:102E1000B00E0020B00E0020D80E0020453000007B
:102E200080B483B000AF78603960002318460C3757
:102E3000BD465DF8047B704780B483B000AF786016
:102E4000084611461A460346FB700B46BB701346F4
:102E50007B70002318460C37BD465DF8047B704735
:102E600080B586B000AFF860B9607A60FB683B61FE
:102E70003B69002B33D03B691B681F4AD35C012B95
:102E80002DD13B691B681D4A52F82330012B0FD10D
:102E90003B691A681A4913469B0013449B000B4474
:102EA00008331B687A681946B868FFF7DBF90EE04B
:102EB0003B691A68124913469B0013449B000B445C
:102EC0000C331B687A681946B868FFF7CBF93B6981
:102ED0001B68094A0021D1540023FB7506E07A687B
:102EE0000021B86807F026FE2023FB75FB7D1846FD
:102EF0001837BD4680BD00BFF011002070120020C1
:102F0000F811002080B586B000AFF860B9607A6033
:102F1000FB683B613B69002B2AD03B691B680021A1
:102F2000184606F0C1FD0346082B21D03B691A68FC
:102F3000134913469B0013449B000B4410331B683A
:102F40007A68B9681846FFF78DF93B6918683B69DC
:102F50001A680B4913469B0013449B000B44103323
:102F60001B687A68194606F07BFD0346FB7501E095
:102F70002023FB75FB7D18461837BD4680BD00BF7A
:102F8000F811002080B483B000AF786000BF0C3728
:102F9000BD465DF8047B704780B588B000AFF8602F
:102FA000B9607A60FB68052B06D9214B214A40F2B3
:102FB0008911214807F07EFA204AFB6852F8233035
:102FC000FB61FB6993F82C301B09DBB21A461C4BE2
:102FD00053F82230BB61FB6993F82C3003F00F03E8
:102FE0007B61FB695B78DBB2002B01D009231AE01F
:102FF000FB6901225A70BB681A467969B869FFF704
:10300000EBFB7A687969B86905F01CFB01227969E4
:10301000B869FFF705FC7B69DBB201221946B86984
:1030200005F00BFA002318462037BD4680BD00BFCF
:1030300098CF0000C8D00000B8CF00003C45002069
:1030400030D6000080B582B000AF78600B46FB70D0
:103050007B68184600F004F800BF0837BD4680BD05
:1030600080B586B000AF78607B68052B06D93D4BF4
:103070003D4A40F2AD113D4807F01CFA3C4A7B68DE
:1030800052F823307B617B6993F82C301B09DBB24B
:103090001A46384B53F822303B617B6993F82C3049
:1030A00003F00F03FB600022F9683869FFF7B8FBF3
:1030B000FB68DBB200221946386905F0BEF97B696E
:1030C000DB78DBB2002B04D07B691033184604F0A8
:1030D0002FFF7B6900225A70274A7B681344012224
:1030E0001A70264A7B6852F82330002B1BD12449E2
:1030F0007A6813469B0013449B000B440C331868FA
:103100001F497A6813469B0013449B000B441B68BD
:103110001A4601467868FFF73FFF184A7B6801218D
:1031200042F823101AE016497A6813469B001344AC
:103130009B000B440833186811497A6813469B00BA
:1031400013449B000B441B681A4601467868FFF73E
:1031500023FF0A4A7B68002142F8231000BF18377A
:10316000BD4680BD98CF000020D10000B8CF000040
:103170003C45002030D60000F011002070120020E5
:10318000F811002080B590B000AF78600B46FB705E
:10319000FB78002B27D107F1240300221A605A6024
:1031A0009A60DA601A615A612D4A7B6852F83330AE
:1031B0007B62012387F82830012387F829304FF0FC
:1031C000FF333B6307F12403184605F0B5FD244A9D
:1031D0007B68DB00134401221A717B68DB00204A04
:1031E0001344FB6336E0FB78012B31D107F10C036C
:1031F00000221A605A609A60DA601A615A61184AAD
:103200007B6852F83330FB6001233B754FF0FF338E
:10321000BB6107F10C03184605F0FEFD104A7B6800
:10322000DB00134402221A717B68292B0AD97B68C0
:103230002C2B07D80A4A7B6852F8333001211846F4
:1032400005F022FE7B68DB00054A1344FB6301E0C6
:103250000023FB63FB6B18464037BD4680BD00BFB3
:103260004400002080B586B000AF78607B683B6189
:103270003B69002B0BD03B691B79012B07D13B69C4
:103280001B68184605F00EFE0346FB7501E000239F
:10329000FB753B691B681B0ADBB2FB603B691B6863
:1032A000DBB2BB60FB68022B02D1BB68062B05D0EA
:1032B000FB68002B09D1BB68042B06D1FB7D002BDA
:1032C0000CBF01230023DBB2FB75FB7D18461837CA
:1032D000BD4680BD80B586B000AF78600B46FB7000
:1032E0007B687B617B69002B2FD07B691B79022B6C
:1032F0002BD17B691B681B0ADBB23B617B691B68B6
:10330000DBB2FB603B69012B05D1FB68162B08D0B3
:10331000FB68152B05D03B69042B0FD1FB681A2BDA
:103320000CD17B691A68FB78012B14BF01230023A1
:10333000DBB21946104605F0A7FD06E07B691B6865
:10334000FA781146184605F09FFD00BF1837BD46B4
:1033500080BD80B485B000AF78607B68FB60FB689F
:10336000002B0ED0FB681B79022B03D1FB680022D7
:103370001A7106E0FB681B79012B02D1FB68002261
:103380001A7100BF1437BD465DF8047B704700001A
:1033900080B582B000AF094BD3F898317B60074B02
:1033A0000822C3F8982100F00BFB044A7B68C2F89E
:1033B000983100BF0837BD4680BD00BFC81300204C
:1033C00098B500AF274B012283F80121254B00223D
:1033D00083F80021234B002283F8FF20224BD3E9FE
:1033E00064014FF00002214BFDF77EFD0346002BE8
:1033F00008D01C4B012283F802211A4B002283F8CB
:10340000032107E0174B002283F80221154B01220C
:1034100083F80321134BD3F884301846FDF782FA62
:103420004FF00002124BFDF721FC03460C4644EC22
:10343000173BB0EE470AF0EE670A02F0A1FE54EC2B
:10344000103B18462146FDF797FD0246054BC3F891
:103450008820044B012283F80421FFF799FF00BF65
:1034600098BD00BFBC120020C81300200000F03F30
:103470000000144080B582B000AF094BD3F89831FA
:103480007B60074B0922C3F8982100F099FA044A9F
:103490007B68C2F8983100BF0837BD4680BD00BFC9
:1034A000C813002080B500AFFFF7E4FF00BF80BD68
:1034B00090B484B000AF03460A46FB711346BB715B
:1034C000FB79012B05D14FF000030E4CC7E9023404
:1034D0000CE0BB79012B03D14FF00003094C03E052
:1034E0004FF000034FF00004C7E90234D7E902347B
:1034F00044EC173BB0EE470AF0EE670A1037BD46C2
:1035000090BC70470000F03F90B484B000AF034619
:103510000A46FB711346BB71FB79002B02D0022BCC
:1035200006D00BE04FF00003174CC7E902341FE050
:103530004FF00003144CC7E9023419E0BB79002BAB
:1035400002D0022B06D00BE04FF000030E4CC7E96F
:1035500002340CE04FF000030B4CC7E9023406E0E4
:103560004FF000034FF00004C7E9023400BF00BF72
:10357000D7E9023444EC173BB0EE470AF0EE670A95
:103580001037BD4690BC70470000F03F80B500AFDB
:10359000FFF770FF00BF80BD90B583B000AFBB4B9D
:1035A000D3F89831092B24D1B84B002283F8A521F8
:1035B000B64B002283F8A621B44B002283F8A42145
:1035C000B24B022283F8A321B04B022283F8A72139
:1035D000AF4B002283F80421AD4B012283F8012177
:1035E000AB4B002283F80221A94B002283F8032170
:1035F000DEE1A64B93F8A431022B00F0D080032B20
:1036000000F01581012B00D0D2E1A04BD3F8983106
:10361000032B13D19D4B002283F8A5219B4B032242
:1036200083F8A421994B012283F8A621974A4FF0F1
:1036300000034FF08044C2E96434B6E1934B93F841
:10364000A531013B052B00F2B08101A252F823F015
:1036500069360000BB360000293700006B370000D8
:10366000893700008F370000894B93F8BE30022B5A
:1036700004D0032B07D0012B0ED016E0834B06227B
:1036800083F8A52118E0814B042283F8A5217F4B04
:103690000022C3F89C210FE07C4B032283F8A52174
:1036A0007A4B0022C3F89C2106E0784A4FF00003D1
:1036B000784CC2E9643400BF70E0754BB3F8C23097
:1036C0001A46734BB3F8CE30D31A7B60704BB3F805
:1036D000C2301A467B68934201D900237B607B6825
:1036E0000A337B607B68B3F5803F02D34FF6FF73EC
:1036F0007B60664BD3F89C317A689A4206D8634B5C
:10370000052283F8A521FFF7CDFE42E0604B93F838
:10371000FB30002B3DD05D4B002283F8A5215B4B95
:10372000022283F8A42134E0594BB3F8CE301A4674
:10373000574BB3F8C030D31A7B60554BB3F8CE303B
:103740001A467B68934201D900237B604F4BD3F824
:103750009C317A689A421ED84C4B022283F8A521EC
:103760004A4B0022C3F89C2115E0484BD3F89C310A
:10377000474AB2F8C22093420FD3444B052283F844
:10378000A521FFF78FFE08E0FFF774FE06E000BFFB
:103790000BE100BF09E100BF07E100BF05E13C4BC1
:1037A00093F8BD203A4B93F8BC3019461046FFF70A
:1037B0007FFE51EC100B4FF00002364BFDF794FBEF
:1037C0000346002B0FD0314B032283F8A4212F4B4B
:1037D000012283F8A6212D4A4FF000034FF08044C8
:1037E000C2E96434E4E02A4B93F8BD20284B93F8F7
:1037F000BC3019461046FFF787FE51EC100B4FF016
:103800000002244BFDF770FB0346002B00D1CFE0F4
:103810001E4B012283F8A4211C4B012283F8A52111
:103820001A4A4FF000031B4CC2E96434C0E0174B46
:1038300093F8A631013B042B00F2B98001A252F8A3
:1038400023F000BF59380000AB38000019390000E0
:103850005B390000993900000D4B93F8BE30012B05
:1038600002D0032B09D017E0084B032283F8A621CE
:10387000064B0022C3F89C2116E0044B042283F877
:10388000A621024B0022C3F89C210DE0C8130020A2
:10389000BC1200200000F03F474A4FF000034FF0F9
:1038A0008044C2E9643400BF7EE0444BB3F8C230C8
:1038B0001A46424BB3F8CC30D31A7B603F4BB3F877
:1038C000C2301A467B68934201D900237B607B6833
:1038D0000C337B607B68B3F5803F02D34FF6FF73F8
:1038E0007B60354BD3F89C317A689A4206D8324BCC
:1038F000052283F8A621FFF749FE50E02F4B93F8ED
:10390000FC30002B4BD02C4B002283F8A6212A4BF5
:10391000022283F8A42142E0284BB3F8CC301A46A7
:10392000264BB3F8C030D31A7B60244BB3F8CC30AD
:103930001A467B68934201D900237B601E4BD3F863
:103940009C317A689A422CD81B4B022283F8A6211C
:10395000194B0022C3F89C2123E0184BB3F8C23066
:103960001A46164BB3F8C030D31A7B60134BB3F82A
:10397000C2301A467B68934201D900237B600E4B0C
:10398000D3F89C317A689A420DD80B4B052283F804
:10399000A621FFF7FBFD06E0FFF76CFD04E000BF8A
:1039A00005E000BF03E000BF01E000BF00E000BF92
:1039B00000BF0C37BD4690BDC8130020BC120020CC
:1039C00098B500AFB34B93F8A231002B4FD1B14B58
:1039D000012283F8A221AF4B012283F8A321AE4B31
:1039E000002283F8FD20AC4B002283F8FE20AA4B76
:1039F000D3F884301846FCF795FF4FF00002A74B30
:103A0000FDF734F903460C4644EC173BB0EE470A89
:103A1000F0EE670A02F0B4FB54EC103B1846214666
:103A2000FDF7AAFA02469C4BC3F888209A4B002265
:103A300083F8FF20984B002283F80021964B012247
:103A400083F80121944B002283F80221924B00223B
:103A500083F80321904B012283F804218E4B00222E
:103A600083F805218C4B002283F806210FE1894B56
:103A700093F8A331022B0ED0032B00F00581012B0C
:103A800000D004E1834B032283F8A321814B02225F
:103A900083F8A421FBE07F4BD3F89831052B0ED09F
:103AA000082B24D17B4B002283F8A721794B0322DA
:103AB00083F8A321774B022283F8A421E3E0754B1E
:103AC000002283F8A721734B032283F8A321714BB3
:103AD000032283F8A4216F4B012283F8A6216D4AAB
:103AE0004FF000034FF08044C2E96434CBE0694BEF
:103AF00093F8A731013B032B00F2C48001A252F8D6
:103B000023F000BF153B0000B13B0000353C000036
:103B10005D3C0000604B012283F801215E4B0022D6
:103B200083F800215C4B002283F8FF20594BD3E936
:103B300064014FF000025A4BFDF7D6F90346002B03
:103B400008D0554B012283F80221534B002283F801
:103B5000032107E0504B002283F802214E4B012243
:103B600083F803214C4BD3F884301846FCF7DAFE77
:103B70004FF00002494BFDF779F803460C4644EC40
:103B8000173BB0EE470AF0EE670A02F0F9FA54EC80
:103B9000103B18462146FDF7EFF902463E4BC3F8AD
:103BA00088203D4B012283F80421FFF7F1FB69E0F7
:103BB000384BD3E964014FF00002394BFDF794F91B
:103BC0000346002B0CD0334B032283F8A721314B43
:103BD0000022C3F89C21304B012283F8FF2051E0E2
:103BE0002C4BD3E964014FF000024FF08043FDF706
:103BF0007BF90346002B0CD0264B042283F8A72127
:103C0000244B0022C3F89C21234B012283F800217E
:103C100038E0214B002283F804211F4B012283F856
:103C200001211D4B002283F802211B4B002283F847
:103C3000032127E0174BD3F89C31174AB2F8C02074
:103C4000934206D3134B012283F8A721FFF7B8FB59
:103C500018E0114B012283F8FF2013E00D4BD3F83D
:103C60009C310D4AB2F8C020934206D3094B012281
:103C700083F8A721FFF7A4FB03E0074B012283F899
:103C8000002100BF00BF02E0FFF786FC00BF00BFBD
:103C900098BD00BFC8130020BC12002000001440D3
:103CA0000000F03F80B582B000AF78607B685B6851
:103CB000012B08D17B681B7A002B04D07B681B6921
:103CC0001846FFF75FF900BF0837BD4680BD80B5D5
:103CD00082B000AF78607868FFF7E4FF00BF083774
:103CE000BD4680BD80B582B000AF78607B681B7830
:103CF000002B05D17B6801221A707868FFF7E7FF77
:103D000000BF0837BD4680BD80B582B000AF786087
:103D10007B685B68012B08D17B681B7A002B04D081
:103D20007B681B691846FFF714FB00BF0837BD46C8
:103D300080BD80B582B000AF78607868FFF7E4FF9F
:103D400000BF0837BD4680BD80B582B000AF786047
:103D50007B681B78002B05D17B6801221A7078687C
:103D6000FFF7E7FF00BF0837BD4680BD80B582B0D2
:103D700000AF78607B685B68012B08D17B681B7A99
:103D8000002B04D07B681B691846FFF7E2FA00BFDE
:103D90000837BD4680BD80B582B000AF78607868D6
:103DA000FFF7E4FF00BF0837BD4680BD80B582B095
:103DB00000AF78607B681B78002B05D17B680122FF
:103DC0001A707868FFF7E7FF00BF0837BD4680BD6F
:103DD00080B582B000AF78607B685B68012B0DD145
:103DE0007B681B7A002B09D07B681B691846FEF79D
:103DF000D3FC7B681B691846FEF7E4FC00BF08375C
:103E0000BD4680BD80B582B000AF78607868FFF7AE
:103E1000DFFF00BF0837BD4680BD80B582B000AF70
:103E200078607B681B78002B05D17B6801221A70B3
:103E30007868FFF7E7FF00BF0837BD4680BD000088
:103E400080B584B000AF78607B6800221A727B680E
:103E500001225A60164B4FF0FF329A67144B002232
:103E6000DA67134B9B6F0A2200211248FEF702FD0E
:103E700002467B681A617B681B694FF4E131184682
:103E8000FEF7CEFF0A4B012283F880200023FB734C
:103E90007B681869064B93F88030FA7B0821FEF79F
:103EA000CBFF7B6801221A7200BF1037BD4680BD70
:103EB000BC12002038130020B0B584B000AF9B4B7B
:103EC000D3E916019A4BD3E90023FDF70DF8034619
:103ED000002B05D1964BD3E900239449C1E9162361
:103EE000924B1B6D272293491846FEF7B9FF0346F4
:103EF000FB7027228F499048FEF7B4F98B4B93F85B
:103F0000A031002B4ED1894B012283F8A021874B91
:103F1000012283F8A121894B002283F8F420874BEA
:103F20003C2283F8F520854B502283F8F620834B02
:103F30004FF08142C3F8A420804B814AC3F8A820E7
:103F40007E4B4FF08142C3F8AC207C4B7C4AC3F8D7
:103F5000B0207A4BC822A3F8CC20784BC822A3F813
:103F6000CE20764BC822A3F8D020744B2822A3F889
:103F7000D220724B782283F8F720704B1E2283F8F0
:103F8000F8206E4B082283F8F9206C4B052283F849
:103F9000FA206A4B6B4AC3F8B420684B694AC3F8ED
:103FA000B82077E0614B93F8A131012B02D0022BAE
:103FB00005D009E05D4B032283F8A1216AE05B4B49
:103FC000032283F8A12165E0FB78002B61D1574BD8
:103FD000022283F8A121594B93F82720574B83F8ED
:103FE000F420564B93F82820544B83F8F520534B7C
:103FF00093F82920514B83F8F62004225249534864
:10400000FEF730F9042252495248FEF72BF90422F8
:1040100051495248FEF726F9042251495148FEF70A
:1040200021F9022250495148FEF71CF90222504959
:104030005048FEF717F902224F495048FEF712F98F
:1040400002224F494F48FEF70DF93C4B93F84220AE
:104050003A4B83F8F720394B93F84320374B83F8DA
:10406000F820364B93F84420344B83F8F920334B37
:1040700093F84520314B83F8FA2004224249434803
:10408000FEF7F0F8042242494248FEF7EBF801F04F
:104090009BFB00BF294B002283F8BD20274B002249
:1040A00083F8BC20254B93F8F430092B04D8234B1C
:1040B000002283F8BD2012E0204B93F8F430132B3C
:1040C00004D81E4B012283F8BD2008E01B4B93F857
:1040D000F4301D2B03D8194B022283F8BD20174B57
:1040E00093F8F4202C4BA3FB021399080B469B007A
:1040F0000B44D31ADBB2012B50D1104B93F8F430A0
:10410000092B04D80D4B002283F8BC2008E00B4B90
:1041100093F8F430132B03D8084B012283F8BC200A
:10412000064B012283F8BE2040E000BFC8130020E8
:10413000080000200A130020E3120020BC12002017
:104140000000204100007042E612002060130020B1
:10415000EA12002064130020EE12002068130020F1
:10416000F21200206C130020F612002088130020A9
:10417000F81200208A130020FA1200208C1300206D
:10418000FC1200208E130020021300207013002068
:104190000613002074130020CDCCCCCCC24B0322DC
:1041A00083F8BC20C04B032283F8BE20BF4BD3E969
:1041B0000601BF4BD3E90423FCF796FE0346002B10
:1041C00005D1BB4BD3E90423B849C1E90623B74B5A
:1041D0001B691846FFF746F803461A46B24B83F8A8
:1041E000FB20B24BD3E90E01B14BD3E90223FCF71C
:1041F0007BFE0346002B05D1AD4BD3E90223AB492F
:10420000C1E90E23A94B1B6B1846FFF72BF8034699
:104210001A46A54B83F8FC20A34BD3F8A8301846C8
:10422000FCF7A2FB02460B4643EC102B05F018FFEF
:1042300053EC102B10461946FCF7BEFE03467B607C
:10424000D7ED017A9FED9B7AF4EEC77AF1EE10FA82
:104250002CD5D7ED017AB6EE007AF4EEC77AF1EEFE
:1042600010FA19DB904BD3ED2A7AB6EE007A77EE8E
:10427000877A17EE900AFCF777FB02460B4643EC71
:10428000102B05F0F9FE53EC102B10461946FCF7E5
:1042900093FE03467B600DE0834BD3ED2A7A9FEDBE
:1042A000867A67EE877AC7ED017A03E07E4BD3F812
:1042B000A8307B6097ED010A01F046FF0346002B12
:1042C00006D197ED010A01F0E3FE0346002B03D06F
:1042D0004FF000037B6012E07868FCF745FB024674
:1042E0000B469FED6D1B43EC102B05F04DFF53EC7F
:1042F000102B10461946FCF75FFE03467B60D7ED96
:10430000017AF5EEC07AF1EE10FA0BD5D7ED017A0D
:10431000F1EE677AFCEEE77A17EE903A9BB25B42D9
:104320009BB206E0D7ED017AFCEEE77A17EE903A01
:104330009BB25D4AA2F8C0305D4B93ED0C7A5A4BAC
:10434000D3ED297A67EE277AB0EE670A01F092FF83
:10435000F0EE407AC7ED017A97ED010A01F0F4FE24
:104360000346002B06D197ED010A01F091FE0346AA
:10437000002B03D04FF000037B6012E07868FCF75D
:10438000F3FA02460B469FED461B43EC102B05F05B
:10439000FBFE53EC102B10461946FCF70DFE0346AE
:1043A0007B60D7ED017AF5EEC07AF1EE10FA0AD50E
:1043B000D7ED017AF1EE677AFCEEE77A17EE903AE4
:1043C0005B421A4605E0D7ED017AFCEEE77A17EE7C
:1043D000902A354BC3F88420334B93F8F5301846B8
:1043E000FCF7A0FA02460B464FF000003349FCF7F9
:1043F0003DFC02460B46104619462D4BD3E90623D9
:10440000FCF70AFB02460B4643EC172BB0EE470ABB
:10441000F0EE670A05F030FEB0EE407AF0EE607A1A
:1044200087ED027B97ED020B01F058FE0346002B4F
:1044300006D197ED020B01F003FE0346002B06D0D8
:104440004FF000024FF00003C7E902230BE09FED9D
:10445000121B97ED020B05F097FEB0EE407AF0EEDE
:10446000607A87ED027B4FF000024FF00003D7E93E
:104470000201FCF743FD0346002B21D0BC68FB681A
:1044800083F0004520462946FCF776FD03469BB2A3
:104490005B429BB21AE000BF000000000000F04049
:1044A000000000000000F041BC120020C8130020F2
:1044B000080000200000004B000000000000F03F5A
:1044C000D7E90201FCF758FD03469BB2624AA2F805
:1044D000C230624BD3F89C31B3F1FF3F06D05F4B43
:1044E000D3F89C3101335D4AC2F89C315B4B4FF0ED
:1044F000FF32C3F89821FFF763FA584BD3F8AC208A
:10450000554B93F8FD3019461046FEF7E3FE534B2A
:104510001C6F514BD3F888301846FCF703FA02465B
:104520000B4643EC102B2046FEF7F8F84B4BD3F824
:10453000C020494B93F8FE3019461046FEF7CAFEDC
:10454000464BD3F8D420444B93F8FF30194610461D
:10455000FEF7C0FE414BD3F8E8203F4B93F8003103
:1045600019461046FEF7B6FE3C4BD3F8FC203A4BFA
:1045700093F8013119461046FEF7ACFE374BD3F8DD
:104580001021354B93F8023119461046FEF7A2FE72
:10459000324BD3F82421304B93F80331194610469F
:1045A000FEF798FE2D4BD3F838212B4B93F80431AE
:1045B00019461046FEF78EFE284BD3F84C21264BA9
:1045C00093F8053119461046FEF784FE234BD3F8C5
:1045D0006021214B93F8063119461046FEF77AFE0A
:1045E0001E4BD3F884401C4BD3F8B4301846FCF76C
:1045F000BBF902460B4643EC102B2046FEF78EF823
:10460000164BD3F89840144BD3F8B8301846FCF743
:10461000ABF902460B4643EC102B2046FEF77EF822
:104620000E4BD3F874410E4BD3E90A0101231D460A
:104630004FF000024FF00003FCF756FC0346002B3E
:1046400001D000231D46EBB219462046FEF742FE7C
:1046500000BF1037BD46B0BDBC120020C8130020FB
:10466000080000200000000090B585B000AF0820D1
:1046700001F0A2FC01F094F8B94B4FF0FF32C3F8FF
:104680009821B74B00225A64B54B002283F8402092
:10469000B44BD3E90034B24AC2E91634B248FFF74A
:1046A000CFFBAF4B01221A70AD4B00225A60AC4ACF
:1046B0004FF00003AD4CC2E90634A94B00221A703A
:1046C000A84BD3E90434A64AC2E90634A44BFB60E4
:1046D000A34B00221A72A24B01225A600021002033
:1046E000FEF750FD0246FB681A619D4B01221A72CB
:1046F0009B4B012283F82020994B00225A62984A52
:104700004FF00003994CC2E90E34954B002283F818
:104710002020944BD3E90234914AC2E90E34944BE1
:10472000FB608F4B002283F828208D4B01225A62B8
:1047300000210120FEF726FD0246FB681A61884B26
:10474000012283F82820864B012283F89C20844B89
:104750000022C3F8A020824B002283F89C20854BC6
:10476000BB607F4B002283F8A4207D4B0122C3F85D
:10477000A02001210420FEF705FD0246BB681A6156
:10478000774B012283F8A420754B012283F8602027
:10479000734B00225A66724B002283F86020764BDE
:1047A0007B606F4B002283F868206D4B01225A66B4
:1047B0009FED671B9FED680B0520FDF7F3FE02469A
:1047C0007B681A61664B1B6F1846FDF79DFF644BB3
:1047D000012283F86820624B012283F8B020604BED
:1047E0000022C3F8B4205E4B002283F8B020634B54
:1047F000BB605B4B002283F8B820594B0122C3F801
:10480000B42001210720FEF7BDFC0246BB681A61F7
:10481000534B012283F8B820514B012283F8C42066
:104820004F4B0022C3F8C8204D4B002283F8C42010
:10483000534BBB604A4B002283F8CC20484B0122EB
:10484000C3F8C82001210820FEF79CFC0246BB6883
:104850001A61434B012283F8CC20414B012283F89B
:10486000D8203F4B0022C3F8DC203D4B002283F8C8
:10487000D820444BBB603A4B002283F8E020384BF1
:104880000122C3F8DC2001210920FEF77BFC02464F
:10489000BB681A61324B012283F8E020304B0122C1
:1048A00083F8EC202E4B0022C3F8F0202C4B002282
:1048B00083F8EC20344BBB60294B002283F8F420B2
:1048C000274B0122C3F8F02001210A20FEF75AFCF1
:1048D0000246BB681A61224B012283F8F420204B68
:1048E000012283F800211E4B0022C3F804211C4B37
:1048F000002283F80021254BBB60194B002283F86E
:104900000821174B0122C3F8042101210B20FEF7D7
:1049100039FC0246BB681A61114B012283F8082159
:104920000F4B012283F814210D4B0022C3F81821EC
:104930000B4B002283F81421154BBB60084B00225F
:1049400083F81C21064B0122C3F8182122E000BF86
:1049500000000000000000000000000000409F4038
:10496000C813002008000020081400200000F0BF39
:10497000E81300206414002028140020781400207C
:104980008C140020A0140020B4140020C8140020AF
:10499000DC14002001210C20FEF7F4FB0246BB686A
:1049A0001A61734B012283F81C21714B012283F899
:1049B00028216F4B0022C3F82C216D4B002283F875
:1049C00028216C4BBB606A4B002283F83021684B76
:1049D0000122C3F82C2101210220FEF7D3FB02465D
:1049E000BB681A61624B012283F83021604B0122BF
:1049F00083F83C215E4B0022C3F840215C4B00222F
:104A000083F83C215C4BBB60594B002283F8442166
:104A1000574B0122C3F8402101212A20FEF7B2FBA7
:104A20000246BB681A61524B012283F84421504B65
:104A3000012283F850214E4B0022C3F854214C4BE5
:104A4000002283F850214D4BBB60494B002283F874
:104A50005821474B0122C3F8542101212C20FEF795
:104A600091FB0246BB681A61414B012283F8582131
:104A70003F4B012283F874203D4B00229A673C4B48
:104A8000002283F874203E4B7B60394B002283F870
:104A90007C20374B01229A679FED311B9FED320B33
:104AA0000620FDF77FFD02467B681A61304BD3F884
:104AB00084301846FDF728FE2D4B012283F87C2018
:104AC0002B4B012283F88820294B0022C3F88C202D
:104AD000274B002283F888202A4B7B60244B00223E
:104AE00083F89020224B0122C3F88C209FED1C1BE1
:104AF0009FED1D0B0320FDF755FD02467B681A61F3
:104B00001B4BD3F898301846FDF7FEFD184B0122D9
:104B100083F89020164B012283F86421144B002265
:104B2000C3F86821124B002283F86421164BBB6046
:104B30000F4B002283F86C210D4B0122C3F8682132
:104B400001210D20FEF71EFB0246BB681A61084BCF
:104B5000012283F86C2100BF1437BD4690BD00BF11
:104B600000000000000000000000000000409F4026
:104B7000C8130020F0140020041500201815002090
:104B80003C140020501400202C15002080B500AFEC
:104B90001B48FFF7A7F800F075FF1A48FFF7D4F895
:104BA0001948FFF7D1F81948FFF700F91848FFF73F
:104BB00034F91848FFF7FAF81748FFF7F7F81748DD
:104BC000FFF7F4F81648FFF7F1F81648FFF7EEF88C
:104BD0001548FFF7EBF81548FFF7E8F81448FFF71A
:104BE000E5F81448FFF7E2F81348FFF716F9134801
:104BF000FFF713F91248FFF7D9F800BF80BD00BFD7
:104C000008140020C8130020E813002064140020BA
:104C100028140020781400208C140020A0140020F8
:104C2000B4140020C8140020DC140020F01400206C
:104C300004150020181500203C14002050140020FA
:104C40002C15002080B400AFFEE7000080B483B0D4
:104C500000AF78607B68013B032B0BD801A252F8B0
:104C600023F000BF754C0000754C0000754C00002F
:104C7000754C000000BFFEE7704770470020002120
:104C800004460D46084805F033FC05F07BFC204641
:104C9000294601F0DFFC0548002101F00FFE01F07C
:104CA00069FD05F031FC000029A5000088D1000055
:104CB00080B584B000AFF860B9601346FB71BB6883
:104CC0001F2B05D90D4B0E4AFF210E4805F0F2FBB4
:104CD000FB68BA6853F8223023F0807323F4E06352
:104CE000FA79120202F4E06243EA0201FB68BA6850
:104CF00043F8221000BF1037BD4680BD20D0000011
:104D0000B0D100002CD0000080B483B000AF786038
:104D10000B46FB707B68FA781A7000BF0C37BD46F3
:104D20005DF8047B7047000080B584B000AF3B465F
:104D300000221A605A609A60DA60064B3B600223D8
:104D40007B723B461946002003F0EEF900BF103796
:104D5000BD4680BD80F0FA0280B584B000AF074A3E
:104D60003B1D07CA83E807003B1D1946002003F0DE
:104D700029FA00BF1037BD4680BD00BF64D00000D7
:104D800080B500AF2A210848FFF7BEFF002212219C
:104D90000648FFF78DFFFFF7C7FFFFF7DDFF044869
:104DA00003F064FA00BF80BD00E0074000900440BB
:104DB00098D1000080B582B000AF7860034800F061
:104DC000A0FA00BF0837BD4680BD00BF7044002078
:104DD00098B500AF094B0A4A1A600A4B0A4A1C1DD3
:104DE00013460FCB84E80F0000F0E1FA0246054BB2
:104DF0001A60064B034A1A6000BF98BD7044002039
:104E0000784400205044002088D1000068440020ED
:104E100080B586B002AF87ED010A38600223FB60DF
:104E2000FFF7D6FF164800F05CFA0346BB60154852
:104E300000F057FA0346BB60002300930023FA6892
:104E40001149124800F08AFA0346BB600023104A59
:104E50000121104800F0C3FA0346BB60D7ED017A88
:104E60009FED0D7A67EE877AFCEEE77A17EE901ADF
:104E7000084800F0DBFA00BF1037BD4680BD00BF18
:104E800070440020684400209D4E000078440020BB
:104E9000B54D00002C44002000007A4480B586B057
:104EA00000AF7861184B1B681B68002B0CBF0123F7
:104EB0000023DBB21A46154B1A7011E03B46144929
:104EC000184600F031FAFEF7F7FF0F4B1B681B681E
:104ED000002B14BF01230023DBB21A460D4B1A70BE
:104EE0000A4B1B78DBB2002BE8D1084B00221A706A
:104EF000786900F011F8002000F060FA00231846ED
:104F00001837BD4680BD00BF44D1000040000020DE
:104F1000704400206444002080B582B000AF786007
:104F2000074B01221A60074B00221A70FFF72EFE72
:104F3000054800F0E6F9002318460837BD4680BD55
:104F40008C440020400000206844002080B586B0DA
:104F500000AF7861396100F0F3FE00F0BCF80A4B55
:104F60001B6800221A60FFF77FFB00209FED070AF5
:104F7000FFF74EFF3B460649184600F0D5F90023DF
:104F800018461837BD4680BD44D100006F12833AE1
:104F90006844002080B500AF002003F085FC00BF0E
:104FA00080BD80B500AF012003F07EFC00BF80BD56
:104FB00080B500AF022003F077FC00BF80BD80B554
:104FC00000AF032003F070FC00BF80BD80B500AFD0
:104FD000042003F069FC00BF80BD80B500AF052050
:104FE00003F062FC00BF80BD80B500AF062003F077
:104FF0005BFC00BF80BD80B500AF072003F054FC10
:1050000000BF80BD80B500AF082003F04DFC00BF9D
:1050100080BD80B500AF092003F046FC00BF80BD15
:1050200080B500AF0A2003F03FFC00BF80BD80B513
:1050300000AF0B2003F038FC00BF80BD80B500AF8F
:105040000C2003F031FC00BF80BD80B500AF0D2007
:1050500003F02AFC00BF80BD80B500AF0E2003F036
:1050600023FC00BF80BD80B500AF0F2003F01CFC07
:1050700000BF80BD80B500AF002003F02DFC00BF55
:1050800080BD80B500AF002004F0B6FA00BF80BD3F
:1050900080B500AF012004F0AFFA00BF80BD80B53D
:1050A00000AF022004F0A8FA00BF80BD80B500AFB9
:1050B000032004F0A1FA00BF80BD80B500AF04203A
:1050C00004F09AFA00BF80BD80B500AF052004F05F
:1050D00093FA00BF80BD80B582B000AF02F062FFDE
:1050E0000023FB7106E0FB79184603F047F9FB79D2
:1050F0000133FB71FB79042BF5D9FFF741FE00BFAB
:105100000837BD4680BD80B400AFFEE780B400AF75
:10511000FEE780B400AFFEE780B400AFFEE780B4E6
:1051200000AFFEE780B400AFFEE780B400AFFEE75B
:1051300080B400AFFEE780B400AFFEE780B400AFFC
:10514000FEE780B400AFFEE780B400AFFEE780B4B6
:1051500000AFFEE780B400AFFEE780B400AFFEE72B
:1051600080B400AFFEE780B400AFFEE780B400AFCC
:10517000FEE780B400AFFEE780B400AFFEE780B486
:1051800000AFFEE780B400AFFEE780B400AFFEE7FB
:1051900080B400AFFEE780B400AFFEE780B400AF9C
:1051A000FEE780B400AFFEE780B400AFFEE780B456
:1051B00000AFFEE780B400AFFEE780B400AFFEE7CB
:1051C00080B400AFFEE780B400AFFEE780B400AF6C
:1051D000FEE780B400AFFEE780B400AFFEE780B426
:1051E00000AFFEE780B400AFFEE780B400AFFEE79B
:1051F00080B400AFFEE780B400AFFEE780B400AF3C
:10520000FEE780B400AFFEE780B400AFFEE780B4F5
:1052100000AFFEE780B400AFFEE780B400AFFEE76A
:1052200080B400AFFEE780B400AFFEE780B400AF0B
:10523000FEE780B400AFFEE780B400AFFEE780B4C5
:1052400000AFFEE780B400AFFEE780B400AFFEE73A
:1052500080B400AFFEE780B400AFFEE780B400AFDB
:10526000FEE780B400AFFEE780B400AFFEE784B095
:1052700080B582B000AF07F1100C8CE80F003B69DD
:10528000796A184601F06CFD03467B607B6818461E
:105290000837BD46BDE8804004B0704784B080B593
:1052A00000AF07F1080C8CE80F00BB68F9691846DD
:1052B00001F076FD03461846BD46BDE8804004B0C7
:1052C000704780B582B000AF786039607B684FF07E
:1052D000FF323968184601F071FD78680837BD461D
:1052E00080BD80B485B000AF78607B6801225A60D1
:1052F0000123FB60FB6818461437BD465DF8047B4C
:10530000704780B584B002AF78607B681B687A68AC
:10531000526801921A6900920FCBFFF7A8FF03466B
:1053200018460837BD4680BD80B584B002AF7860AE
:1053300039603B681B683A68526801921A690092AA
:105340000FCBFFF7ABFF3B685A687B6811461846E6
:10535000FFF7B7FF78680837BD4680BD80B586B0D7
:1053600000AFF860B9607A603B60FB68BA685A6069
:10537000FB687A689A60FB680122DA603A68FB6829
:105380001A61FB680433396A184601F097FA02463D
:10539000FB681A60FB681B68002B14BF0123002305
:1053A000DBB27B617B6918461837BD4680BD80B58E
:1053B00000AF01F0D1FA0346184680BD80B584B035
:1053C00000AF786001F0C8FA0346FB60F86801F0AE
:1053D000CFFA0346BB6000BF1037BD4680BD80B525
:1053E00086B000AFF8607A603B600B46FB72FB68EA
:1053F00003F10C02FB689A60FB687A685A60FB68EC
:105400000433F97A3A68184601F0A6FB0246FB68B5
:105410001A60FB681B68002B14BF01230023DBB25A
:105420007B617B6918461837BD4680BD80B584B066
:1054300000AF786039607B681B683968184601F0F6
:10544000BDFB0346FB60FB6818461037BD4680BDB8
:1054500080B584B000AFF860B9601346FB71BB68DB
:105460001F2B05D90D4B0E4AFF210E4805F022F8DF
:10547000FB68BA6853F8223023F0807323F4E063AA
:10548000FA79120202F4E06243EA0201FB68BA68A8
:1054900043F8221000BF1037BD4680BD70D0000019
:1054A000C4D100007CD0000080B483B000AF78602D
:1054B0000B46FB707B6803F581530833FA78520979
:1054C000D2B29200134403F10473DA00FB7803F0C4
:1054D0001F0313449B001A460123136000BF0C37BF
:1054E000BD465DF8047B704780B584B000AF78603E
:1054F00089215D48FFF7D8FF8A215B48FFF7D4FF79
:105500008B215948FFF7D0FF8C215748FFF7CCFF7C
:105510008D215548FFF7C8FF7B68032B00F296806A
:1055200001A252F823F000BF39550000AB5500002E
:10553000D5550000FF5500000023FB600023BB6031
:10554000FB68002B05D1032211214848FFF780FF9B
:1055500010E0FB68012B05D1032202214448FFF72C
:1055600077FF07E0FB68022B04D1032207214148A3
:10557000FFF76EFFBB68002B05D1032210213B48CB
:10558000FFF766FF64E0BB68012B05D10322012110
:105590003748FFF75DFF5BE0BB68022B58D1032261
:1055A00006213448FFF754FF52E00023FB6000233C
:1055B000BB60FB68002B04D1032204212E48FFF7B7
:1055C00047FFBB68002B45D1032203212A48FFF780
:1055D0003FFF3FE00023FB600023BB60FB68002B24
:1055E00004D1032203212348FFF732FFBB68002BBD
:1055F00032D1032202211F48FFF72AFF2CE00023AB
:10560000FB600023BB60FB68002B05D10322112146
:105610001948FFF71DFF07E0FB68012B04D10322A7
:105620000B211248FFF714FFBB68002B05D10322A2
:1056300010211148FFF70CFF10E0BB68012B0DD1C2
:1056400003220A210948FFF703FF07E000BF06E035
:1056500000BF04E000BF02E000BF00E000BF00BFE9
:105660001037BD4680BD00BF0070044000A004405C
:105670000090044000C0044000B0044080B584B0F5
:1056800000AF7860114B1B68002B02D10F4B104A02
:105690001A600E4B1B68FB600C4B1A687B68134446
:1056A0000C4A934207D904F029FF02460C231360E9
:1056B0004FF0FF3306E0054B1A687B681344034A3A
:1056C0001360FB6818461037BD4680BD904400202B
:1056D0000000FF1F0000002080B586B000AF78609A
:1056E0007B6800221A727B6801225A604FF0FF33F8
:1056F0007B610023FB6007F10C000A237A6900211B
:10570000FDF7B8F802467B681A617B681B694FF4A5
:10571000E1311846FDF784FB0123FB740023BB74C1
:105720007B681869FB7CBA7C0821FDF785FB7B68E8
:1057300001221A7200BF1837BD4680BD80B582B005
:1057400000AF78607B685B68012B08D17B681B7AAF
:10575000002B04D07B681B691846FDF713FC00BFC3
:105760000837BD4680BD80B582B000AF78607868EC
:10577000FFF7E4FF00BF0837BD4680BD80B582B0AB
:1057800000AF78607B681B78002B05D17B68012215
:105790001A707868FFF7E7FF00BF0837BD4680BD85
:1057A00080B500AF064B0022C3F87C21044B0022D9
:1057B00083F878210348FFF78FFF00BF80BD00BF4B
:1057C000C81300204015002080B58AB000AF974B69
:1057D000D3F8A430954AC2F88C30944BD3F8A83053
:1057E000924AC2F89030914BD3F8AC308F4AC2F84D
:1057F00094308E4BD3F8B0308C4AC2F898308B4B33
:10580000B3F8CC20894BA3F8C420884BB3F8CE2042
:10581000864BA3F8C620854BB3F8D020834BA3F862
:10582000C820824BB3F8D220804BA3F8CA207F4B0C
:10583000D3F8B4307D4AC2F89C307C4BD3F8B830F2
:105840007A4AC2F8A030042279497A48FCF70AFD66
:10585000042279497948FCF705FD04227849794802
:10586000FCF700FD042278497848FCF7FBFC022293
:1058700077497848FCF7F6FC022277497748FCF72D
:10588000F1FC022276497748FCF7ECFC02227649CB
:105890007648FCF7E7FC042275497648FCF7E2FC01
:1058A000042275497548FCF7DDFC604B93F8F43031
:1058B0003B705E4B93F8F5307B705C4B93F8F630A1
:1058C000BB705A4B93F8D430FB70584B93F8D830D8
:1058D000FB71564B93F8DC30FB72544B93F8E0307D
:1058E000FB73524B93F8D5303B71504B93F8D93042
:1058F0003B724E4B93F8DD303B734C4B93F8E130E9
:105900003B744A4B93F8D6307B71484B93F8DA30AE
:105910007B72464B93F8DE307B73444B93F8E23056
:105920007B74424B93F8D730BB71404B93F8DB301C
:10593000BB723E4B93F8DF30BB733C4B93F8E330C4
:10594000BB743A4B93F8E430FB74384B93F8E63071
:105950007B75364B93F8E830FB75344B93F8EA309F
:105960007B76324B93F8E5303B75304B93F8E7305C
:10597000BB752E4B93F8E9303B762C4B93F8EB300C
:10598000BB762A4B93F8F730FB76284B93F8F83028
:105990003B77264B93F8F9307B77244B93F8FA301A
:1059A000BB77224B93F8EC30FB77204B93F8F03029
:1059B00087F823301D4B93F8ED3087F820301B4BD0
:1059C00093F8F13087F82430184B93F8EE3087F8CD
:1059D0002130164B93F8F23087F82530134B93F8AB
:1059E000EF3087F82230114B93F8F33087F82630E8
:1059F000012387F8273010E03B46272219460B4841
:105A0000FCF730FC1E4BD3F8883127220749184693
:105A1000FDF778FA034687F8273097F82730002BF0
:105A2000EAD100BF2837BD4680BD00BFBC120020B0
:105A300048130020901300204C13002094130020E2
:105A40005013002098130020541300209C130020B2
:105A500080130020A013002082130020A213002036
:105A600084130020A413002086130020A613002016
:105A700058130020A81300205C130020AC13002052
:105A8000C813002080B500AF0248FFF777FE00BFC3
:105A900080BD00BF4015002080B489B000AF284B06
:105AA000FB60284A284B9A4216D00023FB610AE08B
:105AB000254AFB6952F823202249FB6941F823203B
:105AC000FB690133FB61FB689B08FA699A42EFD3DB
:105AD0001E4B1C4A9A6002E01C4B1B4A9A601C4BEE
:105AE000BB611C4B7B611C4BBB60BA687B69D31AE2
:105AF000FB6107E07A69531C7B61BB69591CB96182
:105B000012781A70FB695A1EFA61002BF2D1134BFE
:105B10003B61134B7B607A683B69D31AFB6104E0FD
:105B20003B695A1C3A6100221A70FB695A1EFA61DD
:105B3000002BF5D100BF2437BD465DF8047B7047CC
:105B400000000000000000000000000000ED00E088
:105B50000000002004E7000044F50000400E002093
:105B60003046002080B400AF6B4BD3F888306A4ACF
:105B700043F47003C2F88830684B4CF22052DA814B
:105B8000664B4DF62812DA81644B4FF4E9721A80A5
:105B9000634B1B78DBB203F00103002B0FD0614B8A
:105BA0009B78DBB203F00803002B2ED05D4B9B7873
:105BB000DBB25C4A43F00803DBB2937025E05A4B3A
:105BC00003F581531C331B68574943F0005201F51C
:105BD00081531C331A60554B1B6903F48073002BEF
:105BE00013D1524B1B6923F47C53504A43F4407346
:105BF00013614E4B1B694D4A43F4807313614B4B49
:105C00001B694A4A23F400731361494B2A221A7014
:105C1000454B03F5825304334FF08A721A60424BAE
:105C20001B6823F44023404A43F4002313603E4B97
:105C300003F5805304331B6823F440333A4943F49B
:105C4000803201F5805304331A60374B03F58153DA
:105C500018331B68344943F4007201F5815318333B
:105C60001A60344B9B6C334A23F0807323F4E06357
:105C70009364314B00221A722F4B5B78DBB223F016
:105C80006003DBB22C4A43F02003DBB253702B4B92
:105C900080221A70284B00221A73274BBA221A70DE
:105CA00000BF254B9B79DBB203F01003002BF8D12A
:105CB000214BDB78DBB2204A03F01F03DBB2D37049
:105CC0001D4B13221A711C4B18225A711A4B5B7907
:105CD000DBB2194A43F04003DBB2537100BF164BED
:105CE0009B79DBB203F04003002BF8D0124B1B78FA
:105CF000DBB2114A03F03F03DBB2137000BF0E4B5F
:105D00009B79DBB203F00C030C2BF8D100BFBD462E
:105D10005DF8047B704700BF00ED00E00020054007
:105D200000F0074000D007400070044000D003405E
